{
  "abi": [
    {
      "inputs": [
        {
          "internalType": "uint256",
          "name": "amountOutMin",
          "type": "uint256"
        },
        {
          "internalType": "address[]",
          "name": "path",
          "type": "address[]"
        },
        {
          "internalType": "address",
          "name": "to",
          "type": "address"
        },
        {
          "internalType": "uint256",
          "name": "deadline",
          "type": "uint256"
        }
      ],
      "name": "swapExactETHForTokens",
      "outputs": [
        {
          "internalType": "uint256[]",
          "name": "amounts",
          "type": "uint256[]"
        }
      ],
      "stateMutability": "payable",
      "type": "function"
    }
  ],
  "devdoc": {
    "kind": "dev",
    "methods": {},
    "version": 1
  },
  "evm": {
    "assembly": "    /* \"contracts/MockDEX.sol\":113:534  contract MockDEX is ISparkDEX {... */\n  mstore(0x40, 0x80)\n  callvalue\n  dup1\n  iszero\n  tag_1\n  jumpi\n  0x00\n  dup1\n  revert\ntag_1:\n  pop\n  dataSize(sub_0)\n  dup1\n  dataOffset(sub_0)\n  0x00\n  codecopy\n  0x00\n  return\nstop\n\nsub_0: assembly {\n        /* \"contracts/MockDEX.sol\":113:534  contract MockDEX is ISparkDEX {... */\n      mstore(0x40, 0x80)\n      jumpi(tag_1, lt(calldatasize, 0x04))\n      shr(0xe0, calldataload(0x00))\n      dup1\n      0x7ff36ab5\n      eq\n      tag_2\n      jumpi\n    tag_1:\n      0x00\n      dup1\n      revert\n        /* \"contracts/MockDEX.sol\":149:532  function swapExactETHForTokens(... */\n    tag_2:\n      tag_3\n      0x04\n      dup1\n      calldatasize\n      sub\n      dup2\n      add\n      swap1\n      tag_4\n      swap2\n      swap1\n      tag_5\n      jump\t// in\n    tag_4:\n      tag_6\n      jump\t// in\n    tag_3:\n      mload(0x40)\n      tag_7\n      swap2\n      swap1\n      tag_8\n      jump\t// in\n    tag_7:\n      mload(0x40)\n      dup1\n      swap2\n      sub\n      swap1\n      return\n    tag_6:\n        /* \"contracts/MockDEX.sol\":324:345  uint[] memory amounts */\n      0x60\n        /* \"contracts/MockDEX.sol\":432:433  2 */\n      0x02\n        /* \"contracts/MockDEX.sol\":421:434  new uint[](2) */\n      0xffffffffffffffff\n      dup2\n      gt\n      iszero\n      tag_10\n      jumpi\n      tag_11\n      tag_12\n      jump\t// in\n    tag_11:\n    tag_10:\n      mload(0x40)\n      swap1\n      dup1\n      dup3\n      mstore\n      dup1\n      0x20\n      mul\n      0x20\n      add\n      dup3\n      add\n      0x40\n      mstore\n      dup1\n      iszero\n      tag_13\n      jumpi\n      dup2\n      0x20\n      add\n      0x20\n      dup3\n      mul\n      dup1\n      calldatasize\n      dup4\n      calldatacopy\n      dup1\n      dup3\n      add\n      swap2\n      pop\n      pop\n      swap1\n      pop\n    tag_13:\n      pop\n        /* \"contracts/MockDEX.sol\":411:434  amounts = new uint[](2) */\n      swap1\n      pop\n        /* \"contracts/MockDEX.sol\":457:466  msg.value */\n      callvalue\n        /* \"contracts/MockDEX.sol\":444:451  amounts */\n      dup2\n        /* \"contracts/MockDEX.sol\":452:453  0 */\n      0x00\n        /* \"contracts/MockDEX.sol\":444:454  amounts[0] */\n      dup2\n      mload\n      dup2\n      lt\n      tag_14\n      jumpi\n      tag_15\n      tag_16\n      jump\t// in\n    tag_15:\n    tag_14:\n      0x20\n      mul\n      0x20\n      add\n      add\n        /* \"contracts/MockDEX.sol\":444:466  amounts[0] = msg.value */\n      dup2\n      dup2\n      mstore\n      pop\n      pop\n        /* \"contracts/MockDEX.sol\":489:501  amountOutMin */\n      dup6\n        /* \"contracts/MockDEX.sol\":476:483  amounts */\n      dup2\n        /* \"contracts/MockDEX.sol\":484:485  1 */\n      0x01\n        /* \"contracts/MockDEX.sol\":476:486  amounts[1] */\n      dup2\n      mload\n      dup2\n      lt\n      tag_17\n      jumpi\n      tag_18\n      tag_16\n      jump\t// in\n    tag_18:\n    tag_17:\n      0x20\n      mul\n      0x20\n      add\n      add\n        /* \"contracts/MockDEX.sol\":476:501  amounts[1] = amountOutMin */\n      dup2\n      dup2\n      mstore\n      pop\n      pop\n        /* \"contracts/MockDEX.sol\":149:532  function swapExactETHForTokens(... */\n      swap6\n      swap5\n      pop\n      pop\n      pop\n      pop\n      pop\n      jump\t// out\n        /* \"#utility.yul\":88:205   */\n    tag_20:\n        /* \"#utility.yul\":197:198   */\n      0x00\n        /* \"#utility.yul\":194:195   */\n      dup1\n        /* \"#utility.yul\":187:199   */\n      revert\n        /* \"#utility.yul\":211:328   */\n    tag_21:\n        /* \"#utility.yul\":320:321   */\n      0x00\n        /* \"#utility.yul\":317:318   */\n      dup1\n        /* \"#utility.yul\":310:322   */\n      revert\n        /* \"#utility.yul\":334:411   */\n    tag_22:\n        /* \"#utility.yul\":371:378   */\n      0x00\n        /* \"#utility.yul\":400:405   */\n      dup2\n        /* \"#utility.yul\":389:405   */\n      swap1\n      pop\n        /* \"#utility.yul\":334:411   */\n      swap2\n      swap1\n      pop\n      jump\t// out\n        /* \"#utility.yul\":417:539   */\n    tag_23:\n        /* \"#utility.yul\":490:514   */\n      tag_46\n        /* \"#utility.yul\":508:513   */\n      dup2\n        /* \"#utility.yul\":490:514   */\n      tag_22\n      jump\t// in\n    tag_46:\n        /* \"#utility.yul\":483:488   */\n      dup2\n        /* \"#utility.yul\":480:515   */\n      eq\n        /* \"#utility.yul\":470:533   */\n      tag_47\n      jumpi\n        /* \"#utility.yul\":529:530   */\n      0x00\n        /* \"#utility.yul\":526:527   */\n      dup1\n        /* \"#utility.yul\":519:531   */\n      revert\n        /* \"#utility.yul\":470:533   */\n    tag_47:\n        /* \"#utility.yul\":417:539   */\n      pop\n      jump\t// out\n        /* \"#utility.yul\":545:684   */\n    tag_24:\n        /* \"#utility.yul\":591:596   */\n      0x00\n        /* \"#utility.yul\":629:635   */\n      dup2\n        /* \"#utility.yul\":616:636   */\n      calldataload\n        /* \"#utility.yul\":607:636   */\n      swap1\n      pop\n        /* \"#utility.yul\":645:678   */\n      tag_49\n        /* \"#utility.yul\":672:677   */\n      dup2\n        /* \"#utility.yul\":645:678   */\n      tag_23\n      jump\t// in\n    tag_49:\n        /* \"#utility.yul\":545:684   */\n      swap3\n      swap2\n      pop\n      pop\n      jump\t// out\n        /* \"#utility.yul\":690:807   */\n    tag_25:\n        /* \"#utility.yul\":799:800   */\n      0x00\n        /* \"#utility.yul\":796:797   */\n      dup1\n        /* \"#utility.yul\":789:801   */\n      revert\n        /* \"#utility.yul\":813:930   */\n    tag_26:\n        /* \"#utility.yul\":922:923   */\n      0x00\n        /* \"#utility.yul\":919:920   */\n      dup1\n        /* \"#utility.yul\":912:924   */\n      revert\n        /* \"#utility.yul\":936:1053   */\n    tag_27:\n        /* \"#utility.yul\":1045:1046   */\n      0x00\n        /* \"#utility.yul\":1042:1043   */\n      dup1\n        /* \"#utility.yul\":1035:1047   */\n      revert\n        /* \"#utility.yul\":1076:1644   */\n    tag_28:\n        /* \"#utility.yul\":1149:1157   */\n      0x00\n        /* \"#utility.yul\":1159:1165   */\n      dup1\n        /* \"#utility.yul\":1209:1212   */\n      dup4\n        /* \"#utility.yul\":1202:1206   */\n      0x1f\n        /* \"#utility.yul\":1194:1200   */\n      dup5\n        /* \"#utility.yul\":1190:1207   */\n      add\n        /* \"#utility.yul\":1186:1213   */\n      slt\n        /* \"#utility.yul\":1176:1298   */\n      tag_54\n      jumpi\n        /* \"#utility.yul\":1217:1296   */\n      tag_55\n      tag_25\n      jump\t// in\n    tag_55:\n        /* \"#utility.yul\":1176:1298   */\n    tag_54:\n        /* \"#utility.yul\":1330:1336   */\n      dup3\n        /* \"#utility.yul\":1317:1337   */\n      calldataload\n        /* \"#utility.yul\":1307:1337   */\n      swap1\n      pop\n        /* \"#utility.yul\":1360:1378   */\n      0xffffffffffffffff\n        /* \"#utility.yul\":1352:1358   */\n      dup2\n        /* \"#utility.yul\":1349:1379   */\n      gt\n        /* \"#utility.yul\":1346:1463   */\n      iszero\n      tag_56\n      jumpi\n        /* \"#utility.yul\":1382:1461   */\n      tag_57\n      tag_26\n      jump\t// in\n    tag_57:\n        /* \"#utility.yul\":1346:1463   */\n    tag_56:\n        /* \"#utility.yul\":1496:1500   */\n      0x20\n        /* \"#utility.yul\":1488:1494   */\n      dup4\n        /* \"#utility.yul\":1484:1501   */\n      add\n        /* \"#utility.yul\":1472:1501   */\n      swap2\n      pop\n        /* \"#utility.yul\":1550:1553   */\n      dup4\n        /* \"#utility.yul\":1542:1546   */\n      0x20\n        /* \"#utility.yul\":1534:1540   */\n      dup3\n        /* \"#utility.yul\":1530:1547   */\n      mul\n        /* \"#utility.yul\":1520:1528   */\n      dup4\n        /* \"#utility.yul\":1516:1548   */\n      add\n        /* \"#utility.yul\":1513:1554   */\n      gt\n        /* \"#utility.yul\":1510:1638   */\n      iszero\n      tag_58\n      jumpi\n        /* \"#utility.yul\":1557:1636   */\n      tag_59\n      tag_27\n      jump\t// in\n    tag_59:\n        /* \"#utility.yul\":1510:1638   */\n    tag_58:\n        /* \"#utility.yul\":1076:1644   */\n      swap3\n      pop\n      swap3\n      swap1\n      pop\n      jump\t// out\n        /* \"#utility.yul\":1650:1776   */\n    tag_29:\n        /* \"#utility.yul\":1687:1694   */\n      0x00\n        /* \"#utility.yul\":1727:1769   */\n      0xffffffffffffffffffffffffffffffffffffffff\n        /* \"#utility.yul\":1720:1725   */\n      dup3\n        /* \"#utility.yul\":1716:1770   */\n      and\n        /* \"#utility.yul\":1705:1770   */\n      swap1\n      pop\n        /* \"#utility.yul\":1650:1776   */\n      swap2\n      swap1\n      pop\n      jump\t// out\n        /* \"#utility.yul\":1782:1878   */\n    tag_30:\n        /* \"#utility.yul\":1819:1826   */\n      0x00\n        /* \"#utility.yul\":1848:1872   */\n      tag_62\n        /* \"#utility.yul\":1866:1871   */\n      dup3\n        /* \"#utility.yul\":1848:1872   */\n      tag_29\n      jump\t// in\n    tag_62:\n        /* \"#utility.yul\":1837:1872   */\n      swap1\n      pop\n        /* \"#utility.yul\":1782:1878   */\n      swap2\n      swap1\n      pop\n      jump\t// out\n        /* \"#utility.yul\":1884:2006   */\n    tag_31:\n        /* \"#utility.yul\":1957:1981   */\n      tag_64\n        /* \"#utility.yul\":1975:1980   */\n      dup2\n        /* \"#utility.yul\":1957:1981   */\n      tag_30\n      jump\t// in\n    tag_64:\n        /* \"#utility.yul\":1950:1955   */\n      dup2\n        /* \"#utility.yul\":1947:1982   */\n      eq\n        /* \"#utility.yul\":1937:2000   */\n      tag_65\n      jumpi\n        /* \"#utility.yul\":1996:1997   */\n      0x00\n        /* \"#utility.yul\":1993:1994   */\n      dup1\n        /* \"#utility.yul\":1986:1998   */\n      revert\n        /* \"#utility.yul\":1937:2000   */\n    tag_65:\n        /* \"#utility.yul\":1884:2006   */\n      pop\n      jump\t// out\n        /* \"#utility.yul\":2012:2151   */\n    tag_32:\n        /* \"#utility.yul\":2058:2063   */\n      0x00\n        /* \"#utility.yul\":2096:2102   */\n      dup2\n        /* \"#utility.yul\":2083:2103   */\n      calldataload\n        /* \"#utility.yul\":2074:2103   */\n      swap1\n      pop\n        /* \"#utility.yul\":2112:2145   */\n      tag_67\n        /* \"#utility.yul\":2139:2144   */\n      dup2\n        /* \"#utility.yul\":2112:2145   */\n      tag_31\n      jump\t// in\n    tag_67:\n        /* \"#utility.yul\":2012:2151   */\n      swap3\n      swap2\n      pop\n      pop\n      jump\t// out\n        /* \"#utility.yul\":2157:3152   */\n    tag_5:\n        /* \"#utility.yul\":2270:2276   */\n      0x00\n        /* \"#utility.yul\":2278:2284   */\n      dup1\n        /* \"#utility.yul\":2286:2292   */\n      0x00\n        /* \"#utility.yul\":2294:2300   */\n      dup1\n        /* \"#utility.yul\":2302:2308   */\n      0x00\n        /* \"#utility.yul\":2351:2354   */\n      0x80\n        /* \"#utility.yul\":2339:2348   */\n      dup7\n        /* \"#utility.yul\":2330:2337   */\n      dup9\n        /* \"#utility.yul\":2326:2349   */\n      sub\n        /* \"#utility.yul\":2322:2355   */\n      slt\n        /* \"#utility.yul\":2319:2439   */\n      iszero\n      tag_69\n      jumpi\n        /* \"#utility.yul\":2358:2437   */\n      tag_70\n      tag_20\n      jump\t// in\n    tag_70:\n        /* \"#utility.yul\":2319:2439   */\n    tag_69:\n        /* \"#utility.yul\":2478:2479   */\n      0x00\n        /* \"#utility.yul\":2503:2556   */\n      tag_71\n        /* \"#utility.yul\":2548:2555   */\n      dup9\n        /* \"#utility.yul\":2539:2545   */\n      dup3\n        /* \"#utility.yul\":2528:2537   */\n      dup10\n        /* \"#utility.yul\":2524:2546   */\n      add\n        /* \"#utility.yul\":2503:2556   */\n      tag_24\n      jump\t// in\n    tag_71:\n        /* \"#utility.yul\":2493:2556   */\n      swap6\n      pop\n        /* \"#utility.yul\":2449:2566   */\n      pop\n        /* \"#utility.yul\":2633:2635   */\n      0x20\n        /* \"#utility.yul\":2622:2631   */\n      dup7\n        /* \"#utility.yul\":2618:2636   */\n      add\n        /* \"#utility.yul\":2605:2637   */\n      calldataload\n        /* \"#utility.yul\":2664:2682   */\n      0xffffffffffffffff\n        /* \"#utility.yul\":2656:2662   */\n      dup2\n        /* \"#utility.yul\":2653:2683   */\n      gt\n        /* \"#utility.yul\":2650:2767   */\n      iszero\n      tag_72\n      jumpi\n        /* \"#utility.yul\":2686:2765   */\n      tag_73\n      tag_21\n      jump\t// in\n    tag_73:\n        /* \"#utility.yul\":2650:2767   */\n    tag_72:\n        /* \"#utility.yul\":2799:2879   */\n      tag_74\n        /* \"#utility.yul\":2871:2878   */\n      dup9\n        /* \"#utility.yul\":2862:2868   */\n      dup3\n        /* \"#utility.yul\":2851:2860   */\n      dup10\n        /* \"#utility.yul\":2847:2869   */\n      add\n        /* \"#utility.yul\":2799:2879   */\n      tag_28\n      jump\t// in\n    tag_74:\n        /* \"#utility.yul\":2781:2879   */\n      swap5\n      pop\n      swap5\n      pop\n        /* \"#utility.yul\":2576:2889   */\n      pop\n        /* \"#utility.yul\":2928:2930   */\n      0x40\n        /* \"#utility.yul\":2954:3007   */\n      tag_75\n        /* \"#utility.yul\":2999:3006   */\n      dup9\n        /* \"#utility.yul\":2990:2996   */\n      dup3\n        /* \"#utility.yul\":2979:2988   */\n      dup10\n        /* \"#utility.yul\":2975:2997   */\n      add\n        /* \"#utility.yul\":2954:3007   */\n      tag_32\n      jump\t// in\n    tag_75:\n        /* \"#utility.yul\":2944:3007   */\n      swap3\n      pop\n        /* \"#utility.yul\":2899:3017   */\n      pop\n        /* \"#utility.yul\":3056:3058   */\n      0x60\n        /* \"#utility.yul\":3082:3135   */\n      tag_76\n        /* \"#utility.yul\":3127:3134   */\n      dup9\n        /* \"#utility.yul\":3118:3124   */\n      dup3\n        /* \"#utility.yul\":3107:3116   */\n      dup10\n        /* \"#utility.yul\":3103:3125   */\n      add\n        /* \"#utility.yul\":3082:3135   */\n      tag_24\n      jump\t// in\n    tag_76:\n        /* \"#utility.yul\":3072:3135   */\n      swap2\n      pop\n        /* \"#utility.yul\":3027:3145   */\n      pop\n        /* \"#utility.yul\":2157:3152   */\n      swap3\n      swap6\n      pop\n      swap3\n      swap6\n      swap1\n      swap4\n      pop\n      jump\t// out\n        /* \"#utility.yul\":3158:3272   */\n    tag_33:\n        /* \"#utility.yul\":3225:3231   */\n      0x00\n        /* \"#utility.yul\":3259:3264   */\n      dup2\n        /* \"#utility.yul\":3253:3265   */\n      mload\n        /* \"#utility.yul\":3243:3265   */\n      swap1\n      pop\n        /* \"#utility.yul\":3158:3272   */\n      swap2\n      swap1\n      pop\n      jump\t// out\n        /* \"#utility.yul\":3278:3462   */\n    tag_34:\n        /* \"#utility.yul\":3377:3388   */\n      0x00\n        /* \"#utility.yul\":3411:3417   */\n      dup3\n        /* \"#utility.yul\":3406:3409   */\n      dup3\n        /* \"#utility.yul\":3399:3418   */\n      mstore\n        /* \"#utility.yul\":3451:3455   */\n      0x20\n        /* \"#utility.yul\":3446:3449   */\n      dup3\n        /* \"#utility.yul\":3442:3456   */\n      add\n        /* \"#utility.yul\":3427:3456   */\n      swap1\n      pop\n        /* \"#utility.yul\":3278:3462   */\n      swap3\n      swap2\n      pop\n      pop\n      jump\t// out\n        /* \"#utility.yul\":3468:3600   */\n    tag_35:\n        /* \"#utility.yul\":3535:3539   */\n      0x00\n        /* \"#utility.yul\":3558:3561   */\n      dup2\n        /* \"#utility.yul\":3550:3561   */\n      swap1\n      pop\n        /* \"#utility.yul\":3588:3592   */\n      0x20\n        /* \"#utility.yul\":3583:3586   */\n      dup3\n        /* \"#utility.yul\":3579:3593   */\n      add\n        /* \"#utility.yul\":3571:3593   */\n      swap1\n      pop\n        /* \"#utility.yul\":3468:3600   */\n      swap2\n      swap1\n      pop\n      jump\t// out\n        /* \"#utility.yul\":3606:3714   */\n    tag_36:\n        /* \"#utility.yul\":3683:3707   */\n      tag_81\n        /* \"#utility.yul\":3701:3706   */\n      dup2\n        /* \"#utility.yul\":3683:3707   */\n      tag_22\n      jump\t// in\n    tag_81:\n        /* \"#utility.yul\":3678:3681   */\n      dup3\n        /* \"#utility.yul\":3671:3708   */\n      mstore\n        /* \"#utility.yul\":3606:3714   */\n      pop\n      pop\n      jump\t// out\n        /* \"#utility.yul\":3720:3899   */\n    tag_37:\n        /* \"#utility.yul\":3789:3799   */\n      0x00\n        /* \"#utility.yul\":3810:3856   */\n      tag_83\n        /* \"#utility.yul\":3852:3855   */\n      dup4\n        /* \"#utility.yul\":3844:3850   */\n      dup4\n        /* \"#utility.yul\":3810:3856   */\n      tag_36\n      jump\t// in\n    tag_83:\n        /* \"#utility.yul\":3888:3892   */\n      0x20\n        /* \"#utility.yul\":3883:3886   */\n      dup4\n        /* \"#utility.yul\":3879:3893   */\n      add\n        /* \"#utility.yul\":3865:3893   */\n      swap1\n      pop\n        /* \"#utility.yul\":3720:3899   */\n      swap3\n      swap2\n      pop\n      pop\n      jump\t// out\n        /* \"#utility.yul\":3905:4018   */\n    tag_38:\n        /* \"#utility.yul\":3975:3979   */\n      0x00\n        /* \"#utility.yul\":4007:4011   */\n      0x20\n        /* \"#utility.yul\":4002:4005   */\n      dup3\n        /* \"#utility.yul\":3998:4012   */\n      add\n        /* \"#utility.yul\":3990:4012   */\n      swap1\n      pop\n        /* \"#utility.yul\":3905:4018   */\n      swap2\n      swap1\n      pop\n      jump\t// out\n        /* \"#utility.yul\":4054:4786   */\n    tag_39:\n        /* \"#utility.yul\":4173:4176   */\n      0x00\n        /* \"#utility.yul\":4202:4256   */\n      tag_86\n        /* \"#utility.yul\":4250:4255   */\n      dup3\n        /* \"#utility.yul\":4202:4256   */\n      tag_33\n      jump\t// in\n    tag_86:\n        /* \"#utility.yul\":4272:4358   */\n      tag_87\n        /* \"#utility.yul\":4351:4357   */\n      dup2\n        /* \"#utility.yul\":4346:4349   */\n      dup6\n        /* \"#utility.yul\":4272:4358   */\n      tag_34\n      jump\t// in\n    tag_87:\n        /* \"#utility.yul\":4265:4358   */\n      swap4\n      pop\n        /* \"#utility.yul\":4382:4438   */\n      tag_88\n        /* \"#utility.yul\":4432:4437   */\n      dup4\n        /* \"#utility.yul\":4382:4438   */\n      tag_35\n      jump\t// in\n    tag_88:\n        /* \"#utility.yul\":4461:4468   */\n      dup1\n        /* \"#utility.yul\":4492:4493   */\n      0x00\n        /* \"#utility.yul\":4477:4761   */\n    tag_89:\n        /* \"#utility.yul\":4502:4508   */\n      dup4\n        /* \"#utility.yul\":4499:4500   */\n      dup2\n        /* \"#utility.yul\":4496:4509   */\n      lt\n        /* \"#utility.yul\":4477:4761   */\n      iszero\n      tag_91\n      jumpi\n        /* \"#utility.yul\":4578:4584   */\n      dup2\n        /* \"#utility.yul\":4572:4585   */\n      mload\n        /* \"#utility.yul\":4605:4668   */\n      tag_92\n        /* \"#utility.yul\":4664:4667   */\n      dup9\n        /* \"#utility.yul\":4649:4662   */\n      dup3\n        /* \"#utility.yul\":4605:4668   */\n      tag_37\n      jump\t// in\n    tag_92:\n        /* \"#utility.yul\":4598:4668   */\n      swap8\n      pop\n        /* \"#utility.yul\":4691:4751   */\n      tag_93\n        /* \"#utility.yul\":4744:4750   */\n      dup4\n        /* \"#utility.yul\":4691:4751   */\n      tag_38\n      jump\t// in\n    tag_93:\n        /* \"#utility.yul\":4681:4751   */\n      swap3\n      pop\n        /* \"#utility.yul\":4537:4761   */\n      pop\n        /* \"#utility.yul\":4524:4525   */\n      0x01\n        /* \"#utility.yul\":4521:4522   */\n      dup2\n        /* \"#utility.yul\":4517:4526   */\n      add\n        /* \"#utility.yul\":4512:4526   */\n      swap1\n      pop\n        /* \"#utility.yul\":4477:4761   */\n      jump(tag_89)\n    tag_91:\n        /* \"#utility.yul\":4481:4495   */\n      pop\n        /* \"#utility.yul\":4777:4780   */\n      dup6\n        /* \"#utility.yul\":4770:4780   */\n      swap4\n      pop\n        /* \"#utility.yul\":4178:4786   */\n      pop\n      pop\n      pop\n        /* \"#utility.yul\":4054:4786   */\n      swap3\n      swap2\n      pop\n      pop\n      jump\t// out\n        /* \"#utility.yul\":4792:5165   */\n    tag_8:\n        /* \"#utility.yul\":4935:4939   */\n      0x00\n        /* \"#utility.yul\":4973:4975   */\n      0x20\n        /* \"#utility.yul\":4962:4971   */\n      dup3\n        /* \"#utility.yul\":4958:4976   */\n      add\n        /* \"#utility.yul\":4950:4976   */\n      swap1\n      pop\n        /* \"#utility.yul\":5022:5031   */\n      dup2\n        /* \"#utility.yul\":5016:5020   */\n      dup2\n        /* \"#utility.yul\":5012:5032   */\n      sub\n        /* \"#utility.yul\":5008:5009   */\n      0x00\n        /* \"#utility.yul\":4997:5006   */\n      dup4\n        /* \"#utility.yul\":4993:5010   */\n      add\n        /* \"#utility.yul\":4986:5033   */\n      mstore\n        /* \"#utility.yul\":5050:5158   */\n      tag_95\n        /* \"#utility.yul\":5153:5157   */\n      dup2\n        /* \"#utility.yul\":5144:5150   */\n      dup5\n        /* \"#utility.yul\":5050:5158   */\n      tag_39\n      jump\t// in\n    tag_95:\n        /* \"#utility.yul\":5042:5158   */\n      swap1\n      pop\n        /* \"#utility.yul\":4792:5165   */\n      swap3\n      swap2\n      pop\n      pop\n      jump\t// out\n        /* \"#utility.yul\":5171:5351   */\n    tag_12:\n        /* \"#utility.yul\":5219:5296   */\n      0x4e487b7100000000000000000000000000000000000000000000000000000000\n        /* \"#utility.yul\":5216:5217   */\n      0x00\n        /* \"#utility.yul\":5209:5297   */\n      mstore\n        /* \"#utility.yul\":5316:5320   */\n      0x41\n        /* \"#utility.yul\":5313:5314   */\n      0x04\n        /* \"#utility.yul\":5306:5321   */\n      mstore\n        /* \"#utility.yul\":5340:5344   */\n      0x24\n        /* \"#utility.yul\":5337:5338   */\n      0x00\n        /* \"#utility.yul\":5330:5345   */\n      revert\n        /* \"#utility.yul\":5357:5537   */\n    tag_16:\n        /* \"#utility.yul\":5405:5482   */\n      0x4e487b7100000000000000000000000000000000000000000000000000000000\n        /* \"#utility.yul\":5402:5403   */\n      0x00\n        /* \"#utility.yul\":5395:5483   */\n      mstore\n        /* \"#utility.yul\":5502:5506   */\n      0x32\n        /* \"#utility.yul\":5499:5500   */\n      0x04\n        /* \"#utility.yul\":5492:5507   */\n      mstore\n        /* \"#utility.yul\":5526:5530   */\n      0x24\n        /* \"#utility.yul\":5523:5524   */\n      0x00\n        /* \"#utility.yul\":5516:5531   */\n      revert\n\n    auxdata: 0xa26469706673582212207054ce4fc115dbec01b8a08b06bfd6736671c6c359778aabd785251f8451432864736f6c63430008140033\n}\n",
    "bytecode": {
      "linkReferences": {},
      "object": "608060405234801561000f575f80fd5b506103ca8061001d5f395ff3fe60806040526004361061001d575f3560e01c80637ff36ab514610021575b5f80fd5b61003b600480360381019061003691906101df565b610051565b604051610048919061031a565b60405180910390f35b6060600267ffffffffffffffff81111561006e5761006d61033a565b5b60405190808252806020026020018201604052801561009c5781602001602082028036833780820191505090505b50905034815f815181106100b3576100b2610367565b5b60200260200101818152505085816001815181106100d4576100d3610367565b5b60200260200101818152505095945050505050565b5f80fd5b5f80fd5b5f819050919050565b610103816100f1565b811461010d575f80fd5b50565b5f8135905061011e816100fa565b92915050565b5f80fd5b5f80fd5b5f80fd5b5f8083601f84011261014557610144610124565b5b8235905067ffffffffffffffff81111561016257610161610128565b5b60208301915083602082028301111561017e5761017d61012c565b5b9250929050565b5f73ffffffffffffffffffffffffffffffffffffffff82169050919050565b5f6101ae82610185565b9050919050565b6101be816101a4565b81146101c8575f80fd5b50565b5f813590506101d9816101b5565b92915050565b5f805f805f608086880312156101f8576101f76100e9565b5b5f61020588828901610110565b955050602086013567ffffffffffffffff811115610226576102256100ed565b5b61023288828901610130565b94509450506040610245888289016101cb565b925050606061025688828901610110565b9150509295509295909350565b5f81519050919050565b5f82825260208201905092915050565b5f819050602082019050919050565b610295816100f1565b82525050565b5f6102a6838361028c565b60208301905092915050565b5f602082019050919050565b5f6102c882610263565b6102d2818561026d565b93506102dd8361027d565b805f5b8381101561030d5781516102f4888261029b565b97506102ff836102b2565b9250506001810190506102e0565b5085935050505092915050565b5f6020820190508181035f83015261033281846102be565b905092915050565b7f4e487b71000000000000000000000000000000000000000000000000000000005f52604160045260245ffd5b7f4e487b71000000000000000000000000000000000000000000000000000000005f52603260045260245ffdfea26469706673582212207054ce4fc115dbec01b8a08b06bfd6736671c6c359778aabd785251f8451432864736f6c63430008140033",
      "opcodes": "PUSH1 0x80 PUSH1 0x40 MSTORE CALLVALUE DUP1 ISZERO PUSH2 0xF JUMPI PUSH0 DUP1 REVERT JUMPDEST POP PUSH2 0x3CA DUP1 PUSH2 0x1D PUSH0 CODECOPY PUSH0 RETURN INVALID PUSH1 0x80 PUSH1 0x40 MSTORE PUSH1 0x4 CALLDATASIZE LT PUSH2 0x1D JUMPI PUSH0 CALLDATALOAD PUSH1 0xE0 SHR DUP1 PUSH4 0x7FF36AB5 EQ PUSH2 0x21 JUMPI JUMPDEST PUSH0 DUP1 REVERT JUMPDEST PUSH2 0x3B PUSH1 0x4 DUP1 CALLDATASIZE SUB DUP2 ADD SWAP1 PUSH2 0x36 SWAP2 SWAP1 PUSH2 0x1DF JUMP JUMPDEST PUSH2 0x51 JUMP JUMPDEST PUSH1 0x40 MLOAD PUSH2 0x48 SWAP2 SWAP1 PUSH2 0x31A JUMP JUMPDEST PUSH1 0x40 MLOAD DUP1 SWAP2 SUB SWAP1 RETURN JUMPDEST PUSH1 0x60 PUSH1 0x2 PUSH8 0xFFFFFFFFFFFFFFFF DUP2 GT ISZERO PUSH2 0x6E JUMPI PUSH2 0x6D PUSH2 0x33A JUMP JUMPDEST JUMPDEST PUSH1 0x40 MLOAD SWAP1 DUP1 DUP3 MSTORE DUP1 PUSH1 0x20 MUL PUSH1 0x20 ADD DUP3 ADD PUSH1 0x40 MSTORE DUP1 ISZERO PUSH2 0x9C JUMPI DUP2 PUSH1 0x20 ADD PUSH1 0x20 DUP3 MUL DUP1 CALLDATASIZE DUP4 CALLDATACOPY DUP1 DUP3 ADD SWAP2 POP POP SWAP1 POP JUMPDEST POP SWAP1 POP CALLVALUE DUP2 PUSH0 DUP2 MLOAD DUP2 LT PUSH2 0xB3 JUMPI PUSH2 0xB2 PUSH2 0x367 JUMP JUMPDEST JUMPDEST PUSH1 0x20 MUL PUSH1 0x20 ADD ADD DUP2 DUP2 MSTORE POP POP DUP6 DUP2 PUSH1 0x1 DUP2 MLOAD DUP2 LT PUSH2 0xD4 JUMPI PUSH2 0xD3 PUSH2 0x367 JUMP JUMPDEST JUMPDEST PUSH1 0x20 MUL PUSH1 0x20 ADD ADD DUP2 DUP2 MSTORE POP POP SWAP6 SWAP5 POP POP POP POP POP JUMP JUMPDEST PUSH0 DUP1 REVERT JUMPDEST PUSH0 DUP1 REVERT JUMPDEST PUSH0 DUP2 SWAP1 POP SWAP2 SWAP1 POP JUMP JUMPDEST PUSH2 0x103 DUP2 PUSH2 0xF1 JUMP JUMPDEST DUP2 EQ PUSH2 0x10D JUMPI PUSH0 DUP1 REVERT JUMPDEST POP JUMP JUMPDEST PUSH0 DUP2 CALLDATALOAD SWAP1 POP PUSH2 0x11E DUP2 PUSH2 0xFA JUMP JUMPDEST SWAP3 SWAP2 POP POP JUMP JUMPDEST PUSH0 DUP1 REVERT JUMPDEST PUSH0 DUP1 REVERT JUMPDEST PUSH0 DUP1 REVERT JUMPDEST PUSH0 DUP1 DUP4 PUSH1 0x1F DUP5 ADD SLT PUSH2 0x145 JUMPI PUSH2 0x144 PUSH2 0x124 JUMP JUMPDEST JUMPDEST DUP3 CALLDATALOAD SWAP1 POP PUSH8 0xFFFFFFFFFFFFFFFF DUP2 GT ISZERO PUSH2 0x162 JUMPI PUSH2 0x161 PUSH2 0x128 JUMP JUMPDEST JUMPDEST PUSH1 0x20 DUP4 ADD SWAP2 POP DUP4 PUSH1 0x20 DUP3 MUL DUP4 ADD GT ISZERO PUSH2 0x17E JUMPI PUSH2 0x17D PUSH2 0x12C JUMP JUMPDEST JUMPDEST SWAP3 POP SWAP3 SWAP1 POP JUMP JUMPDEST PUSH0 PUSH20 0xFFFFFFFFFFFFFFFFFFFFFFFFFFFFFFFFFFFFFFFF DUP3 AND SWAP1 POP SWAP2 SWAP1 POP JUMP JUMPDEST PUSH0 PUSH2 0x1AE DUP3 PUSH2 0x185 JUMP JUMPDEST SWAP1 POP SWAP2 SWAP1 POP JUMP JUMPDEST PUSH2 0x1BE DUP2 PUSH2 0x1A4 JUMP JUMPDEST DUP2 EQ PUSH2 0x1C8 JUMPI PUSH0 DUP1 REVERT JUMPDEST POP JUMP JUMPDEST PUSH0 DUP2 CALLDATALOAD SWAP1 POP PUSH2 0x1D9 DUP2 PUSH2 0x1B5 JUMP JUMPDEST SWAP3 SWAP2 POP POP JUMP JUMPDEST PUSH0 DUP1 PUSH0 DUP1 PUSH0 PUSH1 0x80 DUP7 DUP9 SUB SLT ISZERO PUSH2 0x1F8 JUMPI PUSH2 0x1F7 PUSH2 0xE9 JUMP JUMPDEST JUMPDEST PUSH0 PUSH2 0x205 DUP9 DUP3 DUP10 ADD PUSH2 0x110 JUMP JUMPDEST SWAP6 POP POP PUSH1 0x20 DUP7 ADD CALLDATALOAD PUSH8 0xFFFFFFFFFFFFFFFF DUP2 GT ISZERO PUSH2 0x226 JUMPI PUSH2 0x225 PUSH2 0xED JUMP JUMPDEST JUMPDEST PUSH2 0x232 DUP9 DUP3 DUP10 ADD PUSH2 0x130 JUMP JUMPDEST SWAP5 POP SWAP5 POP POP PUSH1 0x40 PUSH2 0x245 DUP9 DUP3 DUP10 ADD PUSH2 0x1CB JUMP JUMPDEST SWAP3 POP POP PUSH1 0x60 PUSH2 0x256 DUP9 DUP3 DUP10 ADD PUSH2 0x110 JUMP JUMPDEST SWAP2 POP POP SWAP3 SWAP6 POP SWAP3 SWAP6 SWAP1 SWAP4 POP JUMP JUMPDEST PUSH0 DUP2 MLOAD SWAP1 POP SWAP2 SWAP1 POP JUMP JUMPDEST PUSH0 DUP3 DUP3 MSTORE PUSH1 0x20 DUP3 ADD SWAP1 POP SWAP3 SWAP2 POP POP JUMP JUMPDEST PUSH0 DUP2 SWAP1 POP PUSH1 0x20 DUP3 ADD SWAP1 POP SWAP2 SWAP1 POP JUMP JUMPDEST PUSH2 0x295 DUP2 PUSH2 0xF1 JUMP JUMPDEST DUP3 MSTORE POP POP JUMP JUMPDEST PUSH0 PUSH2 0x2A6 DUP4 DUP4 PUSH2 0x28C JUMP JUMPDEST PUSH1 0x20 DUP4 ADD SWAP1 POP SWAP3 SWAP2 POP POP JUMP JUMPDEST PUSH0 PUSH1 0x20 DUP3 ADD SWAP1 POP SWAP2 SWAP1 POP JUMP JUMPDEST PUSH0 PUSH2 0x2C8 DUP3 PUSH2 0x263 JUMP JUMPDEST PUSH2 0x2D2 DUP2 DUP6 PUSH2 0x26D JUMP JUMPDEST SWAP4 POP PUSH2 0x2DD DUP4 PUSH2 0x27D JUMP JUMPDEST DUP1 PUSH0 JUMPDEST DUP4 DUP2 LT ISZERO PUSH2 0x30D JUMPI DUP2 MLOAD PUSH2 0x2F4 DUP9 DUP3 PUSH2 0x29B JUMP JUMPDEST SWAP8 POP PUSH2 0x2FF DUP4 PUSH2 0x2B2 JUMP JUMPDEST SWAP3 POP POP PUSH1 0x1 DUP2 ADD SWAP1 POP PUSH2 0x2E0 JUMP JUMPDEST POP DUP6 SWAP4 POP POP POP POP SWAP3 SWAP2 POP POP JUMP JUMPDEST PUSH0 PUSH1 0x20 DUP3 ADD SWAP1 POP DUP2 DUP2 SUB PUSH0 DUP4 ADD MSTORE PUSH2 0x332 DUP2 DUP5 PUSH2 0x2BE JUMP JUMPDEST SWAP1 POP SWAP3 SWAP2 POP POP JUMP JUMPDEST PUSH32 0x4E487B7100000000000000000000000000000000000000000000000000000000 PUSH0 MSTORE PUSH1 0x41 PUSH1 0x4 MSTORE PUSH1 0x24 PUSH0 REVERT JUMPDEST PUSH32 0x4E487B7100000000000000000000000000000000000000000000000000000000 PUSH0 MSTORE PUSH1 0x32 PUSH1 0x4 MSTORE PUSH1 0x24 PUSH0 REVERT INVALID LOG2 PUSH5 0x6970667358 0x22 SLT KECCAK256 PUSH17 0x54CE4FC115DBEC01B8A08B06BFD6736671 0xC6 0xC3 MSIZE PUSH24 0x8AABD785251F8451432864736F6C63430008140033000000 "
    },
    "gasEstimates": {
      "creation": {
        "codeDepositCost": "194000",
        "executionCost": "236",
        "totalCost": "194236"
      },
      "external": {
        "swapExactETHForTokens(uint256,address[],address,uint256)": "infinite"
      }
    },
    "methodIdentifiers": {
      "swapExactETHForTokens(uint256,address[],address,uint256)": "7ff36ab5"
    }
  },
  "storageLayout": {
    "storage": [],
    "types": null
  },
  "userdoc": {
    "kind": "user",
    "methods": {},
    "version": 1
  }
}