{
  "abi": [
    {
      "inputs": [],
      "name": "EXPECTED_HASH",
      "outputs": [
        {
          "internalType": "bytes32",
          "name": "",
          "type": "bytes32"
        }
      ],
      "stateMutability": "view",
      "type": "function"
    },
    {
      "inputs": [
        {
          "internalType": "bytes",
          "name": "attestation",
          "type": "bytes"
        }
      ],
      "name": "verify",
      "outputs": [
        {
          "internalType": "bool",
          "name": "success",
          "type": "bool"
        },
        {
          "internalType": "bytes32",
          "name": "measurement",
          "type": "bytes32"
        }
      ],
      "stateMutability": "pure",
      "type": "function"
    }
  ],
  "devdoc": {
    "kind": "dev",
    "methods": {
      "verify(bytes)": {
        "params": {
          "attestation": "The attestation data to verify."
        },
        "returns": {
          "measurement": "The measurement hash extracted from the attestation.",
          "success": "True if verification succeeded."
        }
      }
    },
    "version": 1
  },
  "evm": {
    "assembly": "    /* \"contracts/MockFDC.sol\":127:567  contract MockFDC is IFdcVerification {... */\n  mstore(0x40, 0x80)\n  callvalue\n  dup1\n  iszero\n  tag_1\n  jumpi\n  0x00\n  dup1\n  revert\ntag_1:\n  pop\n  dataSize(sub_0)\n  dup1\n  dataOffset(sub_0)\n  0x00\n  codecopy\n  0x00\n  return\nstop\n\nsub_0: assembly {\n        /* \"contracts/MockFDC.sol\":127:567  contract MockFDC is IFdcVerification {... */\n      mstore(0x40, 0x80)\n      callvalue\n      dup1\n      iszero\n      tag_1\n      jumpi\n      0x00\n      dup1\n      revert\n    tag_1:\n      pop\n      jumpi(tag_2, lt(calldatasize, 0x04))\n      shr(0xe0, calldataload(0x00))\n      dup1\n      0x378db803\n      eq\n      tag_3\n      jumpi\n      dup1\n      0x8e760afe\n      eq\n      tag_4\n      jumpi\n    tag_2:\n      0x00\n      dup1\n      revert\n        /* \"contracts/MockFDC.sol\":223:329  bytes32 public constant EXPECTED_HASH = 0x5c8e81f910c11c92e5161cc307365be246f6db5b72a9868fb73516337268e6d1 */\n    tag_3:\n      tag_5\n      tag_6\n      jump\t// in\n    tag_5:\n      mload(0x40)\n      tag_7\n      swap2\n      swap1\n      tag_8\n      jump\t// in\n    tag_7:\n      mload(0x40)\n      dup1\n      swap2\n      sub\n      swap1\n      return\n        /* \"contracts/MockFDC.sol\":336:565  function verify(bytes calldata attestation) external pure override returns (bool success, bytes32 measurement) {... */\n    tag_4:\n      tag_9\n      0x04\n      dup1\n      calldatasize\n      sub\n      dup2\n      add\n      swap1\n      tag_10\n      swap2\n      swap1\n      tag_11\n      jump\t// in\n    tag_10:\n      tag_12\n      jump\t// in\n    tag_9:\n      mload(0x40)\n      tag_13\n      swap3\n      swap2\n      swap1\n      tag_14\n      jump\t// in\n    tag_13:\n      mload(0x40)\n      dup1\n      swap2\n      sub\n      swap1\n      return\n        /* \"contracts/MockFDC.sol\":223:329  bytes32 public constant EXPECTED_HASH = 0x5c8e81f910c11c92e5161cc307365be246f6db5b72a9868fb73516337268e6d1 */\n    tag_6:\n        /* \"contracts/MockFDC.sol\":263:329  0x5c8e81f910c11c92e5161cc307365be246f6db5b72a9868fb73516337268e6d1 */\n      0x5c8e81f910c11c92e5161cc307365be246f6db5b72a9868fb73516337268e6d1\n        /* \"contracts/MockFDC.sol\":223:329  bytes32 public constant EXPECTED_HASH = 0x5c8e81f910c11c92e5161cc307365be246f6db5b72a9868fb73516337268e6d1 */\n      0x00\n      shl\n      dup2\n      jump\t// out\n        /* \"contracts/MockFDC.sol\":336:565  function verify(bytes calldata attestation) external pure override returns (bool success, bytes32 measurement) {... */\n    tag_12:\n        /* \"contracts/MockFDC.sol\":412:424  bool success */\n      0x00\n        /* \"contracts/MockFDC.sol\":426:445  bytes32 measurement */\n      dup1\n        /* \"contracts/MockFDC.sol\":538:542  true */\n      0x01\n        /* \"contracts/MockFDC.sol\":263:329  0x5c8e81f910c11c92e5161cc307365be246f6db5b72a9868fb73516337268e6d1 */\n      0x5c8e81f910c11c92e5161cc307365be246f6db5b72a9868fb73516337268e6d1\n        /* \"contracts/MockFDC.sol\":544:557  EXPECTED_HASH */\n      0x00\n      shl\n        /* \"contracts/MockFDC.sol\":530:558  return (true, EXPECTED_HASH) */\n      swap2\n      pop\n      swap2\n      pop\n        /* \"contracts/MockFDC.sol\":336:565  function verify(bytes calldata attestation) external pure override returns (bool success, bytes32 measurement) {... */\n      swap3\n      pop\n      swap3\n      swap1\n      pop\n      jump\t// out\n        /* \"#utility.yul\":7:84   */\n    tag_16:\n        /* \"#utility.yul\":44:51   */\n      0x00\n        /* \"#utility.yul\":73:78   */\n      dup2\n        /* \"#utility.yul\":62:78   */\n      swap1\n      pop\n        /* \"#utility.yul\":7:84   */\n      swap2\n      swap1\n      pop\n      jump\t// out\n        /* \"#utility.yul\":90:208   */\n    tag_17:\n        /* \"#utility.yul\":177:201   */\n      tag_30\n        /* \"#utility.yul\":195:200   */\n      dup2\n        /* \"#utility.yul\":177:201   */\n      tag_16\n      jump\t// in\n    tag_30:\n        /* \"#utility.yul\":172:175   */\n      dup3\n        /* \"#utility.yul\":165:202   */\n      mstore\n        /* \"#utility.yul\":90:208   */\n      pop\n      pop\n      jump\t// out\n        /* \"#utility.yul\":214:436   */\n    tag_8:\n        /* \"#utility.yul\":307:311   */\n      0x00\n        /* \"#utility.yul\":345:347   */\n      0x20\n        /* \"#utility.yul\":334:343   */\n      dup3\n        /* \"#utility.yul\":330:348   */\n      add\n        /* \"#utility.yul\":322:348   */\n      swap1\n      pop\n        /* \"#utility.yul\":358:429   */\n      tag_32\n        /* \"#utility.yul\":426:427   */\n      0x00\n        /* \"#utility.yul\":415:424   */\n      dup4\n        /* \"#utility.yul\":411:428   */\n      add\n        /* \"#utility.yul\":402:408   */\n      dup5\n        /* \"#utility.yul\":358:429   */\n      tag_17\n      jump\t// in\n    tag_32:\n        /* \"#utility.yul\":214:436   */\n      swap3\n      swap2\n      pop\n      pop\n      jump\t// out\n        /* \"#utility.yul\":523:640   */\n    tag_19:\n        /* \"#utility.yul\":632:633   */\n      0x00\n        /* \"#utility.yul\":629:630   */\n      dup1\n        /* \"#utility.yul\":622:634   */\n      revert\n        /* \"#utility.yul\":646:763   */\n    tag_20:\n        /* \"#utility.yul\":755:756   */\n      0x00\n        /* \"#utility.yul\":752:753   */\n      dup1\n        /* \"#utility.yul\":745:757   */\n      revert\n        /* \"#utility.yul\":769:886   */\n    tag_21:\n        /* \"#utility.yul\":878:879   */\n      0x00\n        /* \"#utility.yul\":875:876   */\n      dup1\n        /* \"#utility.yul\":868:880   */\n      revert\n        /* \"#utility.yul\":892:1009   */\n    tag_22:\n        /* \"#utility.yul\":1001:1002   */\n      0x00\n        /* \"#utility.yul\":998:999   */\n      dup1\n        /* \"#utility.yul\":991:1003   */\n      revert\n        /* \"#utility.yul\":1015:1132   */\n    tag_23:\n        /* \"#utility.yul\":1124:1125   */\n      0x00\n        /* \"#utility.yul\":1121:1122   */\n      dup1\n        /* \"#utility.yul\":1114:1126   */\n      revert\n        /* \"#utility.yul\":1151:1703   */\n    tag_24:\n        /* \"#utility.yul\":1208:1216   */\n      0x00\n        /* \"#utility.yul\":1218:1224   */\n      dup1\n        /* \"#utility.yul\":1268:1271   */\n      dup4\n        /* \"#utility.yul\":1261:1265   */\n      0x1f\n        /* \"#utility.yul\":1253:1259   */\n      dup5\n        /* \"#utility.yul\":1249:1266   */\n      add\n        /* \"#utility.yul\":1245:1272   */\n      slt\n        /* \"#utility.yul\":1235:1357   */\n      tag_40\n      jumpi\n        /* \"#utility.yul\":1276:1355   */\n      tag_41\n      tag_21\n      jump\t// in\n    tag_41:\n        /* \"#utility.yul\":1235:1357   */\n    tag_40:\n        /* \"#utility.yul\":1389:1395   */\n      dup3\n        /* \"#utility.yul\":1376:1396   */\n      calldataload\n        /* \"#utility.yul\":1366:1396   */\n      swap1\n      pop\n        /* \"#utility.yul\":1419:1437   */\n      0xffffffffffffffff\n        /* \"#utility.yul\":1411:1417   */\n      dup2\n        /* \"#utility.yul\":1408:1438   */\n      gt\n        /* \"#utility.yul\":1405:1522   */\n      iszero\n      tag_42\n      jumpi\n        /* \"#utility.yul\":1441:1520   */\n      tag_43\n      tag_22\n      jump\t// in\n    tag_43:\n        /* \"#utility.yul\":1405:1522   */\n    tag_42:\n        /* \"#utility.yul\":1555:1559   */\n      0x20\n        /* \"#utility.yul\":1547:1553   */\n      dup4\n        /* \"#utility.yul\":1543:1560   */\n      add\n        /* \"#utility.yul\":1531:1560   */\n      swap2\n      pop\n        /* \"#utility.yul\":1609:1612   */\n      dup4\n        /* \"#utility.yul\":1601:1605   */\n      0x01\n        /* \"#utility.yul\":1593:1599   */\n      dup3\n        /* \"#utility.yul\":1589:1606   */\n      mul\n        /* \"#utility.yul\":1579:1587   */\n      dup4\n        /* \"#utility.yul\":1575:1607   */\n      add\n        /* \"#utility.yul\":1572:1613   */\n      gt\n        /* \"#utility.yul\":1569:1697   */\n      iszero\n      tag_44\n      jumpi\n        /* \"#utility.yul\":1616:1695   */\n      tag_45\n      tag_23\n      jump\t// in\n    tag_45:\n        /* \"#utility.yul\":1569:1697   */\n    tag_44:\n        /* \"#utility.yul\":1151:1703   */\n      swap3\n      pop\n      swap3\n      swap1\n      pop\n      jump\t// out\n        /* \"#utility.yul\":1709:2236   */\n    tag_11:\n        /* \"#utility.yul\":1779:1785   */\n      0x00\n        /* \"#utility.yul\":1787:1793   */\n      dup1\n        /* \"#utility.yul\":1836:1838   */\n      0x20\n        /* \"#utility.yul\":1824:1833   */\n      dup4\n        /* \"#utility.yul\":1815:1822   */\n      dup6\n        /* \"#utility.yul\":1811:1834   */\n      sub\n        /* \"#utility.yul\":1807:1839   */\n      slt\n        /* \"#utility.yul\":1804:1923   */\n      iszero\n      tag_47\n      jumpi\n        /* \"#utility.yul\":1842:1921   */\n      tag_48\n      tag_19\n      jump\t// in\n    tag_48:\n        /* \"#utility.yul\":1804:1923   */\n    tag_47:\n        /* \"#utility.yul\":1990:1991   */\n      0x00\n        /* \"#utility.yul\":1979:1988   */\n      dup4\n        /* \"#utility.yul\":1975:1992   */\n      add\n        /* \"#utility.yul\":1962:1993   */\n      calldataload\n        /* \"#utility.yul\":2020:2038   */\n      0xffffffffffffffff\n        /* \"#utility.yul\":2012:2018   */\n      dup2\n        /* \"#utility.yul\":2009:2039   */\n      gt\n        /* \"#utility.yul\":2006:2123   */\n      iszero\n      tag_49\n      jumpi\n        /* \"#utility.yul\":2042:2121   */\n      tag_50\n      tag_20\n      jump\t// in\n    tag_50:\n        /* \"#utility.yul\":2006:2123   */\n    tag_49:\n        /* \"#utility.yul\":2155:2219   */\n      tag_51\n        /* \"#utility.yul\":2211:2218   */\n      dup6\n        /* \"#utility.yul\":2202:2208   */\n      dup3\n        /* \"#utility.yul\":2191:2200   */\n      dup7\n        /* \"#utility.yul\":2187:2209   */\n      add\n        /* \"#utility.yul\":2155:2219   */\n      tag_24\n      jump\t// in\n    tag_51:\n        /* \"#utility.yul\":2137:2219   */\n      swap3\n      pop\n      swap3\n      pop\n        /* \"#utility.yul\":1933:2229   */\n      pop\n        /* \"#utility.yul\":1709:2236   */\n      swap3\n      pop\n      swap3\n      swap1\n      pop\n      jump\t// out\n        /* \"#utility.yul\":2242:2332   */\n    tag_25:\n        /* \"#utility.yul\":2276:2283   */\n      0x00\n        /* \"#utility.yul\":2319:2324   */\n      dup2\n        /* \"#utility.yul\":2312:2325   */\n      iszero\n        /* \"#utility.yul\":2305:2326   */\n      iszero\n        /* \"#utility.yul\":2294:2326   */\n      swap1\n      pop\n        /* \"#utility.yul\":2242:2332   */\n      swap2\n      swap1\n      pop\n      jump\t// out\n        /* \"#utility.yul\":2338:2447   */\n    tag_26:\n        /* \"#utility.yul\":2419:2440   */\n      tag_54\n        /* \"#utility.yul\":2434:2439   */\n      dup2\n        /* \"#utility.yul\":2419:2440   */\n      tag_25\n      jump\t// in\n    tag_54:\n        /* \"#utility.yul\":2414:2417   */\n      dup3\n        /* \"#utility.yul\":2407:2441   */\n      mstore\n        /* \"#utility.yul\":2338:2447   */\n      pop\n      pop\n      jump\t// out\n        /* \"#utility.yul\":2453:2773   */\n    tag_14:\n        /* \"#utility.yul\":2568:2572   */\n      0x00\n        /* \"#utility.yul\":2606:2608   */\n      0x40\n        /* \"#utility.yul\":2595:2604   */\n      dup3\n        /* \"#utility.yul\":2591:2609   */\n      add\n        /* \"#utility.yul\":2583:2609   */\n      swap1\n      pop\n        /* \"#utility.yul\":2619:2684   */\n      tag_56\n        /* \"#utility.yul\":2681:2682   */\n      0x00\n        /* \"#utility.yul\":2670:2679   */\n      dup4\n        /* \"#utility.yul\":2666:2683   */\n      add\n        /* \"#utility.yul\":2657:2663   */\n      dup6\n        /* \"#utility.yul\":2619:2684   */\n      tag_26\n      jump\t// in\n    tag_56:\n        /* \"#utility.yul\":2694:2766   */\n      tag_57\n        /* \"#utility.yul\":2762:2764   */\n      0x20\n        /* \"#utility.yul\":2751:2760   */\n      dup4\n        /* \"#utility.yul\":2747:2765   */\n      add\n        /* \"#utility.yul\":2738:2744   */\n      dup5\n        /* \"#utility.yul\":2694:2766   */\n      tag_17\n      jump\t// in\n    tag_57:\n        /* \"#utility.yul\":2453:2773   */\n      swap4\n      swap3\n      pop\n      pop\n      pop\n      jump\t// out\n\n    auxdata: 0xa264697066735822122051c9aa1b85a64ae93e69d3cde4ff37d96c428d3bf8ea821f46310ab38bd8c5a864736f6c63430008140033\n}\n",
    "bytecode": {
      "linkReferences": {},
      "object": "608060405234801561000f575f80fd5b5061023b8061001d5f395ff3fe608060405234801561000f575f80fd5b5060043610610034575f3560e01c8063378db803146100385780638e760afe14610056575b5f80fd5b610040610087565b60405161004d91906100f7565b60405180910390f35b610070600480360381019061006b9190610179565b6100ad565b60405161007e9291906101de565b60405180910390f35b7f5c8e81f910c11c92e5161cc307365be246f6db5b72a9868fb73516337268e6d15f1b81565b5f8060017f5c8e81f910c11c92e5161cc307365be246f6db5b72a9868fb73516337268e6d15f1b915091509250929050565b5f819050919050565b6100f1816100df565b82525050565b5f60208201905061010a5f8301846100e8565b92915050565b5f80fd5b5f80fd5b5f80fd5b5f80fd5b5f80fd5b5f8083601f84011261013957610138610118565b5b8235905067ffffffffffffffff8111156101565761015561011c565b5b60208301915083600182028301111561017257610171610120565b5b9250929050565b5f806020838503121561018f5761018e610110565b5b5f83013567ffffffffffffffff8111156101ac576101ab610114565b5b6101b885828601610124565b92509250509250929050565b5f8115159050919050565b6101d8816101c4565b82525050565b5f6040820190506101f15f8301856101cf565b6101fe60208301846100e8565b939250505056fea264697066735822122051c9aa1b85a64ae93e69d3cde4ff37d96c428d3bf8ea821f46310ab38bd8c5a864736f6c63430008140033",
      "opcodes": "PUSH1 0x80 PUSH1 0x40 MSTORE CALLVALUE DUP1 ISZERO PUSH2 0xF JUMPI PUSH0 DUP1 REVERT JUMPDEST POP PUSH2 0x23B DUP1 PUSH2 0x1D PUSH0 CODECOPY PUSH0 RETURN INVALID PUSH1 0x80 PUSH1 0x40 MSTORE CALLVALUE DUP1 ISZERO PUSH2 0xF JUMPI PUSH0 DUP1 REVERT JUMPDEST POP PUSH1 0x4 CALLDATASIZE LT PUSH2 0x34 JUMPI PUSH0 CALLDATALOAD PUSH1 0xE0 SHR DUP1 PUSH4 0x378DB803 EQ PUSH2 0x38 JUMPI DUP1 PUSH4 0x8E760AFE EQ PUSH2 0x56 JUMPI JUMPDEST PUSH0 DUP1 REVERT JUMPDEST PUSH2 0x40 PUSH2 0x87 JUMP JUMPDEST PUSH1 0x40 MLOAD PUSH2 0x4D SWAP2 SWAP1 PUSH2 0xF7 JUMP JUMPDEST PUSH1 0x40 MLOAD DUP1 SWAP2 SUB SWAP1 RETURN JUMPDEST PUSH2 0x70 PUSH1 0x4 DUP1 CALLDATASIZE SUB DUP2 ADD SWAP1 PUSH2 0x6B SWAP2 SWAP1 PUSH2 0x179 JUMP JUMPDEST PUSH2 0xAD JUMP JUMPDEST PUSH1 0x40 MLOAD PUSH2 0x7E SWAP3 SWAP2 SWAP1 PUSH2 0x1DE JUMP JUMPDEST PUSH1 0x40 MLOAD DUP1 SWAP2 SUB SWAP1 RETURN JUMPDEST PUSH32 0x5C8E81F910C11C92E5161CC307365BE246F6DB5B72A9868FB73516337268E6D1 PUSH0 SHL DUP2 JUMP JUMPDEST PUSH0 DUP1 PUSH1 0x1 PUSH32 0x5C8E81F910C11C92E5161CC307365BE246F6DB5B72A9868FB73516337268E6D1 PUSH0 SHL SWAP2 POP SWAP2 POP SWAP3 POP SWAP3 SWAP1 POP JUMP JUMPDEST PUSH0 DUP2 SWAP1 POP SWAP2 SWAP1 POP JUMP JUMPDEST PUSH2 0xF1 DUP2 PUSH2 0xDF JUMP JUMPDEST DUP3 MSTORE POP POP JUMP JUMPDEST PUSH0 PUSH1 0x20 DUP3 ADD SWAP1 POP PUSH2 0x10A PUSH0 DUP4 ADD DUP5 PUSH2 0xE8 JUMP JUMPDEST SWAP3 SWAP2 POP POP JUMP JUMPDEST PUSH0 DUP1 REVERT JUMPDEST PUSH0 DUP1 REVERT JUMPDEST PUSH0 DUP1 REVERT JUMPDEST PUSH0 DUP1 REVERT JUMPDEST PUSH0 DUP1 REVERT JUMPDEST PUSH0 DUP1 DUP4 PUSH1 0x1F DUP5 ADD SLT PUSH2 0x139 JUMPI PUSH2 0x138 PUSH2 0x118 JUMP JUMPDEST JUMPDEST DUP3 CALLDATALOAD SWAP1 POP PUSH8 0xFFFFFFFFFFFFFFFF DUP2 GT ISZERO PUSH2 0x156 JUMPI PUSH2 0x155 PUSH2 0x11C JUMP JUMPDEST JUMPDEST PUSH1 0x20 DUP4 ADD SWAP2 POP DUP4 PUSH1 0x1 DUP3 MUL DUP4 ADD GT ISZERO PUSH2 0x172 JUMPI PUSH2 0x171 PUSH2 0x120 JUMP JUMPDEST JUMPDEST SWAP3 POP SWAP3 SWAP1 POP JUMP JUMPDEST PUSH0 DUP1 PUSH1 0x20 DUP4 DUP6 SUB SLT ISZERO PUSH2 0x18F JUMPI PUSH2 0x18E PUSH2 0x110 JUMP JUMPDEST JUMPDEST PUSH0 DUP4 ADD CALLDATALOAD PUSH8 0xFFFFFFFFFFFFFFFF DUP2 GT ISZERO PUSH2 0x1AC JUMPI PUSH2 0x1AB PUSH2 0x114 JUMP JUMPDEST JUMPDEST PUSH2 0x1B8 DUP6 DUP3 DUP7 ADD PUSH2 0x124 JUMP JUMPDEST SWAP3 POP SWAP3 POP POP SWAP3 POP SWAP3 SWAP1 POP JUMP JUMPDEST PUSH0 DUP2 ISZERO ISZERO SWAP1 POP SWAP2 SWAP1 POP JUMP JUMPDEST PUSH2 0x1D8 DUP2 PUSH2 0x1C4 JUMP JUMPDEST DUP3 MSTORE POP POP JUMP JUMPDEST PUSH0 PUSH1 0x40 DUP3 ADD SWAP1 POP PUSH2 0x1F1 PUSH0 DUP4 ADD DUP6 PUSH2 0x1CF JUMP JUMPDEST PUSH2 0x1FE PUSH1 0x20 DUP4 ADD DUP5 PUSH2 0xE8 JUMP JUMPDEST SWAP4 SWAP3 POP POP POP JUMP INVALID LOG2 PUSH5 0x6970667358 0x22 SLT KECCAK256 MLOAD 0xC9 0xAA SHL DUP6 0xA6 0x4A 0xE9 RETURNDATACOPY PUSH10 0xD3CDE4FF37D96C428D3B 0xF8 0xEA DUP3 0x1F CHAINID BALANCE EXP 0xB3 DUP12 0xD8 0xC5 0xA8 PUSH5 0x736F6C6343 STOP ADDMOD EQ STOP CALLER "
    },
    "gasEstimates": {
      "creation": {
        "codeDepositCost": "114200",
        "executionCost": "157",
        "totalCost": "114357"
      },
      "external": {
        "EXPECTED_HASH()": "308",
        "verify(bytes)": "786"
      }
    },
    "methodIdentifiers": {
      "EXPECTED_HASH()": "378db803",
      "verify(bytes)": "8e760afe"
    }
  },
  "storageLayout": {
    "storage": [],
    "types": null
  },
  "userdoc": {
    "kind": "user",
    "methods": {
      "verify(bytes)": {
        "notice": "Verifies the attestation proof."
      }
    },
    "version": 1
  }
}