{
  "abi": [
    {
      "inputs": [
        {
          "internalType": "address",
          "name": "_fdc",
          "type": "address"
        },
        {
          "internalType": "address",
          "name": "_dex",
          "type": "address"
        }
      ],
      "stateMutability": "nonpayable",
      "type": "constructor"
    },
    {
      "anonymous": false,
      "inputs": [
        {
          "indexed": false,
          "internalType": "address",
          "name": "sender",
          "type": "address"
        },
        {
          "indexed": false,
          "internalType": "uint256",
          "name": "amount",
          "type": "uint256"
        }
      ],
      "name": "FundsReceived",
      "type": "event"
    },
    {
      "anonymous": false,
      "inputs": [
        {
          "indexed": false,
          "internalType": "bytes",
          "name": "tradeData",
          "type": "bytes"
        },
        {
          "indexed": false,
          "internalType": "bytes",
          "name": "attestation",
          "type": "bytes"
        }
      ],
      "name": "StrategyExecuted",
      "type": "event"
    },
    {
      "anonymous": false,
      "inputs": [
        {
          "indexed": false,
          "internalType": "address",
          "name": "tokenIn",
          "type": "address"
        },
        {
          "indexed": false,
          "internalType": "address",
          "name": "tokenOut",
          "type": "address"
        },
        {
          "indexed": false,
          "internalType": "uint256",
          "name": "amountIn",
          "type": "uint256"
        },
        {
          "indexed": false,
          "internalType": "uint256",
          "name": "amountOut",
          "type": "uint256"
        }
      ],
      "name": "SwapExecuted",
      "type": "event"
    },
    {
      "inputs": [],
      "name": "APPROVED_CODE_HASH",
      "outputs": [
        {
          "internalType": "bytes32",
          "name": "",
          "type": "bytes32"
        }
      ],
      "stateMutability": "view",
      "type": "function"
    },
    {
      "inputs": [],
      "name": "dex",
      "outputs": [
        {
          "internalType": "contract ISparkDEX",
          "name": "",
          "type": "address"
        }
      ],
      "stateMutability": "view",
      "type": "function"
    },
    {
      "inputs": [
        {
          "internalType": "bytes",
          "name": "tradeData",
          "type": "bytes"
        },
        {
          "internalType": "bytes",
          "name": "attestation",
          "type": "bytes"
        }
      ],
      "name": "executeStrategy",
      "outputs": [],
      "stateMutability": "nonpayable",
      "type": "function"
    },
    {
      "inputs": [],
      "name": "fdc",
      "outputs": [
        {
          "internalType": "contract IFdcVerification",
          "name": "",
          "type": "address"
        }
      ],
      "stateMutability": "view",
      "type": "function"
    },
    {
      "stateMutability": "payable",
      "type": "receive"
    }
  ],
  "devdoc": {
    "kind": "dev",
    "methods": {
      "executeStrategy(bytes,bytes)": {
        "params": {
          "attestation": "The TEE attestation quote.",
          "tradeData": "The trade instruction data (encoded swap parameters)."
        }
      }
    },
    "version": 1
  },
  "evm": {
    "assembly": "    /* \"contracts/VerifyMindVault.sol\":181:2009  contract VerifyMindVault {... */\n  mstore(0x40, 0x80)\n    /* \"contracts/VerifyMindVault.sol\":756:872  constructor(address _fdc, address _dex) {... */\n  callvalue\n  dup1\n  iszero\n  tag_1\n  jumpi\n  0x00\n  dup1\n  revert\ntag_1:\n  pop\n  mload(0x40)\n  sub(codesize, bytecodeSize)\n  dup1\n  bytecodeSize\n  dup4\n  codecopy\n  dup2\n  dup2\n  add\n  0x40\n  mstore\n  dup2\n  add\n  swap1\n  tag_2\n  swap2\n  swap1\n  tag_3\n  jump\t// in\ntag_2:\n    /* \"contracts/VerifyMindVault.sol\":829:833  _fdc */\n  dup2\n    /* \"contracts/VerifyMindVault.sol\":806:809  fdc */\n  0x00\n  dup1\n    /* \"contracts/VerifyMindVault.sol\":806:834  fdc = IFdcVerification(_fdc) */\n  0x0100\n  exp\n  dup2\n  sload\n  dup2\n  0xffffffffffffffffffffffffffffffffffffffff\n  mul\n  not\n  and\n  swap1\n  dup4\n  0xffffffffffffffffffffffffffffffffffffffff\n  and\n  mul\n  or\n  swap1\n  sstore\n  pop\n    /* \"contracts/VerifyMindVault.sol\":860:864  _dex */\n  dup1\n    /* \"contracts/VerifyMindVault.sol\":844:847  dex */\n  0x01\n  0x00\n    /* \"contracts/VerifyMindVault.sol\":844:865  dex = ISparkDEX(_dex) */\n  0x0100\n  exp\n  dup2\n  sload\n  dup2\n  0xffffffffffffffffffffffffffffffffffffffff\n  mul\n  not\n  and\n  swap1\n  dup4\n  0xffffffffffffffffffffffffffffffffffffffff\n  and\n  mul\n  or\n  swap1\n  sstore\n  pop\n    /* \"contracts/VerifyMindVault.sol\":756:872  constructor(address _fdc, address _dex) {... */\n  pop\n  pop\n    /* \"contracts/VerifyMindVault.sol\":181:2009  contract VerifyMindVault {... */\n  jump(tag_6)\n    /* \"#utility.yul\":88:205   */\ntag_8:\n    /* \"#utility.yul\":197:198   */\n  0x00\n    /* \"#utility.yul\":194:195   */\n  dup1\n    /* \"#utility.yul\":187:199   */\n  revert\n    /* \"#utility.yul\":334:460   */\ntag_10:\n    /* \"#utility.yul\":371:378   */\n  0x00\n    /* \"#utility.yul\":411:453   */\n  0xffffffffffffffffffffffffffffffffffffffff\n    /* \"#utility.yul\":404:409   */\n  dup3\n    /* \"#utility.yul\":400:454   */\n  and\n    /* \"#utility.yul\":389:454   */\n  swap1\n  pop\n    /* \"#utility.yul\":334:460   */\n  swap2\n  swap1\n  pop\n  jump\t// out\n    /* \"#utility.yul\":466:562   */\ntag_11:\n    /* \"#utility.yul\":503:510   */\n  0x00\n    /* \"#utility.yul\":532:556   */\n  tag_20\n    /* \"#utility.yul\":550:555   */\n  dup3\n    /* \"#utility.yul\":532:556   */\n  tag_10\n  jump\t// in\ntag_20:\n    /* \"#utility.yul\":521:556   */\n  swap1\n  pop\n    /* \"#utility.yul\":466:562   */\n  swap2\n  swap1\n  pop\n  jump\t// out\n    /* \"#utility.yul\":568:690   */\ntag_12:\n    /* \"#utility.yul\":641:665   */\n  tag_22\n    /* \"#utility.yul\":659:664   */\n  dup2\n    /* \"#utility.yul\":641:665   */\n  tag_11\n  jump\t// in\ntag_22:\n    /* \"#utility.yul\":634:639   */\n  dup2\n    /* \"#utility.yul\":631:666   */\n  eq\n    /* \"#utility.yul\":621:684   */\n  tag_23\n  jumpi\n    /* \"#utility.yul\":680:681   */\n  0x00\n    /* \"#utility.yul\":677:678   */\n  dup1\n    /* \"#utility.yul\":670:682   */\n  revert\n    /* \"#utility.yul\":621:684   */\ntag_23:\n    /* \"#utility.yul\":568:690   */\n  pop\n  jump\t// out\n    /* \"#utility.yul\":696:839   */\ntag_13:\n    /* \"#utility.yul\":753:758   */\n  0x00\n    /* \"#utility.yul\":784:790   */\n  dup2\n    /* \"#utility.yul\":778:791   */\n  mload\n    /* \"#utility.yul\":769:791   */\n  swap1\n  pop\n    /* \"#utility.yul\":800:833   */\n  tag_25\n    /* \"#utility.yul\":827:832   */\n  dup2\n    /* \"#utility.yul\":800:833   */\n  tag_12\n  jump\t// in\ntag_25:\n    /* \"#utility.yul\":696:839   */\n  swap3\n  swap2\n  pop\n  pop\n  jump\t// out\n    /* \"#utility.yul\":845:1352   */\ntag_3:\n    /* \"#utility.yul\":924:930   */\n  0x00\n    /* \"#utility.yul\":932:938   */\n  dup1\n    /* \"#utility.yul\":981:983   */\n  0x40\n    /* \"#utility.yul\":969:978   */\n  dup4\n    /* \"#utility.yul\":960:967   */\n  dup6\n    /* \"#utility.yul\":956:979   */\n  sub\n    /* \"#utility.yul\":952:984   */\n  slt\n    /* \"#utility.yul\":949:1068   */\n  iszero\n  tag_27\n  jumpi\n    /* \"#utility.yul\":987:1066   */\n  tag_28\n  tag_8\n  jump\t// in\ntag_28:\n    /* \"#utility.yul\":949:1068   */\ntag_27:\n    /* \"#utility.yul\":1107:1108   */\n  0x00\n    /* \"#utility.yul\":1132:1196   */\n  tag_29\n    /* \"#utility.yul\":1188:1195   */\n  dup6\n    /* \"#utility.yul\":1179:1185   */\n  dup3\n    /* \"#utility.yul\":1168:1177   */\n  dup7\n    /* \"#utility.yul\":1164:1186   */\n  add\n    /* \"#utility.yul\":1132:1196   */\n  tag_13\n  jump\t// in\ntag_29:\n    /* \"#utility.yul\":1122:1196   */\n  swap3\n  pop\n    /* \"#utility.yul\":1078:1206   */\n  pop\n    /* \"#utility.yul\":1245:1247   */\n  0x20\n    /* \"#utility.yul\":1271:1335   */\n  tag_30\n    /* \"#utility.yul\":1327:1334   */\n  dup6\n    /* \"#utility.yul\":1318:1324   */\n  dup3\n    /* \"#utility.yul\":1307:1316   */\n  dup7\n    /* \"#utility.yul\":1303:1325   */\n  add\n    /* \"#utility.yul\":1271:1335   */\n  tag_13\n  jump\t// in\ntag_30:\n    /* \"#utility.yul\":1261:1335   */\n  swap2\n  pop\n    /* \"#utility.yul\":1216:1345   */\n  pop\n    /* \"#utility.yul\":845:1352   */\n  swap3\n  pop\n  swap3\n  swap1\n  pop\n  jump\t// out\n    /* \"contracts/VerifyMindVault.sol\":181:2009  contract VerifyMindVault {... */\ntag_6:\n  dataSize(sub_0)\n  dup1\n  dataOffset(sub_0)\n  0x00\n  codecopy\n  0x00\n  return\nstop\n\nsub_0: assembly {\n        /* \"contracts/VerifyMindVault.sol\":181:2009  contract VerifyMindVault {... */\n      mstore(0x40, 0x80)\n      jumpi(tag_1, lt(calldatasize, 0x04))\n      shr(0xe0, calldataload(0x00))\n      dup1\n      0x3275f21c\n      eq\n      tag_3\n      jumpi\n      dup1\n      0x34090736\n      eq\n      tag_4\n      jumpi\n      dup1\n      0x692058c2\n      eq\n      tag_5\n      jumpi\n      dup1\n      0x72a5b94a\n      eq\n      tag_6\n      jumpi\n      jump(tag_2)\n    tag_1:\n      jumpi(tag_2, calldatasize)\n        /* \"contracts/VerifyMindVault.sol\":920:956  FundsReceived(msg.sender, msg.value) */\n      0x8e47b87b0ef542cdfa1659c551d88bad38aa7f452d2bbb349ab7530dfec8be8f\n        /* \"contracts/VerifyMindVault.sol\":934:944  msg.sender */\n      caller\n        /* \"contracts/VerifyMindVault.sol\":946:955  msg.value */\n      callvalue\n        /* \"contracts/VerifyMindVault.sol\":920:956  FundsReceived(msg.sender, msg.value) */\n      mload(0x40)\n      tag_9\n      swap3\n      swap2\n      swap1\n      tag_10\n      jump\t// in\n    tag_9:\n      mload(0x40)\n      dup1\n      swap2\n      sub\n      swap1\n      log1\n        /* \"contracts/VerifyMindVault.sol\":181:2009  contract VerifyMindVault {... */\n      stop\n    tag_2:\n      0x00\n      dup1\n      revert\n        /* \"contracts/VerifyMindVault.sol\":478:505  IFdcVerification public fdc */\n    tag_3:\n      callvalue\n      dup1\n      iszero\n      tag_11\n      jumpi\n      0x00\n      dup1\n      revert\n    tag_11:\n      pop\n      tag_12\n      tag_13\n      jump\t// in\n    tag_12:\n      mload(0x40)\n      tag_14\n      swap2\n      swap1\n      tag_15\n      jump\t// in\n    tag_14:\n      mload(0x40)\n      dup1\n      swap2\n      sub\n      swap1\n      return\n        /* \"contracts/VerifyMindVault.sol\":1180:2007  function executeStrategy(bytes memory tradeData, bytes memory attestation) external {... */\n    tag_4:\n      callvalue\n      dup1\n      iszero\n      tag_16\n      jumpi\n      0x00\n      dup1\n      revert\n    tag_16:\n      pop\n      tag_17\n      0x04\n      dup1\n      calldatasize\n      sub\n      dup2\n      add\n      swap1\n      tag_18\n      swap2\n      swap1\n      tag_19\n      jump\t// in\n    tag_18:\n      tag_20\n      jump\t// in\n    tag_17:\n      stop\n        /* \"contracts/VerifyMindVault.sol\":511:531  ISparkDEX public dex */\n    tag_5:\n      callvalue\n      dup1\n      iszero\n      tag_21\n      jumpi\n      0x00\n      dup1\n      revert\n    tag_21:\n      pop\n      tag_22\n      tag_23\n      jump\t// in\n    tag_22:\n      mload(0x40)\n      tag_24\n      swap2\n      swap1\n      tag_25\n      jump\t// in\n    tag_24:\n      mload(0x40)\n      dup1\n      swap2\n      sub\n      swap1\n      return\n        /* \"contracts/VerifyMindVault.sol\":360:471  bytes32 public constant APPROVED_CODE_HASH = 0x5c8e81f910c11c92e5161cc307365be246f6db5b72a9868fb73516337268e6d1 */\n    tag_6:\n      callvalue\n      dup1\n      iszero\n      tag_26\n      jumpi\n      0x00\n      dup1\n      revert\n    tag_26:\n      pop\n      tag_27\n      tag_28\n      jump\t// in\n    tag_27:\n      mload(0x40)\n      tag_29\n      swap2\n      swap1\n      tag_30\n      jump\t// in\n    tag_29:\n      mload(0x40)\n      dup1\n      swap2\n      sub\n      swap1\n      return\n        /* \"contracts/VerifyMindVault.sol\":478:505  IFdcVerification public fdc */\n    tag_13:\n      0x00\n      dup1\n      sload\n      swap1\n      0x0100\n      exp\n      swap1\n      div\n      0xffffffffffffffffffffffffffffffffffffffff\n      and\n      dup2\n      jump\t// out\n        /* \"contracts/VerifyMindVault.sol\":1180:2007  function executeStrategy(bytes memory tradeData, bytes memory attestation) external {... */\n    tag_20:\n        /* \"contracts/VerifyMindVault.sol\":1332:1344  bool success */\n      0x00\n        /* \"contracts/VerifyMindVault.sol\":1346:1365  bytes32 measurement */\n      dup1\n        /* \"contracts/VerifyMindVault.sol\":1369:1372  fdc */\n      0x00\n      dup1\n      sload\n      swap1\n      0x0100\n      exp\n      swap1\n      div\n      0xffffffffffffffffffffffffffffffffffffffff\n      and\n        /* \"contracts/VerifyMindVault.sol\":1369:1379  fdc.verify */\n      0xffffffffffffffffffffffffffffffffffffffff\n      and\n      0x8e760afe\n        /* \"contracts/VerifyMindVault.sol\":1380:1391  attestation */\n      dup5\n        /* \"contracts/VerifyMindVault.sol\":1369:1392  fdc.verify(attestation) */\n      mload(0x40)\n      dup3\n      0xffffffff\n      and\n      0xe0\n      shl\n      dup2\n      mstore\n      0x04\n      add\n      tag_32\n      swap2\n      swap1\n      tag_33\n      jump\t// in\n    tag_32:\n      0x40\n      dup1\n      mload\n      dup1\n      dup4\n      sub\n      dup2\n      0x00\n      dup8\n      gas\n      call\n      iszero\n      dup1\n      iszero\n      tag_35\n      jumpi\n      returndatasize\n      0x00\n      dup1\n      returndatacopy\n      revert(0x00, returndatasize)\n    tag_35:\n      pop\n      pop\n      pop\n      pop\n      mload(0x40)\n      returndatasize\n      not(0x1f)\n      0x1f\n      dup3\n      add\n      and\n      dup3\n      add\n      dup1\n      0x40\n      mstore\n      pop\n      dup2\n      add\n      swap1\n      tag_36\n      swap2\n      swap1\n      tag_37\n      jump\t// in\n    tag_36:\n        /* \"contracts/VerifyMindVault.sol\":1331:1392  (bool success, bytes32 measurement) = fdc.verify(attestation) */\n      swap2\n      pop\n      swap2\n      pop\n        /* \"contracts/VerifyMindVault.sol\":1419:1426  success */\n      dup2\n        /* \"contracts/VerifyMindVault.sol\":1411:1444  require(success, \"Invalid Proof\") */\n      tag_38\n      jumpi\n      mload(0x40)\n      0x08c379a000000000000000000000000000000000000000000000000000000000\n      dup2\n      mstore\n      0x04\n      add\n      tag_39\n      swap1\n      tag_40\n      jump\t// in\n    tag_39:\n      mload(0x40)\n      dup1\n      swap2\n      sub\n      swap1\n      revert\n    tag_38:\n        /* \"contracts/VerifyMindVault.sol\":405:471  0x5c8e81f910c11c92e5161cc307365be246f6db5b72a9868fb73516337268e6d1 */\n      0x5c8e81f910c11c92e5161cc307365be246f6db5b72a9868fb73516337268e6d1\n        /* \"contracts/VerifyMindVault.sol\":1477:1495  APPROVED_CODE_HASH */\n      0x00\n      shl\n        /* \"contracts/VerifyMindVault.sol\":1462:1473  measurement */\n      dup2\n        /* \"contracts/VerifyMindVault.sol\":1462:1495  measurement == APPROVED_CODE_HASH */\n      eq\n        /* \"contracts/VerifyMindVault.sol\":1454:1515  require(measurement == APPROVED_CODE_HASH, \"Malicious Code!\") */\n      tag_41\n      jumpi\n      mload(0x40)\n      0x08c379a000000000000000000000000000000000000000000000000000000000\n      dup2\n      mstore\n      0x04\n      add\n      tag_42\n      swap1\n      tag_43\n      jump\t// in\n    tag_42:\n      mload(0x40)\n      dup1\n      swap2\n      sub\n      swap1\n      revert\n    tag_41:\n        /* \"contracts/VerifyMindVault.sol\":1564:1580  uint256 amountIn */\n      0x00\n        /* \"contracts/VerifyMindVault.sol\":1582:1602  uint256 amountOutMin */\n      dup1\n        /* \"contracts/VerifyMindVault.sol\":1604:1625  address[] memory path */\n      0x00\n        /* \"contracts/VerifyMindVault.sol\":1627:1637  address to */\n      dup1\n        /* \"contracts/VerifyMindVault.sol\":1639:1655  uint256 deadline */\n      0x00\n        /* \"contracts/VerifyMindVault.sol\":1683:1692  tradeData */\n      dup9\n        /* \"contracts/VerifyMindVault.sol\":1672:1742  abi.decode(tradeData, (uint256, uint256, address[], address, uint256)) */\n      dup1\n      0x20\n      add\n      swap1\n      mload\n      dup2\n      add\n      swap1\n      tag_44\n      swap2\n      swap1\n      tag_45\n      jump\t// in\n    tag_44:\n        /* \"contracts/VerifyMindVault.sol\":1563:1742  (uint256 amountIn, uint256 amountOutMin, address[] memory path, address to, uint256 deadline) = ... */\n      swap5\n      pop\n      swap5\n      pop\n      swap5\n      pop\n      swap5\n      pop\n      swap5\n      pop\n        /* \"contracts/VerifyMindVault.sol\":1868:1871  dex */\n      0x01\n      0x00\n      swap1\n      sload\n      swap1\n      0x0100\n      exp\n      swap1\n      div\n      0xffffffffffffffffffffffffffffffffffffffff\n      and\n        /* \"contracts/VerifyMindVault.sol\":1868:1893  dex.swapExactETHForTokens */\n      0xffffffffffffffffffffffffffffffffffffffff\n      and\n      0x7ff36ab5\n        /* \"contracts/VerifyMindVault.sol\":1901:1909  amountIn */\n      dup7\n        /* \"contracts/VerifyMindVault.sol\":1911:1923  amountOutMin */\n      dup7\n        /* \"contracts/VerifyMindVault.sol\":1925:1929  path */\n      dup7\n        /* \"contracts/VerifyMindVault.sol\":1931:1933  to */\n      dup7\n        /* \"contracts/VerifyMindVault.sol\":1935:1943  deadline */\n      dup7\n        /* \"contracts/VerifyMindVault.sol\":1868:1944  dex.swapExactETHForTokens{value: amountIn}(amountOutMin, path, to, deadline) */\n      mload(0x40)\n      dup7\n      0xffffffff\n      and\n      0xe0\n      shl\n      dup2\n      mstore\n      0x04\n      add\n      tag_46\n      swap5\n      swap4\n      swap3\n      swap2\n      swap1\n      tag_47\n      jump\t// in\n    tag_46:\n      0x00\n      mload(0x40)\n      dup1\n      dup4\n      sub\n      dup2\n      dup6\n      dup9\n      gas\n      call\n      iszero\n      dup1\n      iszero\n      tag_49\n      jumpi\n      returndatasize\n      0x00\n      dup1\n      returndatacopy\n      revert(0x00, returndatasize)\n    tag_49:\n      pop\n      pop\n      pop\n      pop\n      pop\n      mload(0x40)\n      returndatasize\n      0x00\n      dup3\n      returndatacopy\n      returndatasize\n      not(0x1f)\n      0x1f\n      dup3\n      add\n      and\n      dup3\n      add\n      dup1\n      0x40\n      mstore\n      pop\n      dup2\n      add\n      swap1\n      tag_50\n      swap2\n      swap1\n      tag_51\n      jump\t// in\n    tag_50:\n      pop\n        /* \"contracts/VerifyMindVault.sol\":1960:2000  StrategyExecuted(tradeData, attestation) */\n      0x397d11b4929878dd685d13e5f9d6120cd5e6089f9e6a87da385873b54e20dd9b\n        /* \"contracts/VerifyMindVault.sol\":1977:1986  tradeData */\n      dup10\n        /* \"contracts/VerifyMindVault.sol\":1988:1999  attestation */\n      dup10\n        /* \"contracts/VerifyMindVault.sol\":1960:2000  StrategyExecuted(tradeData, attestation) */\n      mload(0x40)\n      tag_52\n      swap3\n      swap2\n      swap1\n      tag_53\n      jump\t// in\n    tag_52:\n      mload(0x40)\n      dup1\n      swap2\n      sub\n      swap1\n      log1\n        /* \"contracts/VerifyMindVault.sol\":1264:2007  {... */\n      pop\n      pop\n      pop\n      pop\n      pop\n      pop\n      pop\n        /* \"contracts/VerifyMindVault.sol\":1180:2007  function executeStrategy(bytes memory tradeData, bytes memory attestation) external {... */\n      pop\n      pop\n      jump\t// out\n        /* \"contracts/VerifyMindVault.sol\":511:531  ISparkDEX public dex */\n    tag_23:\n      0x01\n      0x00\n      swap1\n      sload\n      swap1\n      0x0100\n      exp\n      swap1\n      div\n      0xffffffffffffffffffffffffffffffffffffffff\n      and\n      dup2\n      jump\t// out\n        /* \"contracts/VerifyMindVault.sol\":360:471  bytes32 public constant APPROVED_CODE_HASH = 0x5c8e81f910c11c92e5161cc307365be246f6db5b72a9868fb73516337268e6d1 */\n    tag_28:\n        /* \"contracts/VerifyMindVault.sol\":405:471  0x5c8e81f910c11c92e5161cc307365be246f6db5b72a9868fb73516337268e6d1 */\n      0x5c8e81f910c11c92e5161cc307365be246f6db5b72a9868fb73516337268e6d1\n        /* \"contracts/VerifyMindVault.sol\":360:471  bytes32 public constant APPROVED_CODE_HASH = 0x5c8e81f910c11c92e5161cc307365be246f6db5b72a9868fb73516337268e6d1 */\n      0x00\n      shl\n      dup2\n      jump\t// out\n        /* \"#utility.yul\":7:133   */\n    tag_54:\n        /* \"#utility.yul\":44:51   */\n      0x00\n        /* \"#utility.yul\":84:126   */\n      0xffffffffffffffffffffffffffffffffffffffff\n        /* \"#utility.yul\":77:82   */\n      dup3\n        /* \"#utility.yul\":73:127   */\n      and\n        /* \"#utility.yul\":62:127   */\n      swap1\n      pop\n        /* \"#utility.yul\":7:133   */\n      swap2\n      swap1\n      pop\n      jump\t// out\n        /* \"#utility.yul\":139:235   */\n    tag_55:\n        /* \"#utility.yul\":176:183   */\n      0x00\n        /* \"#utility.yul\":205:229   */\n      tag_119\n        /* \"#utility.yul\":223:228   */\n      dup3\n        /* \"#utility.yul\":205:229   */\n      tag_54\n      jump\t// in\n    tag_119:\n        /* \"#utility.yul\":194:229   */\n      swap1\n      pop\n        /* \"#utility.yul\":139:235   */\n      swap2\n      swap1\n      pop\n      jump\t// out\n        /* \"#utility.yul\":241:359   */\n    tag_56:\n        /* \"#utility.yul\":328:352   */\n      tag_121\n        /* \"#utility.yul\":346:351   */\n      dup2\n        /* \"#utility.yul\":328:352   */\n      tag_55\n      jump\t// in\n    tag_121:\n        /* \"#utility.yul\":323:326   */\n      dup3\n        /* \"#utility.yul\":316:353   */\n      mstore\n        /* \"#utility.yul\":241:359   */\n      pop\n      pop\n      jump\t// out\n        /* \"#utility.yul\":365:442   */\n    tag_57:\n        /* \"#utility.yul\":402:409   */\n      0x00\n        /* \"#utility.yul\":431:436   */\n      dup2\n        /* \"#utility.yul\":420:436   */\n      swap1\n      pop\n        /* \"#utility.yul\":365:442   */\n      swap2\n      swap1\n      pop\n      jump\t// out\n        /* \"#utility.yul\":448:566   */\n    tag_58:\n        /* \"#utility.yul\":535:559   */\n      tag_124\n        /* \"#utility.yul\":553:558   */\n      dup2\n        /* \"#utility.yul\":535:559   */\n      tag_57\n      jump\t// in\n    tag_124:\n        /* \"#utility.yul\":530:533   */\n      dup3\n        /* \"#utility.yul\":523:560   */\n      mstore\n        /* \"#utility.yul\":448:566   */\n      pop\n      pop\n      jump\t// out\n        /* \"#utility.yul\":572:904   */\n    tag_10:\n        /* \"#utility.yul\":693:697   */\n      0x00\n        /* \"#utility.yul\":731:733   */\n      0x40\n        /* \"#utility.yul\":720:729   */\n      dup3\n        /* \"#utility.yul\":716:734   */\n      add\n        /* \"#utility.yul\":708:734   */\n      swap1\n      pop\n        /* \"#utility.yul\":744:815   */\n      tag_126\n        /* \"#utility.yul\":812:813   */\n      0x00\n        /* \"#utility.yul\":801:810   */\n      dup4\n        /* \"#utility.yul\":797:814   */\n      add\n        /* \"#utility.yul\":788:794   */\n      dup6\n        /* \"#utility.yul\":744:815   */\n      tag_56\n      jump\t// in\n    tag_126:\n        /* \"#utility.yul\":825:897   */\n      tag_127\n        /* \"#utility.yul\":893:895   */\n      0x20\n        /* \"#utility.yul\":882:891   */\n      dup4\n        /* \"#utility.yul\":878:896   */\n      add\n        /* \"#utility.yul\":869:875   */\n      dup5\n        /* \"#utility.yul\":825:897   */\n      tag_58\n      jump\t// in\n    tag_127:\n        /* \"#utility.yul\":572:904   */\n      swap4\n      swap3\n      pop\n      pop\n      pop\n      jump\t// out\n        /* \"#utility.yul\":910:970   */\n    tag_59:\n        /* \"#utility.yul\":938:941   */\n      0x00\n        /* \"#utility.yul\":959:964   */\n      dup2\n        /* \"#utility.yul\":952:964   */\n      swap1\n      pop\n        /* \"#utility.yul\":910:970   */\n      swap2\n      swap1\n      pop\n      jump\t// out\n        /* \"#utility.yul\":976:1118   */\n    tag_60:\n        /* \"#utility.yul\":1026:1035   */\n      0x00\n        /* \"#utility.yul\":1059:1112   */\n      tag_130\n        /* \"#utility.yul\":1077:1111   */\n      tag_131\n        /* \"#utility.yul\":1086:1110   */\n      tag_132\n        /* \"#utility.yul\":1104:1109   */\n      dup5\n        /* \"#utility.yul\":1086:1110   */\n      tag_54\n      jump\t// in\n    tag_132:\n        /* \"#utility.yul\":1077:1111   */\n      tag_59\n      jump\t// in\n    tag_131:\n        /* \"#utility.yul\":1059:1112   */\n      tag_54\n      jump\t// in\n    tag_130:\n        /* \"#utility.yul\":1046:1112   */\n      swap1\n      pop\n        /* \"#utility.yul\":976:1118   */\n      swap2\n      swap1\n      pop\n      jump\t// out\n        /* \"#utility.yul\":1124:1250   */\n    tag_61:\n        /* \"#utility.yul\":1174:1183   */\n      0x00\n        /* \"#utility.yul\":1207:1244   */\n      tag_134\n        /* \"#utility.yul\":1238:1243   */\n      dup3\n        /* \"#utility.yul\":1207:1244   */\n      tag_60\n      jump\t// in\n    tag_134:\n        /* \"#utility.yul\":1194:1244   */\n      swap1\n      pop\n        /* \"#utility.yul\":1124:1250   */\n      swap2\n      swap1\n      pop\n      jump\t// out\n        /* \"#utility.yul\":1256:1406   */\n    tag_62:\n        /* \"#utility.yul\":1330:1339   */\n      0x00\n        /* \"#utility.yul\":1363:1400   */\n      tag_136\n        /* \"#utility.yul\":1394:1399   */\n      dup3\n        /* \"#utility.yul\":1363:1400   */\n      tag_61\n      jump\t// in\n    tag_136:\n        /* \"#utility.yul\":1350:1400   */\n      swap1\n      pop\n        /* \"#utility.yul\":1256:1406   */\n      swap2\n      swap1\n      pop\n      jump\t// out\n        /* \"#utility.yul\":1412:1591   */\n    tag_63:\n        /* \"#utility.yul\":1523:1584   */\n      tag_138\n        /* \"#utility.yul\":1578:1583   */\n      dup2\n        /* \"#utility.yul\":1523:1584   */\n      tag_62\n      jump\t// in\n    tag_138:\n        /* \"#utility.yul\":1518:1521   */\n      dup3\n        /* \"#utility.yul\":1511:1585   */\n      mstore\n        /* \"#utility.yul\":1412:1591   */\n      pop\n      pop\n      jump\t// out\n        /* \"#utility.yul\":1597:1867   */\n    tag_15:\n        /* \"#utility.yul\":1714:1718   */\n      0x00\n        /* \"#utility.yul\":1752:1754   */\n      0x20\n        /* \"#utility.yul\":1741:1750   */\n      dup3\n        /* \"#utility.yul\":1737:1755   */\n      add\n        /* \"#utility.yul\":1729:1755   */\n      swap1\n      pop\n        /* \"#utility.yul\":1765:1860   */\n      tag_140\n        /* \"#utility.yul\":1857:1858   */\n      0x00\n        /* \"#utility.yul\":1846:1855   */\n      dup4\n        /* \"#utility.yul\":1842:1859   */\n      add\n        /* \"#utility.yul\":1833:1839   */\n      dup5\n        /* \"#utility.yul\":1765:1860   */\n      tag_63\n      jump\t// in\n    tag_140:\n        /* \"#utility.yul\":1597:1867   */\n      swap3\n      swap2\n      pop\n      pop\n      jump\t// out\n        /* \"#utility.yul\":1873:1948   */\n    tag_64:\n        /* \"#utility.yul\":1906:1912   */\n      0x00\n        /* \"#utility.yul\":1939:1941   */\n      0x40\n        /* \"#utility.yul\":1933:1942   */\n      mload\n        /* \"#utility.yul\":1923:1942   */\n      swap1\n      pop\n        /* \"#utility.yul\":1873:1948   */\n      swap1\n      jump\t// out\n        /* \"#utility.yul\":1954:2071   */\n    tag_65:\n        /* \"#utility.yul\":2063:2064   */\n      0x00\n        /* \"#utility.yul\":2060:2061   */\n      dup1\n        /* \"#utility.yul\":2053:2065   */\n      revert\n        /* \"#utility.yul\":2077:2194   */\n    tag_66:\n        /* \"#utility.yul\":2186:2187   */\n      0x00\n        /* \"#utility.yul\":2183:2184   */\n      dup1\n        /* \"#utility.yul\":2176:2188   */\n      revert\n        /* \"#utility.yul\":2200:2317   */\n    tag_67:\n        /* \"#utility.yul\":2309:2310   */\n      0x00\n        /* \"#utility.yul\":2306:2307   */\n      dup1\n        /* \"#utility.yul\":2299:2311   */\n      revert\n        /* \"#utility.yul\":2323:2440   */\n    tag_68:\n        /* \"#utility.yul\":2432:2433   */\n      0x00\n        /* \"#utility.yul\":2429:2430   */\n      dup1\n        /* \"#utility.yul\":2422:2434   */\n      revert\n        /* \"#utility.yul\":2446:2548   */\n    tag_69:\n        /* \"#utility.yul\":2487:2493   */\n      0x00\n        /* \"#utility.yul\":2538:2540   */\n      0x1f\n        /* \"#utility.yul\":2534:2541   */\n      not\n        /* \"#utility.yul\":2529:2531   */\n      0x1f\n        /* \"#utility.yul\":2522:2527   */\n      dup4\n        /* \"#utility.yul\":2518:2532   */\n      add\n        /* \"#utility.yul\":2514:2542   */\n      and\n        /* \"#utility.yul\":2504:2542   */\n      swap1\n      pop\n        /* \"#utility.yul\":2446:2548   */\n      swap2\n      swap1\n      pop\n      jump\t// out\n        /* \"#utility.yul\":2554:2734   */\n    tag_70:\n        /* \"#utility.yul\":2602:2679   */\n      0x4e487b7100000000000000000000000000000000000000000000000000000000\n        /* \"#utility.yul\":2599:2600   */\n      0x00\n        /* \"#utility.yul\":2592:2680   */\n      mstore\n        /* \"#utility.yul\":2699:2703   */\n      0x41\n        /* \"#utility.yul\":2696:2697   */\n      0x04\n        /* \"#utility.yul\":2689:2704   */\n      mstore\n        /* \"#utility.yul\":2723:2727   */\n      0x24\n        /* \"#utility.yul\":2720:2721   */\n      0x00\n        /* \"#utility.yul\":2713:2728   */\n      revert\n        /* \"#utility.yul\":2740:3021   */\n    tag_71:\n        /* \"#utility.yul\":2823:2850   */\n      tag_149\n        /* \"#utility.yul\":2845:2849   */\n      dup3\n        /* \"#utility.yul\":2823:2850   */\n      tag_69\n      jump\t// in\n    tag_149:\n        /* \"#utility.yul\":2815:2821   */\n      dup2\n        /* \"#utility.yul\":2811:2851   */\n      add\n        /* \"#utility.yul\":2953:2959   */\n      dup2\n        /* \"#utility.yul\":2941:2951   */\n      dup2\n        /* \"#utility.yul\":2938:2960   */\n      lt\n        /* \"#utility.yul\":2917:2935   */\n      0xffffffffffffffff\n        /* \"#utility.yul\":2905:2915   */\n      dup3\n        /* \"#utility.yul\":2902:2936   */\n      gt\n        /* \"#utility.yul\":2899:2961   */\n      or\n        /* \"#utility.yul\":2896:2984   */\n      iszero\n      tag_150\n      jumpi\n        /* \"#utility.yul\":2964:2982   */\n      tag_151\n      tag_70\n      jump\t// in\n    tag_151:\n        /* \"#utility.yul\":2896:2984   */\n    tag_150:\n        /* \"#utility.yul\":3004:3014   */\n      dup1\n        /* \"#utility.yul\":3000:3002   */\n      0x40\n        /* \"#utility.yul\":2993:3015   */\n      mstore\n        /* \"#utility.yul\":2783:3021   */\n      pop\n        /* \"#utility.yul\":2740:3021   */\n      pop\n      pop\n      jump\t// out\n        /* \"#utility.yul\":3027:3156   */\n    tag_72:\n        /* \"#utility.yul\":3061:3067   */\n      0x00\n        /* \"#utility.yul\":3088:3108   */\n      tag_153\n      tag_64\n      jump\t// in\n    tag_153:\n        /* \"#utility.yul\":3078:3108   */\n      swap1\n      pop\n        /* \"#utility.yul\":3117:3150   */\n      tag_154\n        /* \"#utility.yul\":3145:3149   */\n      dup3\n        /* \"#utility.yul\":3137:3143   */\n      dup3\n        /* \"#utility.yul\":3117:3150   */\n      tag_71\n      jump\t// in\n    tag_154:\n        /* \"#utility.yul\":3027:3156   */\n      swap2\n      swap1\n      pop\n      jump\t// out\n        /* \"#utility.yul\":3162:3469   */\n    tag_73:\n        /* \"#utility.yul\":3223:3227   */\n      0x00\n        /* \"#utility.yul\":3313:3331   */\n      0xffffffffffffffff\n        /* \"#utility.yul\":3305:3311   */\n      dup3\n        /* \"#utility.yul\":3302:3332   */\n      gt\n        /* \"#utility.yul\":3299:3355   */\n      iszero\n      tag_156\n      jumpi\n        /* \"#utility.yul\":3335:3353   */\n      tag_157\n      tag_70\n      jump\t// in\n    tag_157:\n        /* \"#utility.yul\":3299:3355   */\n    tag_156:\n        /* \"#utility.yul\":3373:3402   */\n      tag_158\n        /* \"#utility.yul\":3395:3401   */\n      dup3\n        /* \"#utility.yul\":3373:3402   */\n      tag_69\n      jump\t// in\n    tag_158:\n        /* \"#utility.yul\":3365:3402   */\n      swap1\n      pop\n        /* \"#utility.yul\":3457:3461   */\n      0x20\n        /* \"#utility.yul\":3451:3455   */\n      dup2\n        /* \"#utility.yul\":3447:3462   */\n      add\n        /* \"#utility.yul\":3439:3462   */\n      swap1\n      pop\n        /* \"#utility.yul\":3162:3469   */\n      swap2\n      swap1\n      pop\n      jump\t// out\n        /* \"#utility.yul\":3475:3621   */\n    tag_74:\n        /* \"#utility.yul\":3572:3578   */\n      dup3\n        /* \"#utility.yul\":3567:3570   */\n      dup2\n        /* \"#utility.yul\":3562:3565   */\n      dup4\n        /* \"#utility.yul\":3549:3579   */\n      calldatacopy\n        /* \"#utility.yul\":3613:3614   */\n      0x00\n        /* \"#utility.yul\":3604:3610   */\n      dup4\n        /* \"#utility.yul\":3599:3602   */\n      dup4\n        /* \"#utility.yul\":3595:3611   */\n      add\n        /* \"#utility.yul\":3588:3615   */\n      mstore\n        /* \"#utility.yul\":3475:3621   */\n      pop\n      pop\n      pop\n      jump\t// out\n        /* \"#utility.yul\":3627:4050   */\n    tag_75:\n        /* \"#utility.yul\":3704:3709   */\n      0x00\n        /* \"#utility.yul\":3729:3794   */\n      tag_161\n        /* \"#utility.yul\":3745:3793   */\n      tag_162\n        /* \"#utility.yul\":3786:3792   */\n      dup5\n        /* \"#utility.yul\":3745:3793   */\n      tag_73\n      jump\t// in\n    tag_162:\n        /* \"#utility.yul\":3729:3794   */\n      tag_72\n      jump\t// in\n    tag_161:\n        /* \"#utility.yul\":3720:3794   */\n      swap1\n      pop\n        /* \"#utility.yul\":3817:3823   */\n      dup3\n        /* \"#utility.yul\":3810:3815   */\n      dup2\n        /* \"#utility.yul\":3803:3824   */\n      mstore\n        /* \"#utility.yul\":3855:3859   */\n      0x20\n        /* \"#utility.yul\":3848:3853   */\n      dup2\n        /* \"#utility.yul\":3844:3860   */\n      add\n        /* \"#utility.yul\":3893:3896   */\n      dup5\n        /* \"#utility.yul\":3884:3890   */\n      dup5\n        /* \"#utility.yul\":3879:3882   */\n      dup5\n        /* \"#utility.yul\":3875:3891   */\n      add\n        /* \"#utility.yul\":3872:3897   */\n      gt\n        /* \"#utility.yul\":3869:3981   */\n      iszero\n      tag_163\n      jumpi\n        /* \"#utility.yul\":3900:3979   */\n      tag_164\n      tag_68\n      jump\t// in\n    tag_164:\n        /* \"#utility.yul\":3869:3981   */\n    tag_163:\n        /* \"#utility.yul\":3990:4044   */\n      tag_165\n        /* \"#utility.yul\":4037:4043   */\n      dup5\n        /* \"#utility.yul\":4032:4035   */\n      dup3\n        /* \"#utility.yul\":4027:4030   */\n      dup6\n        /* \"#utility.yul\":3990:4044   */\n      tag_74\n      jump\t// in\n    tag_165:\n        /* \"#utility.yul\":3710:4050   */\n      pop\n        /* \"#utility.yul\":3627:4050   */\n      swap4\n      swap3\n      pop\n      pop\n      pop\n      jump\t// out\n        /* \"#utility.yul\":4069:4407   */\n    tag_76:\n        /* \"#utility.yul\":4124:4129   */\n      0x00\n        /* \"#utility.yul\":4173:4176   */\n      dup3\n        /* \"#utility.yul\":4166:4170   */\n      0x1f\n        /* \"#utility.yul\":4158:4164   */\n      dup4\n        /* \"#utility.yul\":4154:4171   */\n      add\n        /* \"#utility.yul\":4150:4177   */\n      slt\n        /* \"#utility.yul\":4140:4262   */\n      tag_167\n      jumpi\n        /* \"#utility.yul\":4181:4260   */\n      tag_168\n      tag_67\n      jump\t// in\n    tag_168:\n        /* \"#utility.yul\":4140:4262   */\n    tag_167:\n        /* \"#utility.yul\":4298:4304   */\n      dup2\n        /* \"#utility.yul\":4285:4305   */\n      calldataload\n        /* \"#utility.yul\":4323:4401   */\n      tag_169\n        /* \"#utility.yul\":4397:4400   */\n      dup5\n        /* \"#utility.yul\":4389:4395   */\n      dup3\n        /* \"#utility.yul\":4382:4386   */\n      0x20\n        /* \"#utility.yul\":4374:4380   */\n      dup7\n        /* \"#utility.yul\":4370:4387   */\n      add\n        /* \"#utility.yul\":4323:4401   */\n      tag_75\n      jump\t// in\n    tag_169:\n        /* \"#utility.yul\":4314:4401   */\n      swap2\n      pop\n        /* \"#utility.yul\":4130:4407   */\n      pop\n        /* \"#utility.yul\":4069:4407   */\n      swap3\n      swap2\n      pop\n      pop\n      jump\t// out\n        /* \"#utility.yul\":4413:5243   */\n    tag_19:\n        /* \"#utility.yul\":4499:4505   */\n      0x00\n        /* \"#utility.yul\":4507:4513   */\n      dup1\n        /* \"#utility.yul\":4556:4558   */\n      0x40\n        /* \"#utility.yul\":4544:4553   */\n      dup4\n        /* \"#utility.yul\":4535:4542   */\n      dup6\n        /* \"#utility.yul\":4531:4554   */\n      sub\n        /* \"#utility.yul\":4527:4559   */\n      slt\n        /* \"#utility.yul\":4524:4643   */\n      iszero\n      tag_171\n      jumpi\n        /* \"#utility.yul\":4562:4641   */\n      tag_172\n      tag_65\n      jump\t// in\n    tag_172:\n        /* \"#utility.yul\":4524:4643   */\n    tag_171:\n        /* \"#utility.yul\":4710:4711   */\n      0x00\n        /* \"#utility.yul\":4699:4708   */\n      dup4\n        /* \"#utility.yul\":4695:4712   */\n      add\n        /* \"#utility.yul\":4682:4713   */\n      calldataload\n        /* \"#utility.yul\":4740:4758   */\n      0xffffffffffffffff\n        /* \"#utility.yul\":4732:4738   */\n      dup2\n        /* \"#utility.yul\":4729:4759   */\n      gt\n        /* \"#utility.yul\":4726:4843   */\n      iszero\n      tag_173\n      jumpi\n        /* \"#utility.yul\":4762:4841   */\n      tag_174\n      tag_66\n      jump\t// in\n    tag_174:\n        /* \"#utility.yul\":4726:4843   */\n    tag_173:\n        /* \"#utility.yul\":4867:4929   */\n      tag_175\n        /* \"#utility.yul\":4921:4928   */\n      dup6\n        /* \"#utility.yul\":4912:4918   */\n      dup3\n        /* \"#utility.yul\":4901:4910   */\n      dup7\n        /* \"#utility.yul\":4897:4919   */\n      add\n        /* \"#utility.yul\":4867:4929   */\n      tag_76\n      jump\t// in\n    tag_175:\n        /* \"#utility.yul\":4857:4929   */\n      swap3\n      pop\n        /* \"#utility.yul\":4653:4939   */\n      pop\n        /* \"#utility.yul\":5006:5008   */\n      0x20\n        /* \"#utility.yul\":4995:5004   */\n      dup4\n        /* \"#utility.yul\":4991:5009   */\n      add\n        /* \"#utility.yul\":4978:5010   */\n      calldataload\n        /* \"#utility.yul\":5037:5055   */\n      0xffffffffffffffff\n        /* \"#utility.yul\":5029:5035   */\n      dup2\n        /* \"#utility.yul\":5026:5056   */\n      gt\n        /* \"#utility.yul\":5023:5140   */\n      iszero\n      tag_176\n      jumpi\n        /* \"#utility.yul\":5059:5138   */\n      tag_177\n      tag_66\n      jump\t// in\n    tag_177:\n        /* \"#utility.yul\":5023:5140   */\n    tag_176:\n        /* \"#utility.yul\":5164:5226   */\n      tag_178\n        /* \"#utility.yul\":5218:5225   */\n      dup6\n        /* \"#utility.yul\":5209:5215   */\n      dup3\n        /* \"#utility.yul\":5198:5207   */\n      dup7\n        /* \"#utility.yul\":5194:5216   */\n      add\n        /* \"#utility.yul\":5164:5226   */\n      tag_76\n      jump\t// in\n    tag_178:\n        /* \"#utility.yul\":5154:5226   */\n      swap2\n      pop\n        /* \"#utility.yul\":4949:5236   */\n      pop\n        /* \"#utility.yul\":4413:5243   */\n      swap3\n      pop\n      swap3\n      swap1\n      pop\n      jump\t// out\n        /* \"#utility.yul\":5249:5392   */\n    tag_77:\n        /* \"#utility.yul\":5316:5325   */\n      0x00\n        /* \"#utility.yul\":5349:5386   */\n      tag_180\n        /* \"#utility.yul\":5380:5385   */\n      dup3\n        /* \"#utility.yul\":5349:5386   */\n      tag_61\n      jump\t// in\n    tag_180:\n        /* \"#utility.yul\":5336:5386   */\n      swap1\n      pop\n        /* \"#utility.yul\":5249:5392   */\n      swap2\n      swap1\n      pop\n      jump\t// out\n        /* \"#utility.yul\":5398:5563   */\n    tag_78:\n        /* \"#utility.yul\":5502:5556   */\n      tag_182\n        /* \"#utility.yul\":5550:5555   */\n      dup2\n        /* \"#utility.yul\":5502:5556   */\n      tag_77\n      jump\t// in\n    tag_182:\n        /* \"#utility.yul\":5497:5500   */\n      dup3\n        /* \"#utility.yul\":5490:5557   */\n      mstore\n        /* \"#utility.yul\":5398:5563   */\n      pop\n      pop\n      jump\t// out\n        /* \"#utility.yul\":5569:5825   */\n    tag_25:\n        /* \"#utility.yul\":5679:5683   */\n      0x00\n        /* \"#utility.yul\":5717:5719   */\n      0x20\n        /* \"#utility.yul\":5706:5715   */\n      dup3\n        /* \"#utility.yul\":5702:5720   */\n      add\n        /* \"#utility.yul\":5694:5720   */\n      swap1\n      pop\n        /* \"#utility.yul\":5730:5818   */\n      tag_184\n        /* \"#utility.yul\":5815:5816   */\n      0x00\n        /* \"#utility.yul\":5804:5813   */\n      dup4\n        /* \"#utility.yul\":5800:5817   */\n      add\n        /* \"#utility.yul\":5791:5797   */\n      dup5\n        /* \"#utility.yul\":5730:5818   */\n      tag_78\n      jump\t// in\n    tag_184:\n        /* \"#utility.yul\":5569:5825   */\n      swap3\n      swap2\n      pop\n      pop\n      jump\t// out\n        /* \"#utility.yul\":5831:5908   */\n    tag_79:\n        /* \"#utility.yul\":5868:5875   */\n      0x00\n        /* \"#utility.yul\":5897:5902   */\n      dup2\n        /* \"#utility.yul\":5886:5902   */\n      swap1\n      pop\n        /* \"#utility.yul\":5831:5908   */\n      swap2\n      swap1\n      pop\n      jump\t// out\n        /* \"#utility.yul\":5914:6032   */\n    tag_80:\n        /* \"#utility.yul\":6001:6025   */\n      tag_187\n        /* \"#utility.yul\":6019:6024   */\n      dup2\n        /* \"#utility.yul\":6001:6025   */\n      tag_79\n      jump\t// in\n    tag_187:\n        /* \"#utility.yul\":5996:5999   */\n      dup3\n        /* \"#utility.yul\":5989:6026   */\n      mstore\n        /* \"#utility.yul\":5914:6032   */\n      pop\n      pop\n      jump\t// out\n        /* \"#utility.yul\":6038:6260   */\n    tag_30:\n        /* \"#utility.yul\":6131:6135   */\n      0x00\n        /* \"#utility.yul\":6169:6171   */\n      0x20\n        /* \"#utility.yul\":6158:6167   */\n      dup3\n        /* \"#utility.yul\":6154:6172   */\n      add\n        /* \"#utility.yul\":6146:6172   */\n      swap1\n      pop\n        /* \"#utility.yul\":6182:6253   */\n      tag_189\n        /* \"#utility.yul\":6250:6251   */\n      0x00\n        /* \"#utility.yul\":6239:6248   */\n      dup4\n        /* \"#utility.yul\":6235:6252   */\n      add\n        /* \"#utility.yul\":6226:6232   */\n      dup5\n        /* \"#utility.yul\":6182:6253   */\n      tag_80\n      jump\t// in\n    tag_189:\n        /* \"#utility.yul\":6038:6260   */\n      swap3\n      swap2\n      pop\n      pop\n      jump\t// out\n        /* \"#utility.yul\":6266:6364   */\n    tag_81:\n        /* \"#utility.yul\":6317:6323   */\n      0x00\n        /* \"#utility.yul\":6351:6356   */\n      dup2\n        /* \"#utility.yul\":6345:6357   */\n      mload\n        /* \"#utility.yul\":6335:6357   */\n      swap1\n      pop\n        /* \"#utility.yul\":6266:6364   */\n      swap2\n      swap1\n      pop\n      jump\t// out\n        /* \"#utility.yul\":6370:6538   */\n    tag_82:\n        /* \"#utility.yul\":6453:6464   */\n      0x00\n        /* \"#utility.yul\":6487:6493   */\n      dup3\n        /* \"#utility.yul\":6482:6485   */\n      dup3\n        /* \"#utility.yul\":6475:6494   */\n      mstore\n        /* \"#utility.yul\":6527:6531   */\n      0x20\n        /* \"#utility.yul\":6522:6525   */\n      dup3\n        /* \"#utility.yul\":6518:6532   */\n      add\n        /* \"#utility.yul\":6503:6532   */\n      swap1\n      pop\n        /* \"#utility.yul\":6370:6538   */\n      swap3\n      swap2\n      pop\n      pop\n      jump\t// out\n        /* \"#utility.yul\":6544:6790   */\n    tag_83:\n        /* \"#utility.yul\":6625:6626   */\n      0x00\n        /* \"#utility.yul\":6635:6748   */\n    tag_193:\n        /* \"#utility.yul\":6649:6655   */\n      dup4\n        /* \"#utility.yul\":6646:6647   */\n      dup2\n        /* \"#utility.yul\":6643:6656   */\n      lt\n        /* \"#utility.yul\":6635:6748   */\n      iszero\n      tag_195\n      jumpi\n        /* \"#utility.yul\":6734:6735   */\n      dup1\n        /* \"#utility.yul\":6729:6732   */\n      dup3\n        /* \"#utility.yul\":6725:6736   */\n      add\n        /* \"#utility.yul\":6719:6737   */\n      mload\n        /* \"#utility.yul\":6715:6716   */\n      dup2\n        /* \"#utility.yul\":6710:6713   */\n      dup5\n        /* \"#utility.yul\":6706:6717   */\n      add\n        /* \"#utility.yul\":6699:6738   */\n      mstore\n        /* \"#utility.yul\":6671:6673   */\n      0x20\n        /* \"#utility.yul\":6668:6669   */\n      dup2\n        /* \"#utility.yul\":6664:6674   */\n      add\n        /* \"#utility.yul\":6659:6674   */\n      swap1\n      pop\n        /* \"#utility.yul\":6635:6748   */\n      jump(tag_193)\n    tag_195:\n        /* \"#utility.yul\":6782:6783   */\n      0x00\n        /* \"#utility.yul\":6773:6779   */\n      dup5\n        /* \"#utility.yul\":6768:6771   */\n      dup5\n        /* \"#utility.yul\":6764:6780   */\n      add\n        /* \"#utility.yul\":6757:6784   */\n      mstore\n        /* \"#utility.yul\":6606:6790   */\n      pop\n        /* \"#utility.yul\":6544:6790   */\n      pop\n      pop\n      pop\n      jump\t// out\n        /* \"#utility.yul\":6796:7169   */\n    tag_84:\n        /* \"#utility.yul\":6882:6885   */\n      0x00\n        /* \"#utility.yul\":6910:6948   */\n      tag_197\n        /* \"#utility.yul\":6942:6947   */\n      dup3\n        /* \"#utility.yul\":6910:6948   */\n      tag_81\n      jump\t// in\n    tag_197:\n        /* \"#utility.yul\":6964:7034   */\n      tag_198\n        /* \"#utility.yul\":7027:7033   */\n      dup2\n        /* \"#utility.yul\":7022:7025   */\n      dup6\n        /* \"#utility.yul\":6964:7034   */\n      tag_82\n      jump\t// in\n    tag_198:\n        /* \"#utility.yul\":6957:7034   */\n      swap4\n      pop\n        /* \"#utility.yul\":7043:7108   */\n      tag_199\n        /* \"#utility.yul\":7101:7107   */\n      dup2\n        /* \"#utility.yul\":7096:7099   */\n      dup6\n        /* \"#utility.yul\":7089:7093   */\n      0x20\n        /* \"#utility.yul\":7082:7087   */\n      dup7\n        /* \"#utility.yul\":7078:7094   */\n      add\n        /* \"#utility.yul\":7043:7108   */\n      tag_83\n      jump\t// in\n    tag_199:\n        /* \"#utility.yul\":7133:7162   */\n      tag_200\n        /* \"#utility.yul\":7155:7161   */\n      dup2\n        /* \"#utility.yul\":7133:7162   */\n      tag_69\n      jump\t// in\n    tag_200:\n        /* \"#utility.yul\":7128:7131   */\n      dup5\n        /* \"#utility.yul\":7124:7163   */\n      add\n        /* \"#utility.yul\":7117:7163   */\n      swap2\n      pop\n        /* \"#utility.yul\":6886:7169   */\n      pop\n        /* \"#utility.yul\":6796:7169   */\n      swap3\n      swap2\n      pop\n      pop\n      jump\t// out\n        /* \"#utility.yul\":7175:7484   */\n    tag_33:\n        /* \"#utility.yul\":7286:7290   */\n      0x00\n        /* \"#utility.yul\":7324:7326   */\n      0x20\n        /* \"#utility.yul\":7313:7322   */\n      dup3\n        /* \"#utility.yul\":7309:7327   */\n      add\n        /* \"#utility.yul\":7301:7327   */\n      swap1\n      pop\n        /* \"#utility.yul\":7373:7382   */\n      dup2\n        /* \"#utility.yul\":7367:7371   */\n      dup2\n        /* \"#utility.yul\":7363:7383   */\n      sub\n        /* \"#utility.yul\":7359:7360   */\n      0x00\n        /* \"#utility.yul\":7348:7357   */\n      dup4\n        /* \"#utility.yul\":7344:7361   */\n      add\n        /* \"#utility.yul\":7337:7384   */\n      mstore\n        /* \"#utility.yul\":7401:7477   */\n      tag_202\n        /* \"#utility.yul\":7472:7476   */\n      dup2\n        /* \"#utility.yul\":7463:7469   */\n      dup5\n        /* \"#utility.yul\":7401:7477   */\n      tag_84\n      jump\t// in\n    tag_202:\n        /* \"#utility.yul\":7393:7477   */\n      swap1\n      pop\n        /* \"#utility.yul\":7175:7484   */\n      swap3\n      swap2\n      pop\n      pop\n      jump\t// out\n        /* \"#utility.yul\":7490:7580   */\n    tag_85:\n        /* \"#utility.yul\":7524:7531   */\n      0x00\n        /* \"#utility.yul\":7567:7572   */\n      dup2\n        /* \"#utility.yul\":7560:7573   */\n      iszero\n        /* \"#utility.yul\":7553:7574   */\n      iszero\n        /* \"#utility.yul\":7542:7574   */\n      swap1\n      pop\n        /* \"#utility.yul\":7490:7580   */\n      swap2\n      swap1\n      pop\n      jump\t// out\n        /* \"#utility.yul\":7586:7702   */\n    tag_86:\n        /* \"#utility.yul\":7656:7677   */\n      tag_205\n        /* \"#utility.yul\":7671:7676   */\n      dup2\n        /* \"#utility.yul\":7656:7677   */\n      tag_85\n      jump\t// in\n    tag_205:\n        /* \"#utility.yul\":7649:7654   */\n      dup2\n        /* \"#utility.yul\":7646:7678   */\n      eq\n        /* \"#utility.yul\":7636:7696   */\n      tag_206\n      jumpi\n        /* \"#utility.yul\":7692:7693   */\n      0x00\n        /* \"#utility.yul\":7689:7690   */\n      dup1\n        /* \"#utility.yul\":7682:7694   */\n      revert\n        /* \"#utility.yul\":7636:7696   */\n    tag_206:\n        /* \"#utility.yul\":7586:7702   */\n      pop\n      jump\t// out\n        /* \"#utility.yul\":7708:7845   */\n    tag_87:\n        /* \"#utility.yul\":7762:7767   */\n      0x00\n        /* \"#utility.yul\":7793:7799   */\n      dup2\n        /* \"#utility.yul\":7787:7800   */\n      mload\n        /* \"#utility.yul\":7778:7800   */\n      swap1\n      pop\n        /* \"#utility.yul\":7809:7839   */\n      tag_208\n        /* \"#utility.yul\":7833:7838   */\n      dup2\n        /* \"#utility.yul\":7809:7839   */\n      tag_86\n      jump\t// in\n    tag_208:\n        /* \"#utility.yul\":7708:7845   */\n      swap3\n      swap2\n      pop\n      pop\n      jump\t// out\n        /* \"#utility.yul\":7851:7973   */\n    tag_88:\n        /* \"#utility.yul\":7924:7948   */\n      tag_210\n        /* \"#utility.yul\":7942:7947   */\n      dup2\n        /* \"#utility.yul\":7924:7948   */\n      tag_79\n      jump\t// in\n    tag_210:\n        /* \"#utility.yul\":7917:7922   */\n      dup2\n        /* \"#utility.yul\":7914:7949   */\n      eq\n        /* \"#utility.yul\":7904:7967   */\n      tag_211\n      jumpi\n        /* \"#utility.yul\":7963:7964   */\n      0x00\n        /* \"#utility.yul\":7960:7961   */\n      dup1\n        /* \"#utility.yul\":7953:7965   */\n      revert\n        /* \"#utility.yul\":7904:7967   */\n    tag_211:\n        /* \"#utility.yul\":7851:7973   */\n      pop\n      jump\t// out\n        /* \"#utility.yul\":7979:8122   */\n    tag_89:\n        /* \"#utility.yul\":8036:8041   */\n      0x00\n        /* \"#utility.yul\":8067:8073   */\n      dup2\n        /* \"#utility.yul\":8061:8074   */\n      mload\n        /* \"#utility.yul\":8052:8074   */\n      swap1\n      pop\n        /* \"#utility.yul\":8083:8116   */\n      tag_213\n        /* \"#utility.yul\":8110:8115   */\n      dup2\n        /* \"#utility.yul\":8083:8116   */\n      tag_88\n      jump\t// in\n    tag_213:\n        /* \"#utility.yul\":7979:8122   */\n      swap3\n      swap2\n      pop\n      pop\n      jump\t// out\n        /* \"#utility.yul\":8128:8629   */\n    tag_37:\n        /* \"#utility.yul\":8204:8210   */\n      0x00\n        /* \"#utility.yul\":8212:8218   */\n      dup1\n        /* \"#utility.yul\":8261:8263   */\n      0x40\n        /* \"#utility.yul\":8249:8258   */\n      dup4\n        /* \"#utility.yul\":8240:8247   */\n      dup6\n        /* \"#utility.yul\":8236:8259   */\n      sub\n        /* \"#utility.yul\":8232:8264   */\n      slt\n        /* \"#utility.yul\":8229:8348   */\n      iszero\n      tag_215\n      jumpi\n        /* \"#utility.yul\":8267:8346   */\n      tag_216\n      tag_65\n      jump\t// in\n    tag_216:\n        /* \"#utility.yul\":8229:8348   */\n    tag_215:\n        /* \"#utility.yul\":8387:8388   */\n      0x00\n        /* \"#utility.yul\":8412:8473   */\n      tag_217\n        /* \"#utility.yul\":8465:8472   */\n      dup6\n        /* \"#utility.yul\":8456:8462   */\n      dup3\n        /* \"#utility.yul\":8445:8454   */\n      dup7\n        /* \"#utility.yul\":8441:8463   */\n      add\n        /* \"#utility.yul\":8412:8473   */\n      tag_87\n      jump\t// in\n    tag_217:\n        /* \"#utility.yul\":8402:8473   */\n      swap3\n      pop\n        /* \"#utility.yul\":8358:8483   */\n      pop\n        /* \"#utility.yul\":8522:8524   */\n      0x20\n        /* \"#utility.yul\":8548:8612   */\n      tag_218\n        /* \"#utility.yul\":8604:8611   */\n      dup6\n        /* \"#utility.yul\":8595:8601   */\n      dup3\n        /* \"#utility.yul\":8584:8593   */\n      dup7\n        /* \"#utility.yul\":8580:8602   */\n      add\n        /* \"#utility.yul\":8548:8612   */\n      tag_89\n      jump\t// in\n    tag_218:\n        /* \"#utility.yul\":8538:8612   */\n      swap2\n      pop\n        /* \"#utility.yul\":8493:8622   */\n      pop\n        /* \"#utility.yul\":8128:8629   */\n      swap3\n      pop\n      swap3\n      swap1\n      pop\n      jump\t// out\n        /* \"#utility.yul\":8635:8804   */\n    tag_90:\n        /* \"#utility.yul\":8719:8730   */\n      0x00\n        /* \"#utility.yul\":8753:8759   */\n      dup3\n        /* \"#utility.yul\":8748:8751   */\n      dup3\n        /* \"#utility.yul\":8741:8760   */\n      mstore\n        /* \"#utility.yul\":8793:8797   */\n      0x20\n        /* \"#utility.yul\":8788:8791   */\n      dup3\n        /* \"#utility.yul\":8784:8798   */\n      add\n        /* \"#utility.yul\":8769:8798   */\n      swap1\n      pop\n        /* \"#utility.yul\":8635:8804   */\n      swap3\n      swap2\n      pop\n      pop\n      jump\t// out\n        /* \"#utility.yul\":8810:8973   */\n    tag_91:\n        /* \"#utility.yul\":8950:8965   */\n      0x496e76616c69642050726f6f6600000000000000000000000000000000000000\n        /* \"#utility.yul\":8946:8947   */\n      0x00\n        /* \"#utility.yul\":8938:8944   */\n      dup3\n        /* \"#utility.yul\":8934:8948   */\n      add\n        /* \"#utility.yul\":8927:8966   */\n      mstore\n        /* \"#utility.yul\":8810:8973   */\n      pop\n      jump\t// out\n        /* \"#utility.yul\":8979:9345   */\n    tag_92:\n        /* \"#utility.yul\":9121:9124   */\n      0x00\n        /* \"#utility.yul\":9142:9209   */\n      tag_222\n        /* \"#utility.yul\":9206:9208   */\n      0x0d\n        /* \"#utility.yul\":9201:9204   */\n      dup4\n        /* \"#utility.yul\":9142:9209   */\n      tag_90\n      jump\t// in\n    tag_222:\n        /* \"#utility.yul\":9135:9209   */\n      swap2\n      pop\n        /* \"#utility.yul\":9218:9311   */\n      tag_223\n        /* \"#utility.yul\":9307:9310   */\n      dup3\n        /* \"#utility.yul\":9218:9311   */\n      tag_91\n      jump\t// in\n    tag_223:\n        /* \"#utility.yul\":9336:9338   */\n      0x20\n        /* \"#utility.yul\":9331:9334   */\n      dup3\n        /* \"#utility.yul\":9327:9339   */\n      add\n        /* \"#utility.yul\":9320:9339   */\n      swap1\n      pop\n        /* \"#utility.yul\":8979:9345   */\n      swap2\n      swap1\n      pop\n      jump\t// out\n        /* \"#utility.yul\":9351:9770   */\n    tag_40:\n        /* \"#utility.yul\":9517:9521   */\n      0x00\n        /* \"#utility.yul\":9555:9557   */\n      0x20\n        /* \"#utility.yul\":9544:9553   */\n      dup3\n        /* \"#utility.yul\":9540:9558   */\n      add\n        /* \"#utility.yul\":9532:9558   */\n      swap1\n      pop\n        /* \"#utility.yul\":9604:9613   */\n      dup2\n        /* \"#utility.yul\":9598:9602   */\n      dup2\n        /* \"#utility.yul\":9594:9614   */\n      sub\n        /* \"#utility.yul\":9590:9591   */\n      0x00\n        /* \"#utility.yul\":9579:9588   */\n      dup4\n        /* \"#utility.yul\":9575:9592   */\n      add\n        /* \"#utility.yul\":9568:9615   */\n      mstore\n        /* \"#utility.yul\":9632:9763   */\n      tag_225\n        /* \"#utility.yul\":9758:9762   */\n      dup2\n        /* \"#utility.yul\":9632:9763   */\n      tag_92\n      jump\t// in\n    tag_225:\n        /* \"#utility.yul\":9624:9763   */\n      swap1\n      pop\n        /* \"#utility.yul\":9351:9770   */\n      swap2\n      swap1\n      pop\n      jump\t// out\n        /* \"#utility.yul\":9776:9941   */\n    tag_93:\n        /* \"#utility.yul\":9916:9933   */\n      0x4d616c6963696f757320436f6465210000000000000000000000000000000000\n        /* \"#utility.yul\":9912:9913   */\n      0x00\n        /* \"#utility.yul\":9904:9910   */\n      dup3\n        /* \"#utility.yul\":9900:9914   */\n      add\n        /* \"#utility.yul\":9893:9934   */\n      mstore\n        /* \"#utility.yul\":9776:9941   */\n      pop\n      jump\t// out\n        /* \"#utility.yul\":9947:10313   */\n    tag_94:\n        /* \"#utility.yul\":10089:10092   */\n      0x00\n        /* \"#utility.yul\":10110:10177   */\n      tag_228\n        /* \"#utility.yul\":10174:10176   */\n      0x0f\n        /* \"#utility.yul\":10169:10172   */\n      dup4\n        /* \"#utility.yul\":10110:10177   */\n      tag_90\n      jump\t// in\n    tag_228:\n        /* \"#utility.yul\":10103:10177   */\n      swap2\n      pop\n        /* \"#utility.yul\":10186:10279   */\n      tag_229\n        /* \"#utility.yul\":10275:10278   */\n      dup3\n        /* \"#utility.yul\":10186:10279   */\n      tag_93\n      jump\t// in\n    tag_229:\n        /* \"#utility.yul\":10304:10306   */\n      0x20\n        /* \"#utility.yul\":10299:10302   */\n      dup3\n        /* \"#utility.yul\":10295:10307   */\n      add\n        /* \"#utility.yul\":10288:10307   */\n      swap1\n      pop\n        /* \"#utility.yul\":9947:10313   */\n      swap2\n      swap1\n      pop\n      jump\t// out\n        /* \"#utility.yul\":10319:10738   */\n    tag_43:\n        /* \"#utility.yul\":10485:10489   */\n      0x00\n        /* \"#utility.yul\":10523:10525   */\n      0x20\n        /* \"#utility.yul\":10512:10521   */\n      dup3\n        /* \"#utility.yul\":10508:10526   */\n      add\n        /* \"#utility.yul\":10500:10526   */\n      swap1\n      pop\n        /* \"#utility.yul\":10572:10581   */\n      dup2\n        /* \"#utility.yul\":10566:10570   */\n      dup2\n        /* \"#utility.yul\":10562:10582   */\n      sub\n        /* \"#utility.yul\":10558:10559   */\n      0x00\n        /* \"#utility.yul\":10547:10556   */\n      dup4\n        /* \"#utility.yul\":10543:10560   */\n      add\n        /* \"#utility.yul\":10536:10583   */\n      mstore\n        /* \"#utility.yul\":10600:10731   */\n      tag_231\n        /* \"#utility.yul\":10726:10730   */\n      dup2\n        /* \"#utility.yul\":10600:10731   */\n      tag_94\n      jump\t// in\n    tag_231:\n        /* \"#utility.yul\":10592:10731   */\n      swap1\n      pop\n        /* \"#utility.yul\":10319:10738   */\n      swap2\n      swap1\n      pop\n      jump\t// out\n        /* \"#utility.yul\":10744:10866   */\n    tag_95:\n        /* \"#utility.yul\":10817:10841   */\n      tag_233\n        /* \"#utility.yul\":10835:10840   */\n      dup2\n        /* \"#utility.yul\":10817:10841   */\n      tag_57\n      jump\t// in\n    tag_233:\n        /* \"#utility.yul\":10810:10815   */\n      dup2\n        /* \"#utility.yul\":10807:10842   */\n      eq\n        /* \"#utility.yul\":10797:10860   */\n      tag_234\n      jumpi\n        /* \"#utility.yul\":10856:10857   */\n      0x00\n        /* \"#utility.yul\":10853:10854   */\n      dup1\n        /* \"#utility.yul\":10846:10858   */\n      revert\n        /* \"#utility.yul\":10797:10860   */\n    tag_234:\n        /* \"#utility.yul\":10744:10866   */\n      pop\n      jump\t// out\n        /* \"#utility.yul\":10872:11015   */\n    tag_96:\n        /* \"#utility.yul\":10929:10934   */\n      0x00\n        /* \"#utility.yul\":10960:10966   */\n      dup2\n        /* \"#utility.yul\":10954:10967   */\n      mload\n        /* \"#utility.yul\":10945:10967   */\n      swap1\n      pop\n        /* \"#utility.yul\":10976:11009   */\n      tag_236\n        /* \"#utility.yul\":11003:11008   */\n      dup2\n        /* \"#utility.yul\":10976:11009   */\n      tag_95\n      jump\t// in\n    tag_236:\n        /* \"#utility.yul\":10872:11015   */\n      swap3\n      swap2\n      pop\n      pop\n      jump\t// out\n        /* \"#utility.yul\":11021:11332   */\n    tag_97:\n        /* \"#utility.yul\":11098:11102   */\n      0x00\n        /* \"#utility.yul\":11188:11206   */\n      0xffffffffffffffff\n        /* \"#utility.yul\":11180:11186   */\n      dup3\n        /* \"#utility.yul\":11177:11207   */\n      gt\n        /* \"#utility.yul\":11174:11230   */\n      iszero\n      tag_238\n      jumpi\n        /* \"#utility.yul\":11210:11228   */\n      tag_239\n      tag_70\n      jump\t// in\n    tag_239:\n        /* \"#utility.yul\":11174:11230   */\n    tag_238:\n        /* \"#utility.yul\":11260:11264   */\n      0x20\n        /* \"#utility.yul\":11252:11258   */\n      dup3\n        /* \"#utility.yul\":11248:11265   */\n      mul\n        /* \"#utility.yul\":11240:11265   */\n      swap1\n      pop\n        /* \"#utility.yul\":11320:11324   */\n      0x20\n        /* \"#utility.yul\":11314:11318   */\n      dup2\n        /* \"#utility.yul\":11310:11325   */\n      add\n        /* \"#utility.yul\":11302:11325   */\n      swap1\n      pop\n        /* \"#utility.yul\":11021:11332   */\n      swap2\n      swap1\n      pop\n      jump\t// out\n        /* \"#utility.yul\":11338:11455   */\n    tag_98:\n        /* \"#utility.yul\":11447:11448   */\n      0x00\n        /* \"#utility.yul\":11444:11445   */\n      dup1\n        /* \"#utility.yul\":11437:11449   */\n      revert\n        /* \"#utility.yul\":11461:11583   */\n    tag_99:\n        /* \"#utility.yul\":11534:11558   */\n      tag_242\n        /* \"#utility.yul\":11552:11557   */\n      dup2\n        /* \"#utility.yul\":11534:11558   */\n      tag_55\n      jump\t// in\n    tag_242:\n        /* \"#utility.yul\":11527:11532   */\n      dup2\n        /* \"#utility.yul\":11524:11559   */\n      eq\n        /* \"#utility.yul\":11514:11577   */\n      tag_243\n      jumpi\n        /* \"#utility.yul\":11573:11574   */\n      0x00\n        /* \"#utility.yul\":11570:11571   */\n      dup1\n        /* \"#utility.yul\":11563:11575   */\n      revert\n        /* \"#utility.yul\":11514:11577   */\n    tag_243:\n        /* \"#utility.yul\":11461:11583   */\n      pop\n      jump\t// out\n        /* \"#utility.yul\":11589:11732   */\n    tag_100:\n        /* \"#utility.yul\":11646:11651   */\n      0x00\n        /* \"#utility.yul\":11677:11683   */\n      dup2\n        /* \"#utility.yul\":11671:11684   */\n      mload\n        /* \"#utility.yul\":11662:11684   */\n      swap1\n      pop\n        /* \"#utility.yul\":11693:11726   */\n      tag_245\n        /* \"#utility.yul\":11720:11725   */\n      dup2\n        /* \"#utility.yul\":11693:11726   */\n      tag_99\n      jump\t// in\n    tag_245:\n        /* \"#utility.yul\":11589:11732   */\n      swap3\n      swap2\n      pop\n      pop\n      jump\t// out\n        /* \"#utility.yul\":11755:12487   */\n    tag_101:\n        /* \"#utility.yul\":11862:11867   */\n      0x00\n        /* \"#utility.yul\":11887:11968   */\n      tag_247\n        /* \"#utility.yul\":11903:11967   */\n      tag_248\n        /* \"#utility.yul\":11960:11966   */\n      dup5\n        /* \"#utility.yul\":11903:11967   */\n      tag_97\n      jump\t// in\n    tag_248:\n        /* \"#utility.yul\":11887:11968   */\n      tag_72\n      jump\t// in\n    tag_247:\n        /* \"#utility.yul\":11878:11968   */\n      swap1\n      pop\n        /* \"#utility.yul\":11988:11993   */\n      dup1\n        /* \"#utility.yul\":12017:12023   */\n      dup4\n        /* \"#utility.yul\":12010:12015   */\n      dup3\n        /* \"#utility.yul\":12003:12024   */\n      mstore\n        /* \"#utility.yul\":12051:12055   */\n      0x20\n        /* \"#utility.yul\":12044:12049   */\n      dup3\n        /* \"#utility.yul\":12040:12056   */\n      add\n        /* \"#utility.yul\":12033:12056   */\n      swap1\n      pop\n        /* \"#utility.yul\":12104:12108   */\n      0x20\n        /* \"#utility.yul\":12096:12102   */\n      dup5\n        /* \"#utility.yul\":12092:12109   */\n      mul\n        /* \"#utility.yul\":12084:12090   */\n      dup4\n        /* \"#utility.yul\":12080:12110   */\n      add\n        /* \"#utility.yul\":12133:12136   */\n      dup6\n        /* \"#utility.yul\":12125:12131   */\n      dup2\n        /* \"#utility.yul\":12122:12137   */\n      gt\n        /* \"#utility.yul\":12119:12241   */\n      iszero\n      tag_249\n      jumpi\n        /* \"#utility.yul\":12152:12231   */\n      tag_250\n      tag_98\n      jump\t// in\n    tag_250:\n        /* \"#utility.yul\":12119:12241   */\n    tag_249:\n        /* \"#utility.yul\":12267:12273   */\n      dup4\n        /* \"#utility.yul\":12250:12481   */\n    tag_251:\n        /* \"#utility.yul\":12284:12290   */\n      dup2\n        /* \"#utility.yul\":12279:12282   */\n      dup2\n        /* \"#utility.yul\":12276:12291   */\n      lt\n        /* \"#utility.yul\":12250:12481   */\n      iszero\n      tag_253\n      jumpi\n        /* \"#utility.yul\":12359:12362   */\n      dup1\n        /* \"#utility.yul\":12388:12436   */\n      tag_254\n        /* \"#utility.yul\":12432:12435   */\n      dup9\n        /* \"#utility.yul\":12420:12430   */\n      dup3\n        /* \"#utility.yul\":12388:12436   */\n      tag_100\n      jump\t// in\n    tag_254:\n        /* \"#utility.yul\":12383:12386   */\n      dup5\n        /* \"#utility.yul\":12376:12437   */\n      mstore\n        /* \"#utility.yul\":12466:12470   */\n      0x20\n        /* \"#utility.yul\":12461:12464   */\n      dup5\n        /* \"#utility.yul\":12457:12471   */\n      add\n        /* \"#utility.yul\":12450:12471   */\n      swap4\n      pop\n        /* \"#utility.yul\":12326:12481   */\n      pop\n        /* \"#utility.yul\":12310:12314   */\n      0x20\n        /* \"#utility.yul\":12305:12308   */\n      dup2\n        /* \"#utility.yul\":12301:12315   */\n      add\n        /* \"#utility.yul\":12294:12315   */\n      swap1\n      pop\n        /* \"#utility.yul\":12250:12481   */\n      jump(tag_251)\n    tag_253:\n        /* \"#utility.yul\":12254:12275   */\n      pop\n        /* \"#utility.yul\":11868:12487   */\n      pop\n      pop\n        /* \"#utility.yul\":11755:12487   */\n      swap4\n      swap3\n      pop\n      pop\n      pop\n      jump\t// out\n        /* \"#utility.yul\":12510:12895   */\n    tag_102:\n        /* \"#utility.yul\":12592:12597   */\n      0x00\n        /* \"#utility.yul\":12641:12644   */\n      dup3\n        /* \"#utility.yul\":12634:12638   */\n      0x1f\n        /* \"#utility.yul\":12626:12632   */\n      dup4\n        /* \"#utility.yul\":12622:12639   */\n      add\n        /* \"#utility.yul\":12618:12645   */\n      slt\n        /* \"#utility.yul\":12608:12730   */\n      tag_256\n      jumpi\n        /* \"#utility.yul\":12649:12728   */\n      tag_257\n      tag_67\n      jump\t// in\n    tag_257:\n        /* \"#utility.yul\":12608:12730   */\n    tag_256:\n        /* \"#utility.yul\":12759:12765   */\n      dup2\n        /* \"#utility.yul\":12753:12766   */\n      mload\n        /* \"#utility.yul\":12784:12889   */\n      tag_258\n        /* \"#utility.yul\":12885:12888   */\n      dup5\n        /* \"#utility.yul\":12877:12883   */\n      dup3\n        /* \"#utility.yul\":12870:12874   */\n      0x20\n        /* \"#utility.yul\":12862:12868   */\n      dup7\n        /* \"#utility.yul\":12858:12875   */\n      add\n        /* \"#utility.yul\":12784:12889   */\n      tag_101\n      jump\t// in\n    tag_258:\n        /* \"#utility.yul\":12775:12889   */\n      swap2\n      pop\n        /* \"#utility.yul\":12598:12895   */\n      pop\n        /* \"#utility.yul\":12510:12895   */\n      swap3\n      swap2\n      pop\n      pop\n      jump\t// out\n        /* \"#utility.yul\":12901:13005   */\n    tag_103:\n        /* \"#utility.yul\":12946:12953   */\n      0x00\n        /* \"#utility.yul\":12975:12999   */\n      tag_260\n        /* \"#utility.yul\":12993:12998   */\n      dup3\n        /* \"#utility.yul\":12975:12999   */\n      tag_54\n      jump\t// in\n    tag_260:\n        /* \"#utility.yul\":12964:12999   */\n      swap1\n      pop\n        /* \"#utility.yul\":12901:13005   */\n      swap2\n      swap1\n      pop\n      jump\t// out\n        /* \"#utility.yul\":13011:13149   */\n    tag_104:\n        /* \"#utility.yul\":13092:13124   */\n      tag_262\n        /* \"#utility.yul\":13118:13123   */\n      dup2\n        /* \"#utility.yul\":13092:13124   */\n      tag_103\n      jump\t// in\n    tag_262:\n        /* \"#utility.yul\":13085:13090   */\n      dup2\n        /* \"#utility.yul\":13082:13125   */\n      eq\n        /* \"#utility.yul\":13072:13143   */\n      tag_263\n      jumpi\n        /* \"#utility.yul\":13139:13140   */\n      0x00\n        /* \"#utility.yul\":13136:13137   */\n      dup1\n        /* \"#utility.yul\":13129:13141   */\n      revert\n        /* \"#utility.yul\":13072:13143   */\n    tag_263:\n        /* \"#utility.yul\":13011:13149   */\n      pop\n      jump\t// out\n        /* \"#utility.yul\":13155:13314   */\n    tag_105:\n        /* \"#utility.yul\":13220:13225   */\n      0x00\n        /* \"#utility.yul\":13251:13257   */\n      dup2\n        /* \"#utility.yul\":13245:13258   */\n      mload\n        /* \"#utility.yul\":13236:13258   */\n      swap1\n      pop\n        /* \"#utility.yul\":13267:13308   */\n      tag_265\n        /* \"#utility.yul\":13302:13307   */\n      dup2\n        /* \"#utility.yul\":13267:13308   */\n      tag_104\n      jump\t// in\n    tag_265:\n        /* \"#utility.yul\":13155:13314   */\n      swap3\n      swap2\n      pop\n      pop\n      jump\t// out\n        /* \"#utility.yul\":13320:14516   */\n    tag_45:\n        /* \"#utility.yul\":13459:13465   */\n      0x00\n        /* \"#utility.yul\":13467:13473   */\n      dup1\n        /* \"#utility.yul\":13475:13481   */\n      0x00\n        /* \"#utility.yul\":13483:13489   */\n      dup1\n        /* \"#utility.yul\":13491:13497   */\n      0x00\n        /* \"#utility.yul\":13540:13543   */\n      0xa0\n        /* \"#utility.yul\":13528:13537   */\n      dup7\n        /* \"#utility.yul\":13519:13526   */\n      dup9\n        /* \"#utility.yul\":13515:13538   */\n      sub\n        /* \"#utility.yul\":13511:13544   */\n      slt\n        /* \"#utility.yul\":13508:13628   */\n      iszero\n      tag_267\n      jumpi\n        /* \"#utility.yul\":13547:13626   */\n      tag_268\n      tag_65\n      jump\t// in\n    tag_268:\n        /* \"#utility.yul\":13508:13628   */\n    tag_267:\n        /* \"#utility.yul\":13667:13668   */\n      0x00\n        /* \"#utility.yul\":13692:13756   */\n      tag_269\n        /* \"#utility.yul\":13748:13755   */\n      dup9\n        /* \"#utility.yul\":13739:13745   */\n      dup3\n        /* \"#utility.yul\":13728:13737   */\n      dup10\n        /* \"#utility.yul\":13724:13746   */\n      add\n        /* \"#utility.yul\":13692:13756   */\n      tag_96\n      jump\t// in\n    tag_269:\n        /* \"#utility.yul\":13682:13756   */\n      swap6\n      pop\n        /* \"#utility.yul\":13638:13766   */\n      pop\n        /* \"#utility.yul\":13805:13807   */\n      0x20\n        /* \"#utility.yul\":13831:13895   */\n      tag_270\n        /* \"#utility.yul\":13887:13894   */\n      dup9\n        /* \"#utility.yul\":13878:13884   */\n      dup3\n        /* \"#utility.yul\":13867:13876   */\n      dup10\n        /* \"#utility.yul\":13863:13885   */\n      add\n        /* \"#utility.yul\":13831:13895   */\n      tag_96\n      jump\t// in\n    tag_270:\n        /* \"#utility.yul\":13821:13895   */\n      swap5\n      pop\n        /* \"#utility.yul\":13776:13905   */\n      pop\n        /* \"#utility.yul\":13965:13967   */\n      0x40\n        /* \"#utility.yul\":13954:13963   */\n      dup7\n        /* \"#utility.yul\":13950:13968   */\n      add\n        /* \"#utility.yul\":13944:13969   */\n      mload\n        /* \"#utility.yul\":13996:14014   */\n      0xffffffffffffffff\n        /* \"#utility.yul\":13988:13994   */\n      dup2\n        /* \"#utility.yul\":13985:14015   */\n      gt\n        /* \"#utility.yul\":13982:14099   */\n      iszero\n      tag_271\n      jumpi\n        /* \"#utility.yul\":14018:14097   */\n      tag_272\n      tag_66\n      jump\t// in\n    tag_272:\n        /* \"#utility.yul\":13982:14099   */\n    tag_271:\n        /* \"#utility.yul\":14123:14212   */\n      tag_273\n        /* \"#utility.yul\":14204:14211   */\n      dup9\n        /* \"#utility.yul\":14195:14201   */\n      dup3\n        /* \"#utility.yul\":14184:14193   */\n      dup10\n        /* \"#utility.yul\":14180:14202   */\n      add\n        /* \"#utility.yul\":14123:14212   */\n      tag_102\n      jump\t// in\n    tag_273:\n        /* \"#utility.yul\":14113:14212   */\n      swap4\n      pop\n        /* \"#utility.yul\":13915:14222   */\n      pop\n        /* \"#utility.yul\":14261:14263   */\n      0x60\n        /* \"#utility.yul\":14287:14359   */\n      tag_274\n        /* \"#utility.yul\":14351:14358   */\n      dup9\n        /* \"#utility.yul\":14342:14348   */\n      dup3\n        /* \"#utility.yul\":14331:14340   */\n      dup10\n        /* \"#utility.yul\":14327:14349   */\n      add\n        /* \"#utility.yul\":14287:14359   */\n      tag_105\n      jump\t// in\n    tag_274:\n        /* \"#utility.yul\":14277:14359   */\n      swap3\n      pop\n        /* \"#utility.yul\":14232:14369   */\n      pop\n        /* \"#utility.yul\":14408:14411   */\n      0x80\n        /* \"#utility.yul\":14435:14499   */\n      tag_275\n        /* \"#utility.yul\":14491:14498   */\n      dup9\n        /* \"#utility.yul\":14482:14488   */\n      dup3\n        /* \"#utility.yul\":14471:14480   */\n      dup10\n        /* \"#utility.yul\":14467:14489   */\n      add\n        /* \"#utility.yul\":14435:14499   */\n      tag_96\n      jump\t// in\n    tag_275:\n        /* \"#utility.yul\":14425:14499   */\n      swap2\n      pop\n        /* \"#utility.yul\":14379:14509   */\n      pop\n        /* \"#utility.yul\":13320:14516   */\n      swap3\n      swap6\n      pop\n      swap3\n      swap6\n      swap1\n      swap4\n      pop\n      jump\t// out\n        /* \"#utility.yul\":14522:14636   */\n    tag_106:\n        /* \"#utility.yul\":14589:14595   */\n      0x00\n        /* \"#utility.yul\":14623:14628   */\n      dup2\n        /* \"#utility.yul\":14617:14629   */\n      mload\n        /* \"#utility.yul\":14607:14629   */\n      swap1\n      pop\n        /* \"#utility.yul\":14522:14636   */\n      swap2\n      swap1\n      pop\n      jump\t// out\n        /* \"#utility.yul\":14642:14826   */\n    tag_107:\n        /* \"#utility.yul\":14741:14752   */\n      0x00\n        /* \"#utility.yul\":14775:14781   */\n      dup3\n        /* \"#utility.yul\":14770:14773   */\n      dup3\n        /* \"#utility.yul\":14763:14782   */\n      mstore\n        /* \"#utility.yul\":14815:14819   */\n      0x20\n        /* \"#utility.yul\":14810:14813   */\n      dup3\n        /* \"#utility.yul\":14806:14820   */\n      add\n        /* \"#utility.yul\":14791:14820   */\n      swap1\n      pop\n        /* \"#utility.yul\":14642:14826   */\n      swap3\n      swap2\n      pop\n      pop\n      jump\t// out\n        /* \"#utility.yul\":14832:14964   */\n    tag_108:\n        /* \"#utility.yul\":14899:14903   */\n      0x00\n        /* \"#utility.yul\":14922:14925   */\n      dup2\n        /* \"#utility.yul\":14914:14925   */\n      swap1\n      pop\n        /* \"#utility.yul\":14952:14956   */\n      0x20\n        /* \"#utility.yul\":14947:14950   */\n      dup3\n        /* \"#utility.yul\":14943:14957   */\n      add\n        /* \"#utility.yul\":14935:14957   */\n      swap1\n      pop\n        /* \"#utility.yul\":14832:14964   */\n      swap2\n      swap1\n      pop\n      jump\t// out\n        /* \"#utility.yul\":14970:15078   */\n    tag_109:\n        /* \"#utility.yul\":15047:15071   */\n      tag_280\n        /* \"#utility.yul\":15065:15070   */\n      dup2\n        /* \"#utility.yul\":15047:15071   */\n      tag_55\n      jump\t// in\n    tag_280:\n        /* \"#utility.yul\":15042:15045   */\n      dup3\n        /* \"#utility.yul\":15035:15072   */\n      mstore\n        /* \"#utility.yul\":14970:15078   */\n      pop\n      pop\n      jump\t// out\n        /* \"#utility.yul\":15084:15263   */\n    tag_110:\n        /* \"#utility.yul\":15153:15163   */\n      0x00\n        /* \"#utility.yul\":15174:15220   */\n      tag_282\n        /* \"#utility.yul\":15216:15219   */\n      dup4\n        /* \"#utility.yul\":15208:15214   */\n      dup4\n        /* \"#utility.yul\":15174:15220   */\n      tag_109\n      jump\t// in\n    tag_282:\n        /* \"#utility.yul\":15252:15256   */\n      0x20\n        /* \"#utility.yul\":15247:15250   */\n      dup4\n        /* \"#utility.yul\":15243:15257   */\n      add\n        /* \"#utility.yul\":15229:15257   */\n      swap1\n      pop\n        /* \"#utility.yul\":15084:15263   */\n      swap3\n      swap2\n      pop\n      pop\n      jump\t// out\n        /* \"#utility.yul\":15269:15382   */\n    tag_111:\n        /* \"#utility.yul\":15339:15343   */\n      0x00\n        /* \"#utility.yul\":15371:15375   */\n      0x20\n        /* \"#utility.yul\":15366:15369   */\n      dup3\n        /* \"#utility.yul\":15362:15376   */\n      add\n        /* \"#utility.yul\":15354:15376   */\n      swap1\n      pop\n        /* \"#utility.yul\":15269:15382   */\n      swap2\n      swap1\n      pop\n      jump\t// out\n        /* \"#utility.yul\":15418:16150   */\n    tag_112:\n        /* \"#utility.yul\":15537:15540   */\n      0x00\n        /* \"#utility.yul\":15566:15620   */\n      tag_285\n        /* \"#utility.yul\":15614:15619   */\n      dup3\n        /* \"#utility.yul\":15566:15620   */\n      tag_106\n      jump\t// in\n    tag_285:\n        /* \"#utility.yul\":15636:15722   */\n      tag_286\n        /* \"#utility.yul\":15715:15721   */\n      dup2\n        /* \"#utility.yul\":15710:15713   */\n      dup6\n        /* \"#utility.yul\":15636:15722   */\n      tag_107\n      jump\t// in\n    tag_286:\n        /* \"#utility.yul\":15629:15722   */\n      swap4\n      pop\n        /* \"#utility.yul\":15746:15802   */\n      tag_287\n        /* \"#utility.yul\":15796:15801   */\n      dup4\n        /* \"#utility.yul\":15746:15802   */\n      tag_108\n      jump\t// in\n    tag_287:\n        /* \"#utility.yul\":15825:15832   */\n      dup1\n        /* \"#utility.yul\":15856:15857   */\n      0x00\n        /* \"#utility.yul\":15841:16125   */\n    tag_288:\n        /* \"#utility.yul\":15866:15872   */\n      dup4\n        /* \"#utility.yul\":15863:15864   */\n      dup2\n        /* \"#utility.yul\":15860:15873   */\n      lt\n        /* \"#utility.yul\":15841:16125   */\n      iszero\n      tag_290\n      jumpi\n        /* \"#utility.yul\":15942:15948   */\n      dup2\n        /* \"#utility.yul\":15936:15949   */\n      mload\n        /* \"#utility.yul\":15969:16032   */\n      tag_291\n        /* \"#utility.yul\":16028:16031   */\n      dup9\n        /* \"#utility.yul\":16013:16026   */\n      dup3\n        /* \"#utility.yul\":15969:16032   */\n      tag_110\n      jump\t// in\n    tag_291:\n        /* \"#utility.yul\":15962:16032   */\n      swap8\n      pop\n        /* \"#utility.yul\":16055:16115   */\n      tag_292\n        /* \"#utility.yul\":16108:16114   */\n      dup4\n        /* \"#utility.yul\":16055:16115   */\n      tag_111\n      jump\t// in\n    tag_292:\n        /* \"#utility.yul\":16045:16115   */\n      swap3\n      pop\n        /* \"#utility.yul\":15901:16125   */\n      pop\n        /* \"#utility.yul\":15888:15889   */\n      0x01\n        /* \"#utility.yul\":15885:15886   */\n      dup2\n        /* \"#utility.yul\":15881:15890   */\n      add\n        /* \"#utility.yul\":15876:15890   */\n      swap1\n      pop\n        /* \"#utility.yul\":15841:16125   */\n      jump(tag_288)\n    tag_290:\n        /* \"#utility.yul\":15845:15859   */\n      pop\n        /* \"#utility.yul\":16141:16144   */\n      dup6\n        /* \"#utility.yul\":16134:16144   */\n      swap4\n      pop\n        /* \"#utility.yul\":15542:16150   */\n      pop\n      pop\n      pop\n        /* \"#utility.yul\":15418:16150   */\n      swap3\n      swap2\n      pop\n      pop\n      jump\t// out\n        /* \"#utility.yul\":16156:16860   */\n    tag_47:\n        /* \"#utility.yul\":16383:16387   */\n      0x00\n        /* \"#utility.yul\":16421:16424   */\n      0x80\n        /* \"#utility.yul\":16410:16419   */\n      dup3\n        /* \"#utility.yul\":16406:16425   */\n      add\n        /* \"#utility.yul\":16398:16425   */\n      swap1\n      pop\n        /* \"#utility.yul\":16435:16506   */\n      tag_294\n        /* \"#utility.yul\":16503:16504   */\n      0x00\n        /* \"#utility.yul\":16492:16501   */\n      dup4\n        /* \"#utility.yul\":16488:16505   */\n      add\n        /* \"#utility.yul\":16479:16485   */\n      dup8\n        /* \"#utility.yul\":16435:16506   */\n      tag_58\n      jump\t// in\n    tag_294:\n        /* \"#utility.yul\":16553:16562   */\n      dup2\n        /* \"#utility.yul\":16547:16551   */\n      dup2\n        /* \"#utility.yul\":16543:16563   */\n      sub\n        /* \"#utility.yul\":16538:16540   */\n      0x20\n        /* \"#utility.yul\":16527:16536   */\n      dup4\n        /* \"#utility.yul\":16523:16541   */\n      add\n        /* \"#utility.yul\":16516:16564   */\n      mstore\n        /* \"#utility.yul\":16581:16689   */\n      tag_295\n        /* \"#utility.yul\":16684:16688   */\n      dup2\n        /* \"#utility.yul\":16675:16681   */\n      dup7\n        /* \"#utility.yul\":16581:16689   */\n      tag_112\n      jump\t// in\n    tag_295:\n        /* \"#utility.yul\":16573:16689   */\n      swap1\n      pop\n        /* \"#utility.yul\":16699:16771   */\n      tag_296\n        /* \"#utility.yul\":16767:16769   */\n      0x40\n        /* \"#utility.yul\":16756:16765   */\n      dup4\n        /* \"#utility.yul\":16752:16770   */\n      add\n        /* \"#utility.yul\":16743:16749   */\n      dup6\n        /* \"#utility.yul\":16699:16771   */\n      tag_56\n      jump\t// in\n    tag_296:\n        /* \"#utility.yul\":16781:16853   */\n      tag_297\n        /* \"#utility.yul\":16849:16851   */\n      0x60\n        /* \"#utility.yul\":16838:16847   */\n      dup4\n        /* \"#utility.yul\":16834:16852   */\n      add\n        /* \"#utility.yul\":16825:16831   */\n      dup5\n        /* \"#utility.yul\":16781:16853   */\n      tag_58\n      jump\t// in\n    tag_297:\n        /* \"#utility.yul\":16156:16860   */\n      swap6\n      swap5\n      pop\n      pop\n      pop\n      pop\n      pop\n      jump\t// out\n        /* \"#utility.yul\":16866:17177   */\n    tag_113:\n        /* \"#utility.yul\":16943:16947   */\n      0x00\n        /* \"#utility.yul\":17033:17051   */\n      0xffffffffffffffff\n        /* \"#utility.yul\":17025:17031   */\n      dup3\n        /* \"#utility.yul\":17022:17052   */\n      gt\n        /* \"#utility.yul\":17019:17075   */\n      iszero\n      tag_299\n      jumpi\n        /* \"#utility.yul\":17055:17073   */\n      tag_300\n      tag_70\n      jump\t// in\n    tag_300:\n        /* \"#utility.yul\":17019:17075   */\n    tag_299:\n        /* \"#utility.yul\":17105:17109   */\n      0x20\n        /* \"#utility.yul\":17097:17103   */\n      dup3\n        /* \"#utility.yul\":17093:17110   */\n      mul\n        /* \"#utility.yul\":17085:17110   */\n      swap1\n      pop\n        /* \"#utility.yul\":17165:17169   */\n      0x20\n        /* \"#utility.yul\":17159:17163   */\n      dup2\n        /* \"#utility.yul\":17155:17170   */\n      add\n        /* \"#utility.yul\":17147:17170   */\n      swap1\n      pop\n        /* \"#utility.yul\":16866:17177   */\n      swap2\n      swap1\n      pop\n      jump\t// out\n        /* \"#utility.yul\":17200:17932   */\n    tag_114:\n        /* \"#utility.yul\":17307:17312   */\n      0x00\n        /* \"#utility.yul\":17332:17413   */\n      tag_302\n        /* \"#utility.yul\":17348:17412   */\n      tag_303\n        /* \"#utility.yul\":17405:17411   */\n      dup5\n        /* \"#utility.yul\":17348:17412   */\n      tag_113\n      jump\t// in\n    tag_303:\n        /* \"#utility.yul\":17332:17413   */\n      tag_72\n      jump\t// in\n    tag_302:\n        /* \"#utility.yul\":17323:17413   */\n      swap1\n      pop\n        /* \"#utility.yul\":17433:17438   */\n      dup1\n        /* \"#utility.yul\":17462:17468   */\n      dup4\n        /* \"#utility.yul\":17455:17460   */\n      dup3\n        /* \"#utility.yul\":17448:17469   */\n      mstore\n        /* \"#utility.yul\":17496:17500   */\n      0x20\n        /* \"#utility.yul\":17489:17494   */\n      dup3\n        /* \"#utility.yul\":17485:17501   */\n      add\n        /* \"#utility.yul\":17478:17501   */\n      swap1\n      pop\n        /* \"#utility.yul\":17549:17553   */\n      0x20\n        /* \"#utility.yul\":17541:17547   */\n      dup5\n        /* \"#utility.yul\":17537:17554   */\n      mul\n        /* \"#utility.yul\":17529:17535   */\n      dup4\n        /* \"#utility.yul\":17525:17555   */\n      add\n        /* \"#utility.yul\":17578:17581   */\n      dup6\n        /* \"#utility.yul\":17570:17576   */\n      dup2\n        /* \"#utility.yul\":17567:17582   */\n      gt\n        /* \"#utility.yul\":17564:17686   */\n      iszero\n      tag_304\n      jumpi\n        /* \"#utility.yul\":17597:17676   */\n      tag_305\n      tag_98\n      jump\t// in\n    tag_305:\n        /* \"#utility.yul\":17564:17686   */\n    tag_304:\n        /* \"#utility.yul\":17712:17718   */\n      dup4\n        /* \"#utility.yul\":17695:17926   */\n    tag_306:\n        /* \"#utility.yul\":17729:17735   */\n      dup2\n        /* \"#utility.yul\":17724:17727   */\n      dup2\n        /* \"#utility.yul\":17721:17736   */\n      lt\n        /* \"#utility.yul\":17695:17926   */\n      iszero\n      tag_308\n      jumpi\n        /* \"#utility.yul\":17804:17807   */\n      dup1\n        /* \"#utility.yul\":17833:17881   */\n      tag_309\n        /* \"#utility.yul\":17877:17880   */\n      dup9\n        /* \"#utility.yul\":17865:17875   */\n      dup3\n        /* \"#utility.yul\":17833:17881   */\n      tag_96\n      jump\t// in\n    tag_309:\n        /* \"#utility.yul\":17828:17831   */\n      dup5\n        /* \"#utility.yul\":17821:17882   */\n      mstore\n        /* \"#utility.yul\":17911:17915   */\n      0x20\n        /* \"#utility.yul\":17906:17909   */\n      dup5\n        /* \"#utility.yul\":17902:17916   */\n      add\n        /* \"#utility.yul\":17895:17916   */\n      swap4\n      pop\n        /* \"#utility.yul\":17771:17926   */\n      pop\n        /* \"#utility.yul\":17755:17759   */\n      0x20\n        /* \"#utility.yul\":17750:17753   */\n      dup2\n        /* \"#utility.yul\":17746:17760   */\n      add\n        /* \"#utility.yul\":17739:17760   */\n      swap1\n      pop\n        /* \"#utility.yul\":17695:17926   */\n      jump(tag_306)\n    tag_308:\n        /* \"#utility.yul\":17699:17720   */\n      pop\n        /* \"#utility.yul\":17313:17932   */\n      pop\n      pop\n        /* \"#utility.yul\":17200:17932   */\n      swap4\n      swap3\n      pop\n      pop\n      pop\n      jump\t// out\n        /* \"#utility.yul\":17955:18340   */\n    tag_115:\n        /* \"#utility.yul\":18037:18042   */\n      0x00\n        /* \"#utility.yul\":18086:18089   */\n      dup3\n        /* \"#utility.yul\":18079:18083   */\n      0x1f\n        /* \"#utility.yul\":18071:18077   */\n      dup4\n        /* \"#utility.yul\":18067:18084   */\n      add\n        /* \"#utility.yul\":18063:18090   */\n      slt\n        /* \"#utility.yul\":18053:18175   */\n      tag_311\n      jumpi\n        /* \"#utility.yul\":18094:18173   */\n      tag_312\n      tag_67\n      jump\t// in\n    tag_312:\n        /* \"#utility.yul\":18053:18175   */\n    tag_311:\n        /* \"#utility.yul\":18204:18210   */\n      dup2\n        /* \"#utility.yul\":18198:18211   */\n      mload\n        /* \"#utility.yul\":18229:18334   */\n      tag_313\n        /* \"#utility.yul\":18330:18333   */\n      dup5\n        /* \"#utility.yul\":18322:18328   */\n      dup3\n        /* \"#utility.yul\":18315:18319   */\n      0x20\n        /* \"#utility.yul\":18307:18313   */\n      dup7\n        /* \"#utility.yul\":18303:18320   */\n      add\n        /* \"#utility.yul\":18229:18334   */\n      tag_114\n      jump\t// in\n    tag_313:\n        /* \"#utility.yul\":18220:18334   */\n      swap2\n      pop\n        /* \"#utility.yul\":18043:18340   */\n      pop\n        /* \"#utility.yul\":17955:18340   */\n      swap3\n      swap2\n      pop\n      pop\n      jump\t// out\n        /* \"#utility.yul\":18346:18900   */\n    tag_51:\n        /* \"#utility.yul\":18441:18447   */\n      0x00\n        /* \"#utility.yul\":18490:18492   */\n      0x20\n        /* \"#utility.yul\":18478:18487   */\n      dup3\n        /* \"#utility.yul\":18469:18476   */\n      dup5\n        /* \"#utility.yul\":18465:18488   */\n      sub\n        /* \"#utility.yul\":18461:18493   */\n      slt\n        /* \"#utility.yul\":18458:18577   */\n      iszero\n      tag_315\n      jumpi\n        /* \"#utility.yul\":18496:18575   */\n      tag_316\n      tag_65\n      jump\t// in\n    tag_316:\n        /* \"#utility.yul\":18458:18577   */\n    tag_315:\n        /* \"#utility.yul\":18637:18638   */\n      0x00\n        /* \"#utility.yul\":18626:18635   */\n      dup3\n        /* \"#utility.yul\":18622:18639   */\n      add\n        /* \"#utility.yul\":18616:18640   */\n      mload\n        /* \"#utility.yul\":18667:18685   */\n      0xffffffffffffffff\n        /* \"#utility.yul\":18659:18665   */\n      dup2\n        /* \"#utility.yul\":18656:18686   */\n      gt\n        /* \"#utility.yul\":18653:18770   */\n      iszero\n      tag_317\n      jumpi\n        /* \"#utility.yul\":18689:18768   */\n      tag_318\n      tag_66\n      jump\t// in\n    tag_318:\n        /* \"#utility.yul\":18653:18770   */\n    tag_317:\n        /* \"#utility.yul\":18794:18883   */\n      tag_319\n        /* \"#utility.yul\":18875:18882   */\n      dup5\n        /* \"#utility.yul\":18866:18872   */\n      dup3\n        /* \"#utility.yul\":18855:18864   */\n      dup6\n        /* \"#utility.yul\":18851:18873   */\n      add\n        /* \"#utility.yul\":18794:18883   */\n      tag_115\n      jump\t// in\n    tag_319:\n        /* \"#utility.yul\":18784:18883   */\n      swap2\n      pop\n        /* \"#utility.yul\":18587:18893   */\n      pop\n        /* \"#utility.yul\":18346:18900   */\n      swap3\n      swap2\n      pop\n      pop\n      jump\t// out\n        /* \"#utility.yul\":18906:19412   */\n    tag_53:\n        /* \"#utility.yul\":19063:19067   */\n      0x00\n        /* \"#utility.yul\":19101:19103   */\n      0x40\n        /* \"#utility.yul\":19090:19099   */\n      dup3\n        /* \"#utility.yul\":19086:19104   */\n      add\n        /* \"#utility.yul\":19078:19104   */\n      swap1\n      pop\n        /* \"#utility.yul\":19150:19159   */\n      dup2\n        /* \"#utility.yul\":19144:19148   */\n      dup2\n        /* \"#utility.yul\":19140:19160   */\n      sub\n        /* \"#utility.yul\":19136:19137   */\n      0x00\n        /* \"#utility.yul\":19125:19134   */\n      dup4\n        /* \"#utility.yul\":19121:19138   */\n      add\n        /* \"#utility.yul\":19114:19161   */\n      mstore\n        /* \"#utility.yul\":19178:19254   */\n      tag_321\n        /* \"#utility.yul\":19249:19253   */\n      dup2\n        /* \"#utility.yul\":19240:19246   */\n      dup6\n        /* \"#utility.yul\":19178:19254   */\n      tag_84\n      jump\t// in\n    tag_321:\n        /* \"#utility.yul\":19170:19254   */\n      swap1\n      pop\n        /* \"#utility.yul\":19301:19310   */\n      dup2\n        /* \"#utility.yul\":19295:19299   */\n      dup2\n        /* \"#utility.yul\":19291:19311   */\n      sub\n        /* \"#utility.yul\":19286:19288   */\n      0x20\n        /* \"#utility.yul\":19275:19284   */\n      dup4\n        /* \"#utility.yul\":19271:19289   */\n      add\n        /* \"#utility.yul\":19264:19312   */\n      mstore\n        /* \"#utility.yul\":19329:19405   */\n      tag_322\n        /* \"#utility.yul\":19400:19404   */\n      dup2\n        /* \"#utility.yul\":19391:19397   */\n      dup5\n        /* \"#utility.yul\":19329:19405   */\n      tag_84\n      jump\t// in\n    tag_322:\n        /* \"#utility.yul\":19321:19405   */\n      swap1\n      pop\n        /* \"#utility.yul\":18906:19412   */\n      swap4\n      swap3\n      pop\n      pop\n      pop\n      jump\t// out\n\n    auxdata: 0xa2646970667358221220481bcc94b8793ff7e30023ce0d9e6c264180ad633e5caf5a8648ef5ee1aff35764736f6c63430008140033\n}\n",
    "bytecode": {
      "linkReferences": {},
      "object": "608060405234801561000f575f80fd5b5060405162000eda38038062000eda83398181016040528101906100339190610117565b815f806101000a81548173ffffffffffffffffffffffffffffffffffffffff021916908373ffffffffffffffffffffffffffffffffffffffff1602179055508060015f6101000a81548173ffffffffffffffffffffffffffffffffffffffff021916908373ffffffffffffffffffffffffffffffffffffffff1602179055505050610155565b5f80fd5b5f73ffffffffffffffffffffffffffffffffffffffff82169050919050565b5f6100e6826100bd565b9050919050565b6100f6816100dc565b8114610100575f80fd5b50565b5f81519050610111816100ed565b92915050565b5f806040838503121561012d5761012c6100b9565b5b5f61013a85828601610103565b925050602061014b85828601610103565b9150509250929050565b610d7780620001635f395ff3fe608060405260043610610042575f3560e01c80633275f21c1461008657806334090736146100b0578063692058c2146100d857806372a5b94a1461010257610082565b36610082577f8e47b87b0ef542cdfa1659c551d88bad38aa7f452d2bbb349ab7530dfec8be8f333460405161007892919061043f565b60405180910390a1005b5f80fd5b348015610091575f80fd5b5061009a61012c565b6040516100a791906104c1565b60405180910390f35b3480156100bb575f80fd5b506100d660048036038101906100d19190610627565b61014f565b005b3480156100e3575f80fd5b506100ec61039d565b6040516100f991906106bd565b60405180910390f35b34801561010d575f80fd5b506101166103c2565b60405161012391906106ee565b60405180910390f35b5f8054906101000a900473ffffffffffffffffffffffffffffffffffffffff1681565b5f805f8054906101000a900473ffffffffffffffffffffffffffffffffffffffff1673ffffffffffffffffffffffffffffffffffffffff16638e760afe846040518263ffffffff1660e01b81526004016101a99190610781565b60408051808303815f875af11580156101c4573d5f803e3d5ffd5b505050506040513d601f19601f820116820180604052508101906101e89190610800565b915091508161022c576040517f08c379a000000000000000000000000000000000000000000000000000000000815260040161022390610898565b60405180910390fd5b7f5c8e81f910c11c92e5161cc307365be246f6db5b72a9868fb73516337268e6d15f1b8114610290576040517f08c379a000000000000000000000000000000000000000000000000000000000815260040161028790610900565b60405180910390fd5b5f805f805f888060200190518101906102a99190610a71565b9450945094509450945060015f9054906101000a900473ffffffffffffffffffffffffffffffffffffffff1673ffffffffffffffffffffffffffffffffffffffff16637ff36ab586868686866040518663ffffffff1660e01b81526004016103149493929190610bbb565b5f6040518083038185885af115801561032f573d5f803e3d5ffd5b50505050506040513d5f823e3d601f19601f820116820180604052508101906103589190610cc5565b507f397d11b4929878dd685d13e5f9d6120cd5e6089f9e6a87da385873b54e20dd9b898960405161038a929190610d0c565b60405180910390a1505050505050505050565b60015f9054906101000a900473ffffffffffffffffffffffffffffffffffffffff1681565b7f5c8e81f910c11c92e5161cc307365be246f6db5b72a9868fb73516337268e6d15f1b81565b5f73ffffffffffffffffffffffffffffffffffffffff82169050919050565b5f610411826103e8565b9050919050565b61042181610407565b82525050565b5f819050919050565b61043981610427565b82525050565b5f6040820190506104525f830185610418565b61045f6020830184610430565b9392505050565b5f819050919050565b5f61048961048461047f846103e8565b610466565b6103e8565b9050919050565b5f61049a8261046f565b9050919050565b5f6104ab82610490565b9050919050565b6104bb816104a1565b82525050565b5f6020820190506104d45f8301846104b2565b92915050565b5f604051905090565b5f80fd5b5f80fd5b5f80fd5b5f80fd5b5f601f19601f8301169050919050565b7f4e487b71000000000000000000000000000000000000000000000000000000005f52604160045260245ffd5b610539826104f3565b810181811067ffffffffffffffff8211171561055857610557610503565b5b80604052505050565b5f61056a6104da565b90506105768282610530565b919050565b5f67ffffffffffffffff82111561059557610594610503565b5b61059e826104f3565b9050602081019050919050565b828183375f83830152505050565b5f6105cb6105c68461057b565b610561565b9050828152602081018484840111156105e7576105e66104ef565b5b6105f28482856105ab565b509392505050565b5f82601f83011261060e5761060d6104eb565b5b813561061e8482602086016105b9565b91505092915050565b5f806040838503121561063d5761063c6104e3565b5b5f83013567ffffffffffffffff81111561065a576106596104e7565b5b610666858286016105fa565b925050602083013567ffffffffffffffff811115610687576106866104e7565b5b610693858286016105fa565b9150509250929050565b5f6106a782610490565b9050919050565b6106b78161069d565b82525050565b5f6020820190506106d05f8301846106ae565b92915050565b5f819050919050565b6106e8816106d6565b82525050565b5f6020820190506107015f8301846106df565b92915050565b5f81519050919050565b5f82825260208201905092915050565b5f5b8381101561073e578082015181840152602081019050610723565b5f8484015250505050565b5f61075382610707565b61075d8185610711565b935061076d818560208601610721565b610776816104f3565b840191505092915050565b5f6020820190508181035f8301526107998184610749565b905092915050565b5f8115159050919050565b6107b5816107a1565b81146107bf575f80fd5b50565b5f815190506107d0816107ac565b92915050565b6107df816106d6565b81146107e9575f80fd5b50565b5f815190506107fa816107d6565b92915050565b5f8060408385031215610816576108156104e3565b5b5f610823858286016107c2565b9250506020610834858286016107ec565b9150509250929050565b5f82825260208201905092915050565b7f496e76616c69642050726f6f66000000000000000000000000000000000000005f82015250565b5f610882600d8361083e565b915061088d8261084e565b602082019050919050565b5f6020820190508181035f8301526108af81610876565b9050919050565b7f4d616c6963696f757320436f64652100000000000000000000000000000000005f82015250565b5f6108ea600f8361083e565b91506108f5826108b6565b602082019050919050565b5f6020820190508181035f830152610917816108de565b9050919050565b61092781610427565b8114610931575f80fd5b50565b5f815190506109428161091e565b92915050565b5f67ffffffffffffffff82111561096257610961610503565b5b602082029050602081019050919050565b5f80fd5b61098081610407565b811461098a575f80fd5b50565b5f8151905061099b81610977565b92915050565b5f6109b36109ae84610948565b610561565b905080838252602082019050602084028301858111156109d6576109d5610973565b5b835b818110156109ff57806109eb888261098d565b8452602084019350506020810190506109d8565b5050509392505050565b5f82601f830112610a1d57610a1c6104eb565b5b8151610a2d8482602086016109a1565b91505092915050565b5f610a40826103e8565b9050919050565b610a5081610a36565b8114610a5a575f80fd5b50565b5f81519050610a6b81610a47565b92915050565b5f805f805f60a08688031215610a8a57610a896104e3565b5b5f610a9788828901610934565b9550506020610aa888828901610934565b945050604086015167ffffffffffffffff811115610ac957610ac86104e7565b5b610ad588828901610a09565b9350506060610ae688828901610a5d565b9250506080610af788828901610934565b9150509295509295909350565b5f81519050919050565b5f82825260208201905092915050565b5f819050602082019050919050565b610b3681610407565b82525050565b5f610b478383610b2d565b60208301905092915050565b5f602082019050919050565b5f610b6982610b04565b610b738185610b0e565b9350610b7e83610b1e565b805f5b83811015610bae578151610b958882610b3c565b9750610ba083610b53565b925050600181019050610b81565b5085935050505092915050565b5f608082019050610bce5f830187610430565b8181036020830152610be08186610b5f565b9050610bef6040830185610418565b610bfc6060830184610430565b95945050505050565b5f67ffffffffffffffff821115610c1f57610c1e610503565b5b602082029050602081019050919050565b5f610c42610c3d84610c05565b610561565b90508083825260208201905060208402830185811115610c6557610c64610973565b5b835b81811015610c8e5780610c7a8882610934565b845260208401935050602081019050610c67565b5050509392505050565b5f82601f830112610cac57610cab6104eb565b5b8151610cbc848260208601610c30565b91505092915050565b5f60208284031215610cda57610cd96104e3565b5b5f82015167ffffffffffffffff811115610cf757610cf66104e7565b5b610d0384828501610c98565b91505092915050565b5f6040820190508181035f830152610d248185610749565b90508181036020830152610d388184610749565b9050939250505056fea2646970667358221220481bcc94b8793ff7e30023ce0d9e6c264180ad633e5caf5a8648ef5ee1aff35764736f6c63430008140033",
      "opcodes": "PUSH1 0x80 PUSH1 0x40 MSTORE CALLVALUE DUP1 ISZERO PUSH2 0xF JUMPI PUSH0 DUP1 REVERT JUMPDEST POP PUSH1 0x40 MLOAD PUSH3 0xEDA CODESIZE SUB DUP1 PUSH3 0xEDA DUP4 CODECOPY DUP2 DUP2 ADD PUSH1 0x40 MSTORE DUP2 ADD SWAP1 PUSH2 0x33 SWAP2 SWAP1 PUSH2 0x117 JUMP JUMPDEST DUP2 PUSH0 DUP1 PUSH2 0x100 EXP DUP2 SLOAD DUP2 PUSH20 0xFFFFFFFFFFFFFFFFFFFFFFFFFFFFFFFFFFFFFFFF MUL NOT AND SWAP1 DUP4 PUSH20 0xFFFFFFFFFFFFFFFFFFFFFFFFFFFFFFFFFFFFFFFF AND MUL OR SWAP1 SSTORE POP DUP1 PUSH1 0x1 PUSH0 PUSH2 0x100 EXP DUP2 SLOAD DUP2 PUSH20 0xFFFFFFFFFFFFFFFFFFFFFFFFFFFFFFFFFFFFFFFF MUL NOT AND SWAP1 DUP4 PUSH20 0xFFFFFFFFFFFFFFFFFFFFFFFFFFFFFFFFFFFFFFFF AND MUL OR SWAP1 SSTORE POP POP POP PUSH2 0x155 JUMP JUMPDEST PUSH0 DUP1 REVERT JUMPDEST PUSH0 PUSH20 0xFFFFFFFFFFFFFFFFFFFFFFFFFFFFFFFFFFFFFFFF DUP3 AND SWAP1 POP SWAP2 SWAP1 POP JUMP JUMPDEST PUSH0 PUSH2 0xE6 DUP3 PUSH2 0xBD JUMP JUMPDEST SWAP1 POP SWAP2 SWAP1 POP JUMP JUMPDEST PUSH2 0xF6 DUP2 PUSH2 0xDC JUMP JUMPDEST DUP2 EQ PUSH2 0x100 JUMPI PUSH0 DUP1 REVERT JUMPDEST POP JUMP JUMPDEST PUSH0 DUP2 MLOAD SWAP1 POP PUSH2 0x111 DUP2 PUSH2 0xED JUMP JUMPDEST SWAP3 SWAP2 POP POP JUMP JUMPDEST PUSH0 DUP1 PUSH1 0x40 DUP4 DUP6 SUB SLT ISZERO PUSH2 0x12D JUMPI PUSH2 0x12C PUSH2 0xB9 JUMP JUMPDEST JUMPDEST PUSH0 PUSH2 0x13A DUP6 DUP3 DUP7 ADD PUSH2 0x103 JUMP JUMPDEST SWAP3 POP POP PUSH1 0x20 PUSH2 0x14B DUP6 DUP3 DUP7 ADD PUSH2 0x103 JUMP JUMPDEST SWAP2 POP POP SWAP3 POP SWAP3 SWAP1 POP JUMP JUMPDEST PUSH2 0xD77 DUP1 PUSH3 0x163 PUSH0 CODECOPY PUSH0 RETURN INVALID PUSH1 0x80 PUSH1 0x40 MSTORE PUSH1 0x4 CALLDATASIZE LT PUSH2 0x42 JUMPI PUSH0 CALLDATALOAD PUSH1 0xE0 SHR DUP1 PUSH4 0x3275F21C EQ PUSH2 0x86 JUMPI DUP1 PUSH4 0x34090736 EQ PUSH2 0xB0 JUMPI DUP1 PUSH4 0x692058C2 EQ PUSH2 0xD8 JUMPI DUP1 PUSH4 0x72A5B94A EQ PUSH2 0x102 JUMPI PUSH2 0x82 JUMP JUMPDEST CALLDATASIZE PUSH2 0x82 JUMPI PUSH32 0x8E47B87B0EF542CDFA1659C551D88BAD38AA7F452D2BBB349AB7530DFEC8BE8F CALLER CALLVALUE PUSH1 0x40 MLOAD PUSH2 0x78 SWAP3 SWAP2 SWAP1 PUSH2 0x43F JUMP JUMPDEST PUSH1 0x40 MLOAD DUP1 SWAP2 SUB SWAP1 LOG1 STOP JUMPDEST PUSH0 DUP1 REVERT JUMPDEST CALLVALUE DUP1 ISZERO PUSH2 0x91 JUMPI PUSH0 DUP1 REVERT JUMPDEST POP PUSH2 0x9A PUSH2 0x12C JUMP JUMPDEST PUSH1 0x40 MLOAD PUSH2 0xA7 SWAP2 SWAP1 PUSH2 0x4C1 JUMP JUMPDEST PUSH1 0x40 MLOAD DUP1 SWAP2 SUB SWAP1 RETURN JUMPDEST CALLVALUE DUP1 ISZERO PUSH2 0xBB JUMPI PUSH0 DUP1 REVERT JUMPDEST POP PUSH2 0xD6 PUSH1 0x4 DUP1 CALLDATASIZE SUB DUP2 ADD SWAP1 PUSH2 0xD1 SWAP2 SWAP1 PUSH2 0x627 JUMP JUMPDEST PUSH2 0x14F JUMP JUMPDEST STOP JUMPDEST CALLVALUE DUP1 ISZERO PUSH2 0xE3 JUMPI PUSH0 DUP1 REVERT JUMPDEST POP PUSH2 0xEC PUSH2 0x39D JUMP JUMPDEST PUSH1 0x40 MLOAD PUSH2 0xF9 SWAP2 SWAP1 PUSH2 0x6BD JUMP JUMPDEST PUSH1 0x40 MLOAD DUP1 SWAP2 SUB SWAP1 RETURN JUMPDEST CALLVALUE DUP1 ISZERO PUSH2 0x10D JUMPI PUSH0 DUP1 REVERT JUMPDEST POP PUSH2 0x116 PUSH2 0x3C2 JUMP JUMPDEST PUSH1 0x40 MLOAD PUSH2 0x123 SWAP2 SWAP1 PUSH2 0x6EE JUMP JUMPDEST PUSH1 0x40 MLOAD DUP1 SWAP2 SUB SWAP1 RETURN JUMPDEST PUSH0 DUP1 SLOAD SWAP1 PUSH2 0x100 EXP SWAP1 DIV PUSH20 0xFFFFFFFFFFFFFFFFFFFFFFFFFFFFFFFFFFFFFFFF AND DUP2 JUMP JUMPDEST PUSH0 DUP1 PUSH0 DUP1 SLOAD SWAP1 PUSH2 0x100 EXP SWAP1 DIV PUSH20 0xFFFFFFFFFFFFFFFFFFFFFFFFFFFFFFFFFFFFFFFF AND PUSH20 0xFFFFFFFFFFFFFFFFFFFFFFFFFFFFFFFFFFFFFFFF AND PUSH4 0x8E760AFE DUP5 PUSH1 0x40 MLOAD DUP3 PUSH4 0xFFFFFFFF AND PUSH1 0xE0 SHL DUP2 MSTORE PUSH1 0x4 ADD PUSH2 0x1A9 SWAP2 SWAP1 PUSH2 0x781 JUMP JUMPDEST PUSH1 0x40 DUP1 MLOAD DUP1 DUP4 SUB DUP2 PUSH0 DUP8 GAS CALL ISZERO DUP1 ISZERO PUSH2 0x1C4 JUMPI RETURNDATASIZE PUSH0 DUP1 RETURNDATACOPY RETURNDATASIZE PUSH0 REVERT JUMPDEST POP POP POP POP PUSH1 0x40 MLOAD RETURNDATASIZE PUSH1 0x1F NOT PUSH1 0x1F DUP3 ADD AND DUP3 ADD DUP1 PUSH1 0x40 MSTORE POP DUP2 ADD SWAP1 PUSH2 0x1E8 SWAP2 SWAP1 PUSH2 0x800 JUMP JUMPDEST SWAP2 POP SWAP2 POP DUP2 PUSH2 0x22C JUMPI PUSH1 0x40 MLOAD PUSH32 0x8C379A000000000000000000000000000000000000000000000000000000000 DUP2 MSTORE PUSH1 0x4 ADD PUSH2 0x223 SWAP1 PUSH2 0x898 JUMP JUMPDEST PUSH1 0x40 MLOAD DUP1 SWAP2 SUB SWAP1 REVERT JUMPDEST PUSH32 0x5C8E81F910C11C92E5161CC307365BE246F6DB5B72A9868FB73516337268E6D1 PUSH0 SHL DUP2 EQ PUSH2 0x290 JUMPI PUSH1 0x40 MLOAD PUSH32 0x8C379A000000000000000000000000000000000000000000000000000000000 DUP2 MSTORE PUSH1 0x4 ADD PUSH2 0x287 SWAP1 PUSH2 0x900 JUMP JUMPDEST PUSH1 0x40 MLOAD DUP1 SWAP2 SUB SWAP1 REVERT JUMPDEST PUSH0 DUP1 PUSH0 DUP1 PUSH0 DUP9 DUP1 PUSH1 0x20 ADD SWAP1 MLOAD DUP2 ADD SWAP1 PUSH2 0x2A9 SWAP2 SWAP1 PUSH2 0xA71 JUMP JUMPDEST SWAP5 POP SWAP5 POP SWAP5 POP SWAP5 POP SWAP5 POP PUSH1 0x1 PUSH0 SWAP1 SLOAD SWAP1 PUSH2 0x100 EXP SWAP1 DIV PUSH20 0xFFFFFFFFFFFFFFFFFFFFFFFFFFFFFFFFFFFFFFFF AND PUSH20 0xFFFFFFFFFFFFFFFFFFFFFFFFFFFFFFFFFFFFFFFF AND PUSH4 0x7FF36AB5 DUP7 DUP7 DUP7 DUP7 DUP7 PUSH1 0x40 MLOAD DUP7 PUSH4 0xFFFFFFFF AND PUSH1 0xE0 SHL DUP2 MSTORE PUSH1 0x4 ADD PUSH2 0x314 SWAP5 SWAP4 SWAP3 SWAP2 SWAP1 PUSH2 0xBBB JUMP JUMPDEST PUSH0 PUSH1 0x40 MLOAD DUP1 DUP4 SUB DUP2 DUP6 DUP9 GAS CALL ISZERO DUP1 ISZERO PUSH2 0x32F JUMPI RETURNDATASIZE PUSH0 DUP1 RETURNDATACOPY RETURNDATASIZE PUSH0 REVERT JUMPDEST POP POP POP POP POP PUSH1 0x40 MLOAD RETURNDATASIZE PUSH0 DUP3 RETURNDATACOPY RETURNDATASIZE PUSH1 0x1F NOT PUSH1 0x1F DUP3 ADD AND DUP3 ADD DUP1 PUSH1 0x40 MSTORE POP DUP2 ADD SWAP1 PUSH2 0x358 SWAP2 SWAP1 PUSH2 0xCC5 JUMP JUMPDEST POP PUSH32 0x397D11B4929878DD685D13E5F9D6120CD5E6089F9E6A87DA385873B54E20DD9B DUP10 DUP10 PUSH1 0x40 MLOAD PUSH2 0x38A SWAP3 SWAP2 SWAP1 PUSH2 0xD0C JUMP JUMPDEST PUSH1 0x40 MLOAD DUP1 SWAP2 SUB SWAP1 LOG1 POP POP POP POP POP POP POP POP POP JUMP JUMPDEST PUSH1 0x1 PUSH0 SWAP1 SLOAD SWAP1 PUSH2 0x100 EXP SWAP1 DIV PUSH20 0xFFFFFFFFFFFFFFFFFFFFFFFFFFFFFFFFFFFFFFFF AND DUP2 JUMP JUMPDEST PUSH32 0x5C8E81F910C11C92E5161CC307365BE246F6DB5B72A9868FB73516337268E6D1 PUSH0 SHL DUP2 JUMP JUMPDEST PUSH0 PUSH20 0xFFFFFFFFFFFFFFFFFFFFFFFFFFFFFFFFFFFFFFFF DUP3 AND SWAP1 POP SWAP2 SWAP1 POP JUMP JUMPDEST PUSH0 PUSH2 0x411 DUP3 PUSH2 0x3E8 JUMP JUMPDEST SWAP1 POP SWAP2 SWAP1 POP JUMP JUMPDEST PUSH2 0x421 DUP2 PUSH2 0x407 JUMP JUMPDEST DUP3 MSTORE POP POP JUMP JUMPDEST PUSH0 DUP2 SWAP1 POP SWAP2 SWAP1 POP JUMP JUMPDEST PUSH2 0x439 DUP2 PUSH2 0x427 JUMP JUMPDEST DUP3 MSTORE POP POP JUMP JUMPDEST PUSH0 PUSH1 0x40 DUP3 ADD SWAP1 POP PUSH2 0x452 PUSH0 DUP4 ADD DUP6 PUSH2 0x418 JUMP JUMPDEST PUSH2 0x45F PUSH1 0x20 DUP4 ADD DUP5 PUSH2 0x430 JUMP JUMPDEST SWAP4 SWAP3 POP POP POP JUMP JUMPDEST PUSH0 DUP2 SWAP1 POP SWAP2 SWAP1 POP JUMP JUMPDEST PUSH0 PUSH2 0x489 PUSH2 0x484 PUSH2 0x47F DUP5 PUSH2 0x3E8 JUMP JUMPDEST PUSH2 0x466 JUMP JUMPDEST PUSH2 0x3E8 JUMP JUMPDEST SWAP1 POP SWAP2 SWAP1 POP JUMP JUMPDEST PUSH0 PUSH2 0x49A DUP3 PUSH2 0x46F JUMP JUMPDEST SWAP1 POP SWAP2 SWAP1 POP JUMP JUMPDEST PUSH0 PUSH2 0x4AB DUP3 PUSH2 0x490 JUMP JUMPDEST SWAP1 POP SWAP2 SWAP1 POP JUMP JUMPDEST PUSH2 0x4BB DUP2 PUSH2 0x4A1 JUMP JUMPDEST DUP3 MSTORE POP POP JUMP JUMPDEST PUSH0 PUSH1 0x20 DUP3 ADD SWAP1 POP PUSH2 0x4D4 PUSH0 DUP4 ADD DUP5 PUSH2 0x4B2 JUMP JUMPDEST SWAP3 SWAP2 POP POP JUMP JUMPDEST PUSH0 PUSH1 0x40 MLOAD SWAP1 POP SWAP1 JUMP JUMPDEST PUSH0 DUP1 REVERT JUMPDEST PUSH0 DUP1 REVERT JUMPDEST PUSH0 DUP1 REVERT JUMPDEST PUSH0 DUP1 REVERT JUMPDEST PUSH0 PUSH1 0x1F NOT PUSH1 0x1F DUP4 ADD AND SWAP1 POP SWAP2 SWAP1 POP JUMP JUMPDEST PUSH32 0x4E487B7100000000000000000000000000000000000000000000000000000000 PUSH0 MSTORE PUSH1 0x41 PUSH1 0x4 MSTORE PUSH1 0x24 PUSH0 REVERT JUMPDEST PUSH2 0x539 DUP3 PUSH2 0x4F3 JUMP JUMPDEST DUP2 ADD DUP2 DUP2 LT PUSH8 0xFFFFFFFFFFFFFFFF DUP3 GT OR ISZERO PUSH2 0x558 JUMPI PUSH2 0x557 PUSH2 0x503 JUMP JUMPDEST JUMPDEST DUP1 PUSH1 0x40 MSTORE POP POP POP JUMP JUMPDEST PUSH0 PUSH2 0x56A PUSH2 0x4DA JUMP JUMPDEST SWAP1 POP PUSH2 0x576 DUP3 DUP3 PUSH2 0x530 JUMP JUMPDEST SWAP2 SWAP1 POP JUMP JUMPDEST PUSH0 PUSH8 0xFFFFFFFFFFFFFFFF DUP3 GT ISZERO PUSH2 0x595 JUMPI PUSH2 0x594 PUSH2 0x503 JUMP JUMPDEST JUMPDEST PUSH2 0x59E DUP3 PUSH2 0x4F3 JUMP JUMPDEST SWAP1 POP PUSH1 0x20 DUP2 ADD SWAP1 POP SWAP2 SWAP1 POP JUMP JUMPDEST DUP3 DUP2 DUP4 CALLDATACOPY PUSH0 DUP4 DUP4 ADD MSTORE POP POP POP JUMP JUMPDEST PUSH0 PUSH2 0x5CB PUSH2 0x5C6 DUP5 PUSH2 0x57B JUMP JUMPDEST PUSH2 0x561 JUMP JUMPDEST SWAP1 POP DUP3 DUP2 MSTORE PUSH1 0x20 DUP2 ADD DUP5 DUP5 DUP5 ADD GT ISZERO PUSH2 0x5E7 JUMPI PUSH2 0x5E6 PUSH2 0x4EF JUMP JUMPDEST JUMPDEST PUSH2 0x5F2 DUP5 DUP3 DUP6 PUSH2 0x5AB JUMP JUMPDEST POP SWAP4 SWAP3 POP POP POP JUMP JUMPDEST PUSH0 DUP3 PUSH1 0x1F DUP4 ADD SLT PUSH2 0x60E JUMPI PUSH2 0x60D PUSH2 0x4EB JUMP JUMPDEST JUMPDEST DUP2 CALLDATALOAD PUSH2 0x61E DUP5 DUP3 PUSH1 0x20 DUP7 ADD PUSH2 0x5B9 JUMP JUMPDEST SWAP2 POP POP SWAP3 SWAP2 POP POP JUMP JUMPDEST PUSH0 DUP1 PUSH1 0x40 DUP4 DUP6 SUB SLT ISZERO PUSH2 0x63D JUMPI PUSH2 0x63C PUSH2 0x4E3 JUMP JUMPDEST JUMPDEST PUSH0 DUP4 ADD CALLDATALOAD PUSH8 0xFFFFFFFFFFFFFFFF DUP2 GT ISZERO PUSH2 0x65A JUMPI PUSH2 0x659 PUSH2 0x4E7 JUMP JUMPDEST JUMPDEST PUSH2 0x666 DUP6 DUP3 DUP7 ADD PUSH2 0x5FA JUMP JUMPDEST SWAP3 POP POP PUSH1 0x20 DUP4 ADD CALLDATALOAD PUSH8 0xFFFFFFFFFFFFFFFF DUP2 GT ISZERO PUSH2 0x687 JUMPI PUSH2 0x686 PUSH2 0x4E7 JUMP JUMPDEST JUMPDEST PUSH2 0x693 DUP6 DUP3 DUP7 ADD PUSH2 0x5FA JUMP JUMPDEST SWAP2 POP POP SWAP3 POP SWAP3 SWAP1 POP JUMP JUMPDEST PUSH0 PUSH2 0x6A7 DUP3 PUSH2 0x490 JUMP JUMPDEST SWAP1 POP SWAP2 SWAP1 POP JUMP JUMPDEST PUSH2 0x6B7 DUP2 PUSH2 0x69D JUMP JUMPDEST DUP3 MSTORE POP POP JUMP JUMPDEST PUSH0 PUSH1 0x20 DUP3 ADD SWAP1 POP PUSH2 0x6D0 PUSH0 DUP4 ADD DUP5 PUSH2 0x6AE JUMP JUMPDEST SWAP3 SWAP2 POP POP JUMP JUMPDEST PUSH0 DUP2 SWAP1 POP SWAP2 SWAP1 POP JUMP JUMPDEST PUSH2 0x6E8 DUP2 PUSH2 0x6D6 JUMP JUMPDEST DUP3 MSTORE POP POP JUMP JUMPDEST PUSH0 PUSH1 0x20 DUP3 ADD SWAP1 POP PUSH2 0x701 PUSH0 DUP4 ADD DUP5 PUSH2 0x6DF JUMP JUMPDEST SWAP3 SWAP2 POP POP JUMP JUMPDEST PUSH0 DUP2 MLOAD SWAP1 POP SWAP2 SWAP1 POP JUMP JUMPDEST PUSH0 DUP3 DUP3 MSTORE PUSH1 0x20 DUP3 ADD SWAP1 POP SWAP3 SWAP2 POP POP JUMP JUMPDEST PUSH0 JUMPDEST DUP4 DUP2 LT ISZERO PUSH2 0x73E JUMPI DUP1 DUP3 ADD MLOAD DUP2 DUP5 ADD MSTORE PUSH1 0x20 DUP2 ADD SWAP1 POP PUSH2 0x723 JUMP JUMPDEST PUSH0 DUP5 DUP5 ADD MSTORE POP POP POP POP JUMP JUMPDEST PUSH0 PUSH2 0x753 DUP3 PUSH2 0x707 JUMP JUMPDEST PUSH2 0x75D DUP2 DUP6 PUSH2 0x711 JUMP JUMPDEST SWAP4 POP PUSH2 0x76D DUP2 DUP6 PUSH1 0x20 DUP7 ADD PUSH2 0x721 JUMP JUMPDEST PUSH2 0x776 DUP2 PUSH2 0x4F3 JUMP JUMPDEST DUP5 ADD SWAP2 POP POP SWAP3 SWAP2 POP POP JUMP JUMPDEST PUSH0 PUSH1 0x20 DUP3 ADD SWAP1 POP DUP2 DUP2 SUB PUSH0 DUP4 ADD MSTORE PUSH2 0x799 DUP2 DUP5 PUSH2 0x749 JUMP JUMPDEST SWAP1 POP SWAP3 SWAP2 POP POP JUMP JUMPDEST PUSH0 DUP2 ISZERO ISZERO SWAP1 POP SWAP2 SWAP1 POP JUMP JUMPDEST PUSH2 0x7B5 DUP2 PUSH2 0x7A1 JUMP JUMPDEST DUP2 EQ PUSH2 0x7BF JUMPI PUSH0 DUP1 REVERT JUMPDEST POP JUMP JUMPDEST PUSH0 DUP2 MLOAD SWAP1 POP PUSH2 0x7D0 DUP2 PUSH2 0x7AC JUMP JUMPDEST SWAP3 SWAP2 POP POP JUMP JUMPDEST PUSH2 0x7DF DUP2 PUSH2 0x6D6 JUMP JUMPDEST DUP2 EQ PUSH2 0x7E9 JUMPI PUSH0 DUP1 REVERT JUMPDEST POP JUMP JUMPDEST PUSH0 DUP2 MLOAD SWAP1 POP PUSH2 0x7FA DUP2 PUSH2 0x7D6 JUMP JUMPDEST SWAP3 SWAP2 POP POP JUMP JUMPDEST PUSH0 DUP1 PUSH1 0x40 DUP4 DUP6 SUB SLT ISZERO PUSH2 0x816 JUMPI PUSH2 0x815 PUSH2 0x4E3 JUMP JUMPDEST JUMPDEST PUSH0 PUSH2 0x823 DUP6 DUP3 DUP7 ADD PUSH2 0x7C2 JUMP JUMPDEST SWAP3 POP POP PUSH1 0x20 PUSH2 0x834 DUP6 DUP3 DUP7 ADD PUSH2 0x7EC JUMP JUMPDEST SWAP2 POP POP SWAP3 POP SWAP3 SWAP1 POP JUMP JUMPDEST PUSH0 DUP3 DUP3 MSTORE PUSH1 0x20 DUP3 ADD SWAP1 POP SWAP3 SWAP2 POP POP JUMP JUMPDEST PUSH32 0x496E76616C69642050726F6F6600000000000000000000000000000000000000 PUSH0 DUP3 ADD MSTORE POP JUMP JUMPDEST PUSH0 PUSH2 0x882 PUSH1 0xD DUP4 PUSH2 0x83E JUMP JUMPDEST SWAP2 POP PUSH2 0x88D DUP3 PUSH2 0x84E JUMP JUMPDEST PUSH1 0x20 DUP3 ADD SWAP1 POP SWAP2 SWAP1 POP JUMP JUMPDEST PUSH0 PUSH1 0x20 DUP3 ADD SWAP1 POP DUP2 DUP2 SUB PUSH0 DUP4 ADD MSTORE PUSH2 0x8AF DUP2 PUSH2 0x876 JUMP JUMPDEST SWAP1 POP SWAP2 SWAP1 POP JUMP JUMPDEST PUSH32 0x4D616C6963696F757320436F6465210000000000000000000000000000000000 PUSH0 DUP3 ADD MSTORE POP JUMP JUMPDEST PUSH0 PUSH2 0x8EA PUSH1 0xF DUP4 PUSH2 0x83E JUMP JUMPDEST SWAP2 POP PUSH2 0x8F5 DUP3 PUSH2 0x8B6 JUMP JUMPDEST PUSH1 0x20 DUP3 ADD SWAP1 POP SWAP2 SWAP1 POP JUMP JUMPDEST PUSH0 PUSH1 0x20 DUP3 ADD SWAP1 POP DUP2 DUP2 SUB PUSH0 DUP4 ADD MSTORE PUSH2 0x917 DUP2 PUSH2 0x8DE JUMP JUMPDEST SWAP1 POP SWAP2 SWAP1 POP JUMP JUMPDEST PUSH2 0x927 DUP2 PUSH2 0x427 JUMP JUMPDEST DUP2 EQ PUSH2 0x931 JUMPI PUSH0 DUP1 REVERT JUMPDEST POP JUMP JUMPDEST PUSH0 DUP2 MLOAD SWAP1 POP PUSH2 0x942 DUP2 PUSH2 0x91E JUMP JUMPDEST SWAP3 SWAP2 POP POP JUMP JUMPDEST PUSH0 PUSH8 0xFFFFFFFFFFFFFFFF DUP3 GT ISZERO PUSH2 0x962 JUMPI PUSH2 0x961 PUSH2 0x503 JUMP JUMPDEST JUMPDEST PUSH1 0x20 DUP3 MUL SWAP1 POP PUSH1 0x20 DUP2 ADD SWAP1 POP SWAP2 SWAP1 POP JUMP JUMPDEST PUSH0 DUP1 REVERT JUMPDEST PUSH2 0x980 DUP2 PUSH2 0x407 JUMP JUMPDEST DUP2 EQ PUSH2 0x98A JUMPI PUSH0 DUP1 REVERT JUMPDEST POP JUMP JUMPDEST PUSH0 DUP2 MLOAD SWAP1 POP PUSH2 0x99B DUP2 PUSH2 0x977 JUMP JUMPDEST SWAP3 SWAP2 POP POP JUMP JUMPDEST PUSH0 PUSH2 0x9B3 PUSH2 0x9AE DUP5 PUSH2 0x948 JUMP JUMPDEST PUSH2 0x561 JUMP JUMPDEST SWAP1 POP DUP1 DUP4 DUP3 MSTORE PUSH1 0x20 DUP3 ADD SWAP1 POP PUSH1 0x20 DUP5 MUL DUP4 ADD DUP6 DUP2 GT ISZERO PUSH2 0x9D6 JUMPI PUSH2 0x9D5 PUSH2 0x973 JUMP JUMPDEST JUMPDEST DUP4 JUMPDEST DUP2 DUP2 LT ISZERO PUSH2 0x9FF JUMPI DUP1 PUSH2 0x9EB DUP9 DUP3 PUSH2 0x98D JUMP JUMPDEST DUP5 MSTORE PUSH1 0x20 DUP5 ADD SWAP4 POP POP PUSH1 0x20 DUP2 ADD SWAP1 POP PUSH2 0x9D8 JUMP JUMPDEST POP POP POP SWAP4 SWAP3 POP POP POP JUMP JUMPDEST PUSH0 DUP3 PUSH1 0x1F DUP4 ADD SLT PUSH2 0xA1D JUMPI PUSH2 0xA1C PUSH2 0x4EB JUMP JUMPDEST JUMPDEST DUP2 MLOAD PUSH2 0xA2D DUP5 DUP3 PUSH1 0x20 DUP7 ADD PUSH2 0x9A1 JUMP JUMPDEST SWAP2 POP POP SWAP3 SWAP2 POP POP JUMP JUMPDEST PUSH0 PUSH2 0xA40 DUP3 PUSH2 0x3E8 JUMP JUMPDEST SWAP1 POP SWAP2 SWAP1 POP JUMP JUMPDEST PUSH2 0xA50 DUP2 PUSH2 0xA36 JUMP JUMPDEST DUP2 EQ PUSH2 0xA5A JUMPI PUSH0 DUP1 REVERT JUMPDEST POP JUMP JUMPDEST PUSH0 DUP2 MLOAD SWAP1 POP PUSH2 0xA6B DUP2 PUSH2 0xA47 JUMP JUMPDEST SWAP3 SWAP2 POP POP JUMP JUMPDEST PUSH0 DUP1 PUSH0 DUP1 PUSH0 PUSH1 0xA0 DUP7 DUP9 SUB SLT ISZERO PUSH2 0xA8A JUMPI PUSH2 0xA89 PUSH2 0x4E3 JUMP JUMPDEST JUMPDEST PUSH0 PUSH2 0xA97 DUP9 DUP3 DUP10 ADD PUSH2 0x934 JUMP JUMPDEST SWAP6 POP POP PUSH1 0x20 PUSH2 0xAA8 DUP9 DUP3 DUP10 ADD PUSH2 0x934 JUMP JUMPDEST SWAP5 POP POP PUSH1 0x40 DUP7 ADD MLOAD PUSH8 0xFFFFFFFFFFFFFFFF DUP2 GT ISZERO PUSH2 0xAC9 JUMPI PUSH2 0xAC8 PUSH2 0x4E7 JUMP JUMPDEST JUMPDEST PUSH2 0xAD5 DUP9 DUP3 DUP10 ADD PUSH2 0xA09 JUMP JUMPDEST SWAP4 POP POP PUSH1 0x60 PUSH2 0xAE6 DUP9 DUP3 DUP10 ADD PUSH2 0xA5D JUMP JUMPDEST SWAP3 POP POP PUSH1 0x80 PUSH2 0xAF7 DUP9 DUP3 DUP10 ADD PUSH2 0x934 JUMP JUMPDEST SWAP2 POP POP SWAP3 SWAP6 POP SWAP3 SWAP6 SWAP1 SWAP4 POP JUMP JUMPDEST PUSH0 DUP2 MLOAD SWAP1 POP SWAP2 SWAP1 POP JUMP JUMPDEST PUSH0 DUP3 DUP3 MSTORE PUSH1 0x20 DUP3 ADD SWAP1 POP SWAP3 SWAP2 POP POP JUMP JUMPDEST PUSH0 DUP2 SWAP1 POP PUSH1 0x20 DUP3 ADD SWAP1 POP SWAP2 SWAP1 POP JUMP JUMPDEST PUSH2 0xB36 DUP2 PUSH2 0x407 JUMP JUMPDEST DUP3 MSTORE POP POP JUMP JUMPDEST PUSH0 PUSH2 0xB47 DUP4 DUP4 PUSH2 0xB2D JUMP JUMPDEST PUSH1 0x20 DUP4 ADD SWAP1 POP SWAP3 SWAP2 POP POP JUMP JUMPDEST PUSH0 PUSH1 0x20 DUP3 ADD SWAP1 POP SWAP2 SWAP1 POP JUMP JUMPDEST PUSH0 PUSH2 0xB69 DUP3 PUSH2 0xB04 JUMP JUMPDEST PUSH2 0xB73 DUP2 DUP6 PUSH2 0xB0E JUMP JUMPDEST SWAP4 POP PUSH2 0xB7E DUP4 PUSH2 0xB1E JUMP JUMPDEST DUP1 PUSH0 JUMPDEST DUP4 DUP2 LT ISZERO PUSH2 0xBAE JUMPI DUP2 MLOAD PUSH2 0xB95 DUP9 DUP3 PUSH2 0xB3C JUMP JUMPDEST SWAP8 POP PUSH2 0xBA0 DUP4 PUSH2 0xB53 JUMP JUMPDEST SWAP3 POP POP PUSH1 0x1 DUP2 ADD SWAP1 POP PUSH2 0xB81 JUMP JUMPDEST POP DUP6 SWAP4 POP POP POP POP SWAP3 SWAP2 POP POP JUMP JUMPDEST PUSH0 PUSH1 0x80 DUP3 ADD SWAP1 POP PUSH2 0xBCE PUSH0 DUP4 ADD DUP8 PUSH2 0x430 JUMP JUMPDEST DUP2 DUP2 SUB PUSH1 0x20 DUP4 ADD MSTORE PUSH2 0xBE0 DUP2 DUP7 PUSH2 0xB5F JUMP JUMPDEST SWAP1 POP PUSH2 0xBEF PUSH1 0x40 DUP4 ADD DUP6 PUSH2 0x418 JUMP JUMPDEST PUSH2 0xBFC PUSH1 0x60 DUP4 ADD DUP5 PUSH2 0x430 JUMP JUMPDEST SWAP6 SWAP5 POP POP POP POP POP JUMP JUMPDEST PUSH0 PUSH8 0xFFFFFFFFFFFFFFFF DUP3 GT ISZERO PUSH2 0xC1F JUMPI PUSH2 0xC1E PUSH2 0x503 JUMP JUMPDEST JUMPDEST PUSH1 0x20 DUP3 MUL SWAP1 POP PUSH1 0x20 DUP2 ADD SWAP1 POP SWAP2 SWAP1 POP JUMP JUMPDEST PUSH0 PUSH2 0xC42 PUSH2 0xC3D DUP5 PUSH2 0xC05 JUMP JUMPDEST PUSH2 0x561 JUMP JUMPDEST SWAP1 POP DUP1 DUP4 DUP3 MSTORE PUSH1 0x20 DUP3 ADD SWAP1 POP PUSH1 0x20 DUP5 MUL DUP4 ADD DUP6 DUP2 GT ISZERO PUSH2 0xC65 JUMPI PUSH2 0xC64 PUSH2 0x973 JUMP JUMPDEST JUMPDEST DUP4 JUMPDEST DUP2 DUP2 LT ISZERO PUSH2 0xC8E JUMPI DUP1 PUSH2 0xC7A DUP9 DUP3 PUSH2 0x934 JUMP JUMPDEST DUP5 MSTORE PUSH1 0x20 DUP5 ADD SWAP4 POP POP PUSH1 0x20 DUP2 ADD SWAP1 POP PUSH2 0xC67 JUMP JUMPDEST POP POP POP SWAP4 SWAP3 POP POP POP JUMP JUMPDEST PUSH0 DUP3 PUSH1 0x1F DUP4 ADD SLT PUSH2 0xCAC JUMPI PUSH2 0xCAB PUSH2 0x4EB JUMP JUMPDEST JUMPDEST DUP2 MLOAD PUSH2 0xCBC DUP5 DUP3 PUSH1 0x20 DUP7 ADD PUSH2 0xC30 JUMP JUMPDEST SWAP2 POP POP SWAP3 SWAP2 POP POP JUMP JUMPDEST PUSH0 PUSH1 0x20 DUP3 DUP5 SUB SLT ISZERO PUSH2 0xCDA JUMPI PUSH2 0xCD9 PUSH2 0x4E3 JUMP JUMPDEST JUMPDEST PUSH0 DUP3 ADD MLOAD PUSH8 0xFFFFFFFFFFFFFFFF DUP2 GT ISZERO PUSH2 0xCF7 JUMPI PUSH2 0xCF6 PUSH2 0x4E7 JUMP JUMPDEST JUMPDEST PUSH2 0xD03 DUP5 DUP3 DUP6 ADD PUSH2 0xC98 JUMP JUMPDEST SWAP2 POP POP SWAP3 SWAP2 POP POP JUMP JUMPDEST PUSH0 PUSH1 0x40 DUP3 ADD SWAP1 POP DUP2 DUP2 SUB PUSH0 DUP4 ADD MSTORE PUSH2 0xD24 DUP2 DUP6 PUSH2 0x749 JUMP JUMPDEST SWAP1 POP DUP2 DUP2 SUB PUSH1 0x20 DUP4 ADD MSTORE PUSH2 0xD38 DUP2 DUP5 PUSH2 0x749 JUMP JUMPDEST SWAP1 POP SWAP4 SWAP3 POP POP POP JUMP INVALID LOG2 PUSH5 0x6970667358 0x22 SLT KECCAK256 BASEFEE SHL 0xCC SWAP5 0xB8 PUSH26 0x3FF7E30023CE0D9E6C264180AD633E5CAF5A8648EF5EE1AFF357 PUSH5 0x736F6C6343 STOP ADDMOD EQ STOP CALLER "
    },
    "gasEstimates": {
      "creation": {
        "codeDepositCost": "689400",
        "executionCost": "infinite",
        "totalCost": "infinite"
      },
      "external": {
        "APPROVED_CODE_HASH()": "374",
        "dex()": "infinite",
        "executeStrategy(bytes,bytes)": "infinite",
        "fdc()": "infinite"
      }
    },
    "methodIdentifiers": {
      "APPROVED_CODE_HASH()": "72a5b94a",
      "dex()": "692058c2",
      "executeStrategy(bytes,bytes)": "34090736",
      "fdc()": "3275f21c"
    }
  },
  "storageLayout": {
    "storage": [
      {
        "astId": 83,
        "contract": "contracts/VerifyMindVault.sol:VerifyMindVault",
        "label": "fdc",
        "offset": 0,
        "slot": "0",
        "type": "t_contract(IFdcVerification)245"
      },
      {
        "astId": 86,
        "contract": "contracts/VerifyMindVault.sol:VerifyMindVault",
        "label": "dex",
        "offset": 0,
        "slot": "1",
        "type": "t_contract(ISparkDEX)232"
      }
    ],
    "types": {
      "t_contract(IFdcVerification)245": {
        "encoding": "inplace",
        "label": "contract IFdcVerification",
        "numberOfBytes": "20"
      },
      "t_contract(ISparkDEX)232": {
        "encoding": "inplace",
        "label": "contract ISparkDEX",
        "numberOfBytes": "20"
      }
    }
  },
  "userdoc": {
    "kind": "user",
    "methods": {
      "executeStrategy(bytes,bytes)": {
        "notice": "Executes a strategy if the attestation is valid."
      }
    },
    "version": 1
  }
}